:020000040800F2
:10000000801900246D040008835B00082D58000847
:10001000815B0008CF060008D581000800000000C1
:10002000000000000000000000000000AD03000818
:10003000150B000800000000090400089D5F00087F
:100040008B0400088B0400088B0400088B04000854
:100050008B0400088B0400088B0400088B04000844
:100060008B0400088B0400088B040008D1060008EC
:100070008B0400088B0400088B0400088B04000824
:100080008B0400088B0400088B040008390B00085F
:10009000450B00088B0400088B0400088B04000843
:1000A0008B0400088B0400088B0400088B040008F4
:1000B0008B0400088B0400088B0400088B040008E4
:1000C0008B0400088B0400088B0400088B040008D4
:1000D0008B040008796900088B0400088B04000871
:1000E0008B0400088B040008000000008B0400084B
:1000F0008B0400088B0400088B0400088B040008A4
:100100008B0400088B0400088B0400088B04000893
:100110008B0400088B0400088B0400088B04000883
:100120008B0400088B0400088B0400088B04000873
:100130008B0400088B0400088B0400088B04000863
:1001400000000000000000000000000000000000AF
:100150008B0400088B0400088B0400088B04000843
:100160008B0400088B0400088B0400088B04000833
:100170008B040008855B00088B0400080000000069
:100180008B0400088B0400088B0400088B04000813
:100190008B0400088B0400088B0400088B04000803
:1001A0008B0400088B0400088B040008000000008A
:1001B0008B0400088B0400088B0400088B040008E3
:1001C0008B0400088B040008000000000000000001
:1001D00000000000000000008B0400080000000088
:1001E000000000000000000000000000000000000F
:1001F00000000000000000008B0400088B040008D1
:100200008B0400088B040008000000008B04000829
:100210008B0400088B0400088B0400088B04000882
:100220008B040008000000008B04000800000000A0
:100230008B0400088B040008000000008B040008F9
:100240008B0400088B0400088B0400088B04000852
:100250008B0400088B0400088B0400088B04000842
:100260008B0400088B0400088B0400088B04000832
:100270008B0400088B0400088B04000800000000B9
:100280008B0400088B0400088B0400088B04000812
:10029000000000008B0400088B0400080000000030
:1002A000000000008B0400088B0400088B04000889
:1002B0008B0400088B0400088B040008510B000815
:1002C0008B040008396100088B04000800F002F874
:1002D00000F05CF80AA090E8000C82448344AAF184
:1002E0000107DA4501D100F051F8AFF2090EBAE882
:1002F0000F0013F0010F18BFFB1A43F0010318475A
:10030000648D0000948D00000A444FF0000C10F83A
:10031000013B13F0070408BF10F8014B1D1108BF83
:1003200010F8015B641E05D010F8016B641E01F823
:10033000016BF9D113F0080F1EBF10F8014BAD1C73
:100340000C1B09D16D1E58BF01F801CBFAD505E091
:1003500014F8016B01F8016B6D1EF9D59142D6D3EB
:10036000704700000023002400250026103A28BF13
:1003700078C1FBD8520728BF30C148BF0B60704717
:100380001FB508F0ABFD1FBD10B510BD00F065F93D
:100390001146FFF7F5FF07F02FFF00F083F903B4D4
:1003A000FFF7F2FF03BC00F08BF900002C4B19683B
:1003B0000868B0E8F04F80F30988BFF36F8F4FF003
:1003C000000080F3118870470000000008480068B2
:1003D000006880F308884FF0000080F3148862B64C
:1003E00061B6BFF34F8FBFF36F8F00DF00BF00BF59
:1003F00008ED00E0DFF80C00016841F470010160D5
:10040000704700BF88ED00E0EFF30980BFF36F8F06
:10041000134B1A681EF0100F08BF20ED108A20E958
:10042000F04F106009B44FF0500080F31188BFF313
:100430004F8FBFF36F8F08F089FB4FF0000080F300
:10044000118809BC19680868B0E8F04F1EF0100F59
:1004500008BFB0EC108A80F30988BFF36F8F704734
:1004600030000024EFF30580704700000A48804701
:100470000A4880470A480047FEE7FEE7FEE7FEE736
:10048000FEE7FEE7FEE7FEE7FEE7FEE70548064972
:10049000064A074B704700001D0B0008616000080A
:1004A000CD02000880130024801900248015002448
:1004B0008015002453EA020C00F069802DE9F04B0E
:1004C0004FF00006002B1FBFB3FA83F503FA05F4C3
:1004D00024FA05F65E4012BF1643B2FA82F502FA1C
:1004E00005F4C5F120051EBF22FA05FC44EA0C0400
:1004F000203556EA044C4FEA144418BF641C4FF0F0
:1005000000084FF00009904271EB030C39D3002929
:1005100019BFB1FA81F701FA07F6B0FA80F700FACD
:1005200007F6C7F120071EBF20FA07FC46EA0C06B3
:100530002037B6FBF4FCA7EB0507103F07F01F0BB5
:10054000CBF120060CFA0BFB2CFA06F644BFB3469F
:100550000026202FA4BF5E464FF0000B5BEA060C7E
:1005600008BF4FF0010B19EB0B09ABFB027C48EB0A
:100570000608C01B06FB02CC0BFB03CC71EB0C0185
:10058000C1E70B46024641464846BDE8F08B13B52D
:100590004FF000004FF00001AFF30080BDE81C40B9
:1005A000704710B5203AC0F00B80B1E81850203ADF
:1005B000A0E81850B1E81850A0E81850BFF4F5AF03
:1005C0005FEA027C24BFB1E81850A0E8185044BF8D
:1005D00018C918C0BDE810405FEA827C24BF51F8FA
:1005E000043B40F8043B08BF7047D20728BF31F8EE
:1005F000023B48BF11F8012B28BF20F8023B48BF3F
:1006000000F8012B70474FF0000200B513469446E6
:100610009646203922BFA0E80C50A0E80C50B1F15A
:100620002001BFF4F7AF090728BFA0E80C5048BF6E
:100630000CC05DF804EB890028BF40F8042B08BF0C
:10064000704748BF20F8022B11F0804F18BF00F808
:10065000012B7047704770477047754600F02CF8C3
:10066000AE4605006946534620F00700854618B09F
:1006700020B5FFF70BFFBDE820404FF000064FF01C
:1006800000074FF000084FF0000B21F00701AC46C7
:10069000ACE8C009ACE8C009ACE8C009ACE8C009E6
:1006A0008D46704710B50446AFF300802046BDE884
:1006B0001040FFF774BE0000004870471C13002470
:1006C00001491820ABBEFEE7260002007047FEE796
:1006D000014800F057BE000040050024294A016887
:1006E00091423AD0274A1832914236D0254A3032C8
:1006F000914232D0234A483291422ED0214A603270
:1007000091422AD01F4A7832914226D01D4A903217
:10071000914222D01B4AA83291421ED01A4A9142DD
:100720001BD0194A1832914217D0174A30329142E1
:1007300013D0154A483291420FD0134A6032914289
:100740000BD0114A7832914207D00F4A9032914231
:1007500003D00D4AA832914211D1CAB21823103ADF
:10076000B2FBF3F26FF30901032A02F00703074A11
:10077000D25CC26500D9091D81650846704721F029
:10078000FF01F9E71000024010040240908F0008BA
:1007900030B5224A012301689142CAB21BD01F4CD6
:1007A0001434A14217D01D4C2834A14213D01B4C45
:1007B0003C34A1420FD0194C5034A1420BD0174CFD
:1007C0006434A14207D0154C7834A14203D0134CB5
:1007D0008C34A1420CD11421114C083AB2FBF1F136
:1007E0000F4A803201F01F0504EB8101AB4010E09D
:1007F0000C4D1824103A0D44B2FBF4F1A82D00D88A
:100800000831094A01F01F0402EB8101064AA340A6
:100810008032603080E80E0030BD0000085402587D
:1008200000580258F0FBFDBF0008024010B50279E5
:10083000531E072B2DD8174C0168A1421BD0154C15
:100840001434A14217D0134C2834A14213D0114CB8
:100850003C34A1420FD00F4C5034A1420BD00D4C70
:100860006434A14207D00B4C7834A14203D0094C28
:100870008C34A14203D10849074C443102E00749B6
:10088000064C443104EB8202C0E91B21012199404E
:10089000416710BD08540258FC580258FC08024039
:1008A00010B583694FF0C074826A0146002053B1CD
:1008B000B3F5005F15D072B1012A0CD0022A0AD01C
:1008C000032A09D104E01AB1012A06D0022A03D171
:1008D000C96AC90100D5012010BDC96AA142FAD078
:1008E00010BD002AF7D0012AF2D0022AF3D0032A41
:1008F000F3D010BD2DE9F04F804E804FDFF8FC9112
:100900001836DFF8F8A148370468856D0AF1300A17
:10091000DFF8ECB14C45DFF8ECC1DFF8ECE16DD06D
:10092000B4426BD0544569D0BC4267D0DFF8D08167
:10093000A8F11808444561D05C455FD064455DD09E
:1009400074455BD0DFF8C481444557D0DFF8BC81E3
:1009500008F11808444551D0DFF8B08108F130089B
:1009600044454BD0DFF8A48108F14808444545D000
:10097000DFF8988108F1600844453FD0DFF88C81AA
:1009800008F17808444539D0DFF8808108F19008F3
:10099000444533D0DFF8748108F1A80844452DD0D0
:1009A000DFF86C81444529D0DFF8648108F1140830
:1009B000444523D0DFF8588108F1280844451DD06C
:1009C000DFF84C8108F13C08444517D0DFF840813E
:1009D00008F15008444511D0DFF8348108F164086B
:1009E00044450BD0DFF8288108F17808444505D04C
:1009F000DFF81C8108F18C08444509D1D0E9194879
:100A0000C4F80480C46E1CB1D0E91C48C4F804804A
:100A100004684C452ED0B4422CD054452AD0BC4258
:100A200028D0374E183EB44224D05C4522D06445CD
:100A300020D074451ED0354EB4421BD0334E1836EC
:100A4000B44217D0314E3036B44213D02F4E483610
:100A5000B4420FD02D4E6036B4420BD02B4E7836B8
:100A6000B44207D0294E9036B44203D0274EA83660
:100A7000B44215D190F85C603F2406F01F06B440E4
:100A8000AC600468256825F4802525602EE09A6016
:100A90000068C160BDE8F08F99600068C260F9E746
:100AA0001B4EB4421BD01A4E1436B44217D0184E07
:100AB0002836B44213D0164E3C36B4420FD0144EF2
:100AC0005036B4420BD0124E6436B44207D0104EAA
:100AD0007836B44203D00E4E8C36B442DAD190F858
:100AE0005C60012406F01F06B4406C60046863601B
:100AF0008368402B0368CFD1C9E700001000024093
:100B000088000240A0000240B800024010040240E9
:100B100008540258704772B6FEE7000005480549C0
:100B20000839026842F00202026008688004FCD5BD
:100B3000704700000C480258014801F009BB000052
:100B4000BC010024014801F003BB00005C0200244A
:100B5000014801F0FDBA0000FC020024F0B5036872
:100B60004FF6FC716D4C426BD3F884508D4345EACF
:100B70008205C3F88450036853F8845F068F25F418
:100B80007F0545EA06451D60836B654D9F18026829
:100B9000D2F888308B4343EA8703C2F88830026872
:100BA00052F8883F868F23F4FE0343EA064313601E
:100BB000066856F8A03FC26B8B4307EB420243EA3C
:100BC00082033360076857F8A03FB0F8406023F411
:100BD000FE0343EA06433B60D0E9103603FB0622DE
:100BE0000368D3F8B0608E4346EA8206C3F8B0606B
:100BF0000368B0F84860D3F8B07027F4FE0747EAFE
:100C00000646C3F8B060D0E91267036806FB072206
:100C1000D3F8AC608E4346EA8206C3F8AC60D0E9F4
:100C20001467036806FB0722D3F8F0608E4346EA98
:100C30008206C3F8F0600368B0F85860D3F8F0702B
:100C400027F47C1747EA0646C3F8F0600368876D0F
:100C500053F8C06F02EB47028E4346EA82011960E7
:100C60000168B0F85C20D1F8C03023F47C1343EA6B
:100C70000242C1F8C020016890F86020D1F8C0306D
:100C800023F07C5343EA0262C1F8C020416B04EBBD
:100C90008101C166826B01EB82020267C36B02EBCA
:100CA000C3024267D0E91034634302EB83028267D8
:100CB000D0E91234634302EB8302C267D0E91434F3
:100CC000634302EB8302C0F88020836D02EBC30311
:100CD000C0F88430C46D826E544303EB8403C0F8C3
:100CE0008830046E544303EB8402C0F89020AA427B
:100CF0000AD9D0F89C20032142F02002C0F89C20A1
:100D000080F898100120F0BD002200E004C1D0F866
:100D100090308B42FAD80020F0BD000000AC0040BB
:100D2000FCD30040F0B58E680C69D1E9005744EA65
:100D30000604DFB145F080452C43866ED1E906C537
:100D40004F695E4391F8203045EA0C05B1F80CC0BC
:100D5000D0F884E0002047EA0363104F1D430EEBF8
:100D6000860345EA0C45E3E8024511E044EA854480
:100D7000E3E71418155CA67894F803C094F801E032
:100D8000360445EA0C6446EA0E252C43001D10C3C8
:100D9000CC683C5D8442ECD8F0BD0000988F000820
:100DA0002DE9F84F044601F04DFE00903CB194F857
:100DB0003500022806D0802161650020E4E0012092
:100DC000BDE8F88FC74DC74EC64918352068303684
:100DD000DFF81483DFF814938842DFF814A3DFF8F8
:100DE00014B32ED0A8422CD0B0422AD0404528D0EF
:100DF000484526D0504524D0584522D0BD4A183207
:100E000090421ED0BC4A90421BD0BB4A183290423E
:100E100017D0B94A3032904213D0B74A4832904284
:100E20000FD0B54A603290420BD0B34A783290422C
:100E300007D0B14A9032904203D0AF4AA8329042D4
:100E400009D1026822F01E0202602068426922F085
:100E50008002426103E0026822F00E02026027680D
:100E60008F4238464DD0A8424BD0B04249D0404581
:100E700047D0484545D0504543D0584541D09D4A7C
:100E8000183290423DD09C4A90423AD09A4A183249
:100E9000904236D0984A3032904232D0964A483208
:100EA00090422ED0944A603290422AD0924A7832B0
:100EB000904226D0904A9032904222D08E4AA83258
:100EC00090421ED08D4A90421BD08C4A14329042E0
:100ED00017D08A4A2832904213D0884A3C32904236
:100EE0000FD0864A503290420BD0844A64329042EE
:100EF00007D0824A7832904203D0804A8C3297429F
:100F000004D1206E026822F4807202607549206864
:100F1000884228D0A84226D0B04224D0404522D0D2
:100F2000484520D050451ED058451CD07149183135
:100F3000884218D07049884215D06F4918318842CC
:100F400011D06D49303188420DD06B49483188420B
:100F500009D069496031884205D0674978318842B3
:100F600001D065499031016821F0010101600EE076
:100F700001F068FD0099401A052808D92022626511
:100F80000321002084F8351084F8340017E738680E
:100F9000C007EDD1534A0121206890422ED0A842CB
:100FA0002CD0B0422AD0404528D0484526D05045C4
:100FB00024D0584522D04F4B183398421ED04E4B68
:100FC00098421BD04C4B1833984217D04A4B3033C1
:100FD000984213D0484B483398420FD0464B603369
:100FE00098420BD0444B7833984207D0424B903311
:100FF000984203D0404BA833984208D194F85C70D3
:101000003F23A06D07F01F07BB40836007E094F803
:101010005C30A06D03F01F0301FA03F34360206806
:1010200090424DD0A8424BD0B04249D0404547D025
:10103000484545D0504543D0584541D02D4A1832F7
:1010400090423DD02C4A90423AD02B4A18329042DE
:1010500036D0294A3032904232D0274A4832904224
:101060002ED0254A603290422AD0234A78329042CC
:1010700026D0214A9032904222D01F4AA832904274
:101080001ED01E4A90421BD01C4A1432904217D0E8
:101090001A4A2832904213D0184A3C3290420FD05C
:1010A000164A503290420BD0144A6432904207D014
:1010B000124A7832904203D0104A8C3290420BD1BF
:1010C000D4E919024260E06E30B1026822F4807205
:1010D0000260D4E91C024260002084F8351084F8D4
:1010E00034006DE6100002405800024070000240DB
:1010F00088000240A0000240100402400854025838
:101100002DE9F05F28B190F83510022904D0802134
:1011100041650120BDE8F09F904C904B0168183C60
:1011200018338E4ADFF83C92A1428D4CDFF838E24A
:101130008E4FDFF83CB2DFF83CA28F4D8F4E31D09E
:1011400091422FD099422DD0A1422BD0494529D090
:10115000714527D0B94225D0DFF810C20CF1180C28
:1011600061451FD0DFF808C2ACF1600C614519D0B1
:10117000DFF8FCC1ACF1480C614513D0DFF8F0C1D9
:10118000ACF1300C61450DD0DFF8E4C1ACF1180CC6
:10119000614507D0594505D0514503D0A94201D03A
:1011A000B1422CD1DFF8B4C14FF0040880F835808B
:1011B000ACF1180C61451DD091421BD0994219D059
:1011C000A14217D0494515D0714513D0B94211D06D
:1011D0006648183081420DD065486038814209D098
:1011E00063484838814205D061483038814201D097
:1011F0005F481838086820F001000860ABE0D1F8BB
:1012000000C02CF00E08DFF854C1C1F80080ACF12A
:10121000180C0168614527D0914225D0994223D00E
:10122000A14221D049451FD071451DD0B9421BD0E4
:10123000DFF838C10CF1180C614515D0DFF830C16A
:10124000ACF1600C61450FD0DFF824C1ACF1480C63
:10125000614509D0DFF818C1ACF1300C614503D00D
:10126000DFF80CC1ACF1180CD1F800C02CF0010C67
:10127000C1F800C0DFF8E4804FF0010C0168A8F16C
:101280001808414546D0914244D0994242D0A142EB
:1012900040D049453ED071453CD0B9423AD0334A5E
:1012A0001832914236D0324A603A914232D0304AB6
:1012B000483A91422ED02E4A303A91422AD02C4AB6
:1012C000183A914226D0594524D0514522D0A942FE
:1012D00020D0B1421ED02A4A91421BD0284A143253
:1012E000914217D0264A2832914213D0244A3C32E8
:1012F00091420FD0224A503291420BD0204A6432A0
:10130000914207D01E4A7832914203D01C4A8C3257
:10131000914218D1016E0A6822F480720A6090F836
:101320005C20816D02F01F020CFA02F24A60D0E9E3
:1013300019124A60C16E31B10A6822F480720A60E3
:10134000D0E91C124A600022016D80F835C080F897
:10135000342001B188470020DCE60000280002406C
:10136000580002407000024088000240A000024085
:101370007004024088040240A0040240B804024005
:10138000085402582DE9FC5F0446F74E0020DFF8B0
:10139000D88300904FF41652F44808F11808A56D50
:1013A000DFF8C493DFF8C0A3016809F130092068B1
:1013B0000AF1480AB1FBF2F1B04201912F68D5F869
:1013C00000C0DFF8ACB335D04146884232D0484542
:1013D00030D050452ED058452CD0E54918318842A0
:1013E00028D0E3493031884224D0E149483188424D
:1013F00020D0E04988421DD0DE491831884219D0FA
:10140000DC493031884215D0DA494831884211D060
:10141000DFF860E30EF1600E70450BD0D54A7832EC
:10142000904207D0D34B9033984203D0D149A83192
:1014300088427DD194F85C20082102F01F0201FA55
:1014400002F23A424AD0B04232D0404530D048450C
:101450002ED050452CD058452AD0C54A183290423B
:1014600026D0C34A3032904222D0C14A48329042FC
:101470001ED0C04A90421BD0BE4A1832904217D0AC
:10148000BC4A3032904213D0BA4A483290420FD010
:10149000B84A603290420BD0B64A7832904207D0B8
:1014A000B44A9032904203D0B24AA832904203D15B
:1014B000026802F0040202E0026802F008026AB167
:1014C000026822F00402026094F85C0000F01F0041
:1014D0008140A960606D40F00100606594F85C0097
:1014E000012100F01F008140394240D02068B04205
:1014F00034D0404532D0484530D050452ED05845A4
:101500002CD09B4A1832904228D0994A30329042CF
:1015100024D0974A4832904220D0964A90421DD01B
:10152000944A1832904219D0924A3032904200E0E8
:10153000AFE113D08F4A483290420FD08D4A6032CB
:1015400090420BD08B4A7832904207D0894A903231
:10155000904203D0874AA83290427DD1406910F072
:10156000800F04D0A960606D40F00200606594F8BF
:101570005C00042100F01F00814039423ED0206809
:10158000B04232D0404530D048452ED050452CD0C6
:1015900058452AD0764A1832904226D0744A3032C2
:1015A000904222D0724A483290421ED0714A9042F4
:1015B0001BD0704A1832904217D06E4A3032904297
:1015C00013D06C4A483290420FD06A4A603290423F
:1015D0000BD0684A7832904207D0664A90329042E7
:1015E00003D0644AA83290424ED1006810F0020F36
:1015F00004D0A960606D40F00400606594F85C0060
:10160000102100F01F008140394258D02068B042BC
:1016100034D0404532D0484530D050452ED0584582
:101620002CD0534A1832904228D0514A303290423E
:1016300024D04F4A4832904220D04E4A90421DD08A
:101640004C4A1832904219D04A4A3032904215D052
:10165000484A4832904200E014E00FD0454A6032D8
:1016600090420BD0434A7832904207D0414A9032A0
:10167000904203D03F4AA832904207D1006800F060
:10168000080006E0006872E70068B7E7006800F04D
:101690000400A0B1A96020680168490304D500686E
:1016A000000308D5A16C07E00168C90503D40168EF
:1016B00021F008010160216C09B12046884794F8A7
:1016C0005C00202100F01F008140394279D0206861
:1016D000B04232D0404530D048452ED050452CD075
:1016E00058452AD0224A1832904226D0204A303219
:1016F000904222D01E4A483290421ED01D4A90424B
:101700001BD01C4A1832904217D01A4A30329042ED
:1017100013D0184A483290420FD0164A6032904295
:101720000BD0144A7832904207D0124A903290423D
:1017300003D0104AA832904203D1006800F0100094
:1017400002E0006800F00200B0B3A96094F8350030
:101750000428206801680FD049037ED50068000383
:101760002BD4616C2AE00000100002402800002405
:10177000700002401004024021F016010160206850
:10178000416921F080014161206C08B9A06C20B151
:101790002068016821F00801016094F85C303F2165
:1017A000012003F01F0300229940A96084F835004E
:1017B00084F83420216D65E003E0E16B09B1204637
:1017C0008847606D00287DD0606DC00759D02068C3
:1017D000042184F83510B0422BD0404529D048452B
:1017E00027D0504525D0584523D09D49884220D048
:1017F0009B49183188421CD099493031884218D011
:101800009849884215D097491831884211D0954996
:10181000303188420DD093494831884209D09149EE
:101820006031884205D08F497831884201D08D4996
:101830009031016821F00101016020680099019A4E
:10184000491C0091914202D80168C907F6D100688D
:10185000C00710D003200FE0FFE70168C905ACD432
:1018600003680121002223F01003036084F835107F
:1018700084F83420A1E7012084F83500002084F8A2
:101880003400E16C00291DD002B02046BDE8F05FB5
:101890000847754988421DD073491431884219D0D0
:1018A00071492831884215D06F493C31884211D0A6
:1018B0006D49503188420DD06B496431884209D05E
:1018C000694900E084E07831884203D066498C3170
:1018D00088427DD194F85C800427016808F01F08D5
:1018E00007FA08F717EA0C0F009746D04F0744D5C0
:1018F00000980F04686003D5C8033CD4A16CC1E70D
:10190000880638D42068B0422DD0554960398842C5
:1019100029D0484527D0504525D0584523D0504997
:10192000884220D04E49183188421CD04C49303171
:10193000884218D04B49884215D04A49183188420C
:1019400011D04849303188420DD04649483188424B
:1019500009D0704507D0904205D0984203D0414944
:10196000A831884203D1016821F0080102E0016832
:1019700021F004010160216C84E7022707FA08F7CF
:1019800017EA0C0F00974ED08F074CD500980F0424
:10199000686003D5C80344D4616C73E7880640D4FB
:1019A0002068B0422FD02E49603988422BD048455C
:1019B00029D0504527D0584525D02949884222D0E2
:1019C0002749183188421ED025493031884200E02D
:1019D00044E018D02349884215D022491831884262
:1019E00011D02049303188420DD01E4948318842FB
:1019F00009D0704507D0904205D0984203D01949CC
:101A0000A831884203D1016821F0140102E0016885
:101A100021F00A010160012184F83510002084F8CA
:101A20003400E16B2EE7082202FA08F212EA0C0FEA
:101A300014D0090712D5016821F00E01016094F855
:101A40005C100120002201F01F0100FA01F1696021
:101A5000606584F8350084F8342012E7BDE8FC9F07
:101A60008800024010040240085402582DE9F05F3B
:101A7000044600F0E7FF002C07467DD0E24E02212D
:101A800020684FF00308DFF884934FF00005DFF87B
:101A900080A3B042DFF87CB334D0DB4A18329042E6
:101AA00030D048452ED050452CD058452AD0D94A60
:101AB0001832904226D0D74A3032904222D0D54AAE
:101AC000483290421ED0D44A90421BD0D24A18329B
:101AD000904217D0D04A3032904213D0CE4A48328A
:101AE00090420FD0CC4A603290420BD0CA4A783232
:101AF000904207D0C84A9032904203D0C64AA832DA
:101B000090427DD184F83510B04284F834502ED004
:101B1000BD49183188422AD0484528D0504526D0A2
:101B2000584524D0BB491831884220D0B9493031BA
:101B300088421CD0B7494831884218D0B6498842FB
:101B400015D0B5491831884211D0B3493031884297
:101B50000DD0B1494831884209D0AF49603188423F
:101B600005D0AD497831884201D0AB499031016848
:101B700021F00101016008E025E100BF00F062FFF3
:101B8000C01B052801D920211AE120680068C00780
:101B9000F4D1D4E902032168103418438E4694E846
:101BA0008410D4E9033809683A4310439B4A40EA59
:101BB0000C00676918431140103C40EA0800042FEC
:101BC00040EA010003D1D4E90B12114308436168D4
:101BD000A1F12902052A0BD9163A032A08D9083A95
:101BE000012A05D9083A032A02D97439032901D8F0
:101BF00040F48010CEF800002068676A406900E079
:101C000020E0042F20F0070047EA00070DD1D4E9B7
:101C10000A01074349B12046FEF742FE28B14020A1
:101C20006065012184F83510CDE0206847612046C9
:101C3000FEF754FD94F85C203F2102F01F02914012
:101C4000816055E0764A90421BD0754B1433984220
:101C500017D0734B2833984213D0714B3C339842C2
:101C60000FD06F4B503398420BD06D4B643398427A
:101C700007D06B4B7833984203D0694B8C33984232
:101C80007ED184F8351084F83450664B0168A26820
:101C900001EA030E402A74D0802A73D05FF000025C
:101CA000D4E90378D4E9053142EAD70242EAD808F8
:101CB0005B4AD4E9077C48EAD30848EAD10141EA03
:101CC000D701524241EA1C11142341EA0E0101607E
:101CD00020681044B0FBF3F08000E0652046FEF77A
:101CE000FDFC94F85C20012102F01F02914041604C
:101CF0002068B04257D044491831884253D04845F3
:101D000051D050454FD058454DD0424918318842A6
:101D100049D040493031884245D03E494831884217
:101D200041D03D4988423ED03B49183188423AD0A3
:101D300039493031884236D037494831884232D02B
:101D40003549603188422ED03349783188422AD0D3
:101D500031499031884226D02F49A831884222D07B
:101D60002F4988421FD02E49143188421BD02C495C
:101D70002831884217D02A493C31884213D002E0EA
:101D80001DE017E018E02649503188420BD0244965
:101D90006431884207D022497831884203D02049F3
:101DA0008C31884229D12046FEF7F2FCA0688028B9
:101DB0000CD00CE0102273E74FF4804270E7402112
:101DC000616584F835800120BDE8F09F6560216E73
:101DD00020790860D4E9190141606068401E072835
:101DE00008D82046FEF722FDE06E0560D4E91C010C
:101DF000416002E0E566256765670120656584F856
:101E000035000020E0E700001000024040000240E2
:101E10005800024070000240100402403F8010FE53
:101E2000085402580F00FEFF2DE9F84F04008C46BD
:101E30004FF00000009014D094F83400012812D024
:101E400094F835500120002184F83400012D0CD085
:101E5000C00260650120009084F834100098BDE84D
:101E6000F88F0120FBE70220F9E78C4D022620685D
:101E700084F83560A8428A4D61658A4E8A4FDFF842
:101E80002C82DFF82C92DFF82CA2DFF82CB226D0BF
:101E9000A84224D0B04222D0B84220D040451ED023
:101EA00048451CD050451AD0584518D0834988421F
:101EB00015D082491831884211D08049303188428A
:101EC0000DD07E494831884209D07C496031884232
:101ED00005D07A497831884201D07849903101683B
:101EE00021F00101016061462046FEF703FD6B49C8
:101EF000206888422CD0A8422AD0B04228D0B842CC
:101F000026D0404524D0484522D0504520D05845C1
:101F10001ED06A4A90421BD0684A1832904217D0AD
:101F2000664A3032904213D0644A483290420FD011
:101F3000624A603290420BD0604A7832904207D0B9
:101F40005E4A9032904203D05C4AA83290420CD153
:101F5000026822F01E0242F016020260206C88B174
:101F60002068026842F008020BE0026822F00E02CC
:101F700042F00A020260206C20B12068026842F040
:101F800004020260206888424BD0A84249D0B04287
:101F900047D0B84245D0404543D0484541D0504550
:101FA0003FD058453DD0454A90423AD0434A183236
:101FB000904236D0414A3032904232D03F4A483285
:101FC00090422ED03D4A603290422AD03B4A78322D
:101FD000904226D0394A9032904222D0374AA832D5
:101FE00090421ED0364A90421BD0354A143290425D
:101FF00017D0334A2832904213D0314A3C329042B3
:102000000FD02F4A503290420BD02D4A643290426A
:1020100007D02B4A7832904203D0294A8C32904222
:102020000DD1206E0268D20303D5026842F480729B
:102030000260E06E18B1026842F4807202602068AB
:10204000884226D0A84224D0B04222D0B84220D024
:1020500040451ED048451CD050451AD0584518D090
:102060001649884215D015491831884211D01349B4
:10207000303188420DD011494831884209D00F498A
:102080006031884205D00D497831884201D00B4932
:102090009031016841F001010160DFE6100002406B
:1020A00028000240400002405800024070000240F8
:1020B00088000240A0000240B80002401004024024
:1020C0000854025870B5044600F0BCFC0546601C7C
:1020D00002D004480078044400F0B4FC401BA04245
:1020E000FAD370BD1C00002470B590F89840012C04
:1020F00006D0022C04D0D0F89C1041F0020117E069
:10210000046893FAA3F6D4F8C050B6FA86F6C5F37D
:102110000545B54204D8D0F89C1041F0200107E0F5
:10212000D4F8CC401C4207D0D0F89C1041F04001BC
:10213000C0F89C10012070BD93FAA3F3B3FA83F3A7
:10214000FEF7F0FD002070BD704770477047704784
:102150002DE9FF5FDFF80CB304460BF10401DBF857
:10216000000025680F68AA468007D5F85090696D71
:10217000D5F850806E6D2A6DD5F854C02B6D00EAED
:102180008770009009F470496F6D286D01EA0901AC
:102190000191DAF85410DAF85490DAF8505008F057
:1021A0000F0806EA0806029602F0F00203F07153E7
:1021B0006FEA09061F4000F060700CEA020CCDF8CF
:1021C0000CC0F20501EA00090CD4E843C00509D4AB
:1021D00000214FF48073CAF85030CBF8001020462D
:1021E000FFF7B5FF700512D4E84340050FD420680F
:1021F00000234FF48068D0F8DC20D0F8E410C0F859
:102200005080CBF800301140204600F0FAFADFF899
:1022100058A2009850B12268830F00EA0A001065A6
:10222000CBF8003020460099FFF78EFF019850B19F
:102230002268830F00EA0A001065CBF800302046C0
:10224000019900F0E0FA029850B12268830F00EA89
:102250000A001065CBF800302046029900F0C9FA58
:10226000039850B12268830F00EA0A001065CBF88A
:1022700000302046039900F0BDFA30050CD4E84345
:10228000000509D4236800204FF400621A65CBF8DA
:102290000000204600F0B8FAB00512D4E8438005EB
:1022A0000FD4206800234FF40078D0F8D820D0F85D
:1022B000E010C0F85080CBF800301140204600F00C
:1022C000A1FA30030CD4E843000309D423680020AA
:1022D0004FF400221A65CBF80000204600F088FA7F
:1022E000F0030CD4E843C00309D4236800204FF462
:1022F00080321A65CBF80000204600F081FA7003A6
:102300000CD4E843400309D4226800204FF4802312
:102310001365CBF80000204600F071FAB0030FD42B
:10232000E84380030CD4236800204FF400321A6580
:10233000CBF80000D4F89C0040F08000C4F89C006A
:10234000B9F1000F0BD022684FEA997309EA0A002D
:102350001065CBF8003049462046FFF7F7FE5FB125
:102360002268BB0F07EA0A001065CBF80030D4F8EA
:102370009C003843C4F89C003C492068884268D1DE
:10238000606881468068800763D0D9F82060D9F8FA
:102390002410D9F82080D9F82400D9F820C0D9F821
:1023A0002470D9F82030D9F82450D9F8202003F42B
:1023B000FC4306F00F0AD9F824601D40D9F824B078
:1023C00008F030080CF4C07C02F4F02211EA0A0193
:1023D00000EA080807EA0C0706EA0206D9F820A076
:1023E00004D0C9F82010204600F006FAB8F1000029
:1023F00005D0616808624146204600F0FFF96FEAA7
:102400000B0040060ED46FEA0A0040060AD460684A
:102410004021C36BC26B01622046190C02F03F02DF
:1024200000F0EBF92FB1606807623946204600F0F2
:10243000E2F935B160680562D4F89C002843C4F81D
:102440009C0036B160680662D4F89C003043C4F842
:102450009C00D4F89C00002802D02046FFF775FEAF
:10246000BDE8FF9F10A80040FFFFCF3F00A0004045
:102470002DE9F04194B08D494C2204466846FEF7A0
:1024800090F864B18A4D2068A84202D100F58070AE
:10249000606094F898004FF0000820B108E0012037
:1024A00014B0BDE8F081204684F8998000F002F96C
:1024B0002068816921F01001816100F0C3FA0327CF
:1024C000064604E000F0BEFA801B0A2811D82068F6
:1024D00080690007F6D42068816941F001018161BB
:1024E00000F0B0FA06460DE000F0ACFA801B0A28B6
:1024F00008D9D4F89C0040F00100C4F89C0084F88E
:102500009870CCE720688069C007EDD020688169A9
:1025100041F002018161207C01282068816937D067
:1025200041F040018161607C01282068816932D0DE
:1025300021F480418161A07C0128206881692DD02F
:1025400041F4805181612068A268816921F4407161
:10255000114381612068816921F0A40181612068B3
:10256000016921F010010161E068012819D010B360
:1025700002281BD02068816941F0800181612068B8
:10258000016941F010010161E06803280ED012E0FA
:1025900021F04001C6E741F48041CBE721F48051AE
:1025A000D0E72068816941F0040103E02068816977
:1025B00041F020018161207E6FF0FF02D4E90773B2
:1025C000A68A1102400602EB0727A0F100703843EB
:1025D00027685B1E184301EB06463043F861A0688C
:1025E000B0F5407F11D104F12800A68C6FF00F0CDC
:1025F00089C801EB0641401E02EB0322104322680A
:102600000CEB071318430843D060206E30B12068EC
:10261000626ED0F8C0101143C0F8C010D4E9171290
:102620006846D14209D02168A36E51F8C82F50F8EE
:10263000233022F007021A430A60216C49B1216855
:10264000626C51F8BC3F50F8226023F0070232431D
:102650000A60A16C51B12168E36C51F8BC2F50F8AD
:10266000233022F0700242EA03120A60216D51B158
:102670002168626D51F8BC3F50F8220023F4E062FB
:1026800042EA002008602068A84204D1606881689E
:1026900021F003018160C4F894800121C4F89C807A
:1026A00084F898102046FEF759FAF9E6A88F00083A
:1026B00000A00040F0B587B0054614216846FDF73C
:1026C000A2FF454E0024434B02272D684FF0090C12
:1026D000DFF808E10C3B31683E4A7545404801F19E
:1026E000010122D10129316007D1116841F48071C3
:1026F0001160116801F480710591196841F00801B9
:102700001960196801F00801059103210091CDE9D4
:102710000174CDE9034C694600F078F800220521E8
:10272000132000F07BFA132026E0DFF8B8E07545AF
:1027300026D10129316007D1106840F48070106003
:10274000106800F480700590186840F0020018606E
:102750001868694600F00200059060200090CDE9FD
:1027600001742148CDE9034C00F050F80022052106
:10277000142000F053FA142000F042FA07B0F0BD24
:10278000DFF868C06545F9D10129316007D11168CA
:1027900041F480711160116801F48071059119682C
:1027A00041F0080119601968052201F0080105913E
:1027B0004FF440510091CDE90174CDE903426946DF
:1027C00000F024F8002205219F2000F027FA9F2026
:1027D000D2E70000EC4402581800002400A000409A
:1027E000000C025800A400400004025800D400402D
:1027F0007047704770477047704770477047704721
:102800007047704770477047704700002DE9F84FD8
:1028100003247A4D00234FF001094FF0B04B4FF0E5
:102820000F0AE4E009FA03F6324078D00F7907F096
:102830000307012F01D0022F1AD187684FEA430EF8
:10284000D1F80CC004FA0EF827EA08070CFA0EFCBF
:102850004CEA070CC0F808C0476891F804C0B743B9
:10286000CCF3001C0CFA03FC4CEA070CC0F804C0C3
:102870000E79F643B6070BD0C6684FEA43088F6857
:1028800004FA08FC26EA0C0607FA08F73743C76083
:102890000E7906F00306022E12D1DE080F694FEA08
:1028A000437C00EB8606B646366A4FEADC6C0AFAD1
:1028B0000CF807FA0CF726EA08063743CEF8207022
:1028C0000F7906684FEA430807F0030704FA08FC8B
:1028D00007FA08F726EA0C06374307604E6816F435
:1028E000403F1CD0464E376847F0020737603668D5
:1028F0009F0706F00206009623F0030606F1B04695
:10290000B6463F0FD6F80864DFF8F8800AFA07FCED
:10291000404526EA0C0603D14FF0000C3AE065E092
:10292000DFF8E4C0604502D14FF0010C32E0DFF87F
:10293000DCC0604502D14FF0020C2BE0DFF8D0C0C4
:10294000604502D14FF0030C24E0DFF8C8C06045B9
:1029500002D14FF0040C1DE0DFF8BCC0604502D18D
:102960004FF0050C16E0DFF8B4C0604502D14FF01F
:10297000060C0FE0DFF8A8C0604502D14FF0070C4D
:1029800008E0DFF8A0C0604502D14FF0090C01E07B
:102990004FF00A0C0CFA07FC4CEA060CCEF808C4FF
:1029A0004F68DBF80060FF0226EA020600D51643F6
:1029B0005F46CBF80060D1F804C0DBF804605FEA42
:1029C0008C2C26EA020600D516437E606E684F689E
:1029D00026EA0206BF0300D516436E602E684F68D4
:1029E00026EA0206FF0300D516432E605B1C0A6828
:1029F00032FA03F67FF416AFBDE8F88F8000005876
:102A0000F44402580000025800040258000802581A
:102A1000000C025800100258001402580018025806
:102A2000001C025800240258426921EA02030A40AD
:102A300043EA0241816170470AB18161704709042C
:102A4000FBE7000001488068704700001C0000247C
:102A50000248816802781144816070471C0000249C
:102A6000032010B500F0FAF801F010FE0F4A1049EB
:102A700014681368C4F3032203F00F038A5CC95C73
:102A800002F01F0201F01F01D0400A4A20FA01F1B2
:102A90001160094908600F2000F010F808B101200A
:102AA00010BD00F09BF8002010BD00001844025833
:102AB0001C9000082C0000242800002410B51028C9
:102AC00004468AB02AD200220146A12000F0A6F8CE
:102AD000A12000F095F8154804601548016841F000
:102AE00080710160006808A900F080700990684654
:102AF00001F058FD01F0B8FD0E49400000220E4CD7
:102B0000B0FBF1F10D4840F2E7330460C0E9033255
:102B1000491EC0E9011202F030FA10B101200AB0DA
:102B200010BD064802F05CFAF9E70000200000241E
:102B3000EC44025840420F0000E000400C08002422
:102B4000154BF0B5083B427813491A600B680A1F11
:102B500023F001030B6043681360057BC67A827A19
:102B6000437B2D07847B45EA0665C77B90F809C047
:102B7000067A90F800E045EAC24040EA834040EA25
:102B8000444040EA074040EA0C2040EA460040EA60
:102B90000E000860F0BD0000A0ED00E0BFF35F8F05
:102BA000044800210368034A23F480330360703231
:102BB0001160704724ED00E0074A40F0010006492B
:102BC00070321060086840F480300860BFF34F8FA7
:102BD000BFF36F8F7047000024ED00E0074882B01C
:102BE000016841F002010160006800220F2100F03D
:102BF00002000090901E02B000F010B8F444025899
:102C0000002809DB410900F01F028900012001F1C1
:102C1000E0219040C1F80001704700000E4BF0B475
:102C20001B680D46C3F30223C3F10706042E00D927
:102C30000426191D072901D2002300E0DB1E012410
:102C400004FA06F19C40491E2940641E9940144034
:102C50002143F0BC05F0BFBA0CED00E0064900F0DE
:102C6000070210B54FF6FF040868044B204040EA05
:102C700002201843086010BD0CED00E00000FA05CA
:102C800001680123C0F8D834002280F8CC24886978
:102C9000044A40F000608861486D10434865002098
:102CA0007047000003000010704700684162002078
:102CB0007047F0B503685D6A39B19F6A4C1E002009
:102CC0004FF4827605EB17450BE045EA0240986227
:102CD00010E0471C06EB800053F800C0F8B205EB8B
:102CE0001C45A042F5D34FF4807000EB810045EA0B
:102CF00002421A500020F0BDD0F8E00404F0BBB945
:102D000001EBC10200EB8202D0F8E004126A04F089
:102D10000EB901EBC10200EB8202D0F8E004D2F858
:102D2000602204F060B9D0F8E00404F0A6B90A0605
:102D300001F00F0101EBC10100EB810101D514315C
:102D400001E001F51571006805F090B801F00F027F
:102D50000B0670B502EBC20104464FF001004FF0C4
:102D6000000504EB810102D54875143103E081F8B8
:102D7000555201F515710A7094F89424012A08D06F
:102D800084F89404206804F08FFD002084F89454A3
:102D900070BD022070BD70B50279044601F00F00CD
:102DA000904201D9012070BD01F00F024FF00005E3
:102DB0000B0602EBC2014FF0010204EB810102D5C8
:102DC0004A75143103E081F8555201F515718D7083
:102DD000087094F89404012808D084F8942420689A
:102DE00004F0CCFE002084F8945470BD022070BD25
:102DF0002DE9F04101F00F0604460D064FF00100E9
:102E000006EBC6014FF0000504EB810102D54875C1
:102E1000143103E081F8555201F51571C2F30A022D
:102E20004F780B718A600E7007B14E83022B00D170
:102E30004D7194F89424012A09D084F894042068F0
:102E400004F07AFC284684F89454BDE8F08102200E
:102E5000FBE770B501F00F05002405EBC50100EBA1
:102E6000810101F5187181E81C0001F80B4C01F893
:102E70000C5D8379012B00D1CA618279006804F06E
:102E8000D5FE002070BD70B50D460179044605F0F1
:102E90000F00884201D9012070BD29064FF00006BD
:102EA0004FF0010206D500EBC00104EB81014A7529
:102EB000143107E005EBC50104EB810181F855628F
:102EC00001F515718A70087094F89404012807D0F0
:102ED00084F89424206804F07DFE280702D007E0DF
:102EE000022070BDA17904F29C42206804F01AFE11
:102EF000002084F8946470BD70B501F00F040025C3
:102F000004EBC401012600EB8101203181E82C0093
:102F100001F80B6C01F80C4D8379012B00D1CA61CB
:102F20008279006804F082FE002070BD2DE9FC5F0C
:102F300005680446284605F035F800287ED120684B
:102F400005F05CF8002879D0D5F80808C0F30D200A
:102F5000C4F8D404206805F051F8800704D520682F
:102F6000416901F002014161206805F047F8C1069E
:102F700004F29C40009035D52068816921F0100151
:102F800081612F6A07F00F01C7F3434001EBC101D4
:102F9000022804EB810606F5157602D0062812D029
:102FA0001BE047F6F070074217D0C7F30A12F1682A
:102FB0001746284605F026F87169F06839447161B2
:102FC0003844F06009E000990822284605F01AF814
:102FD0007069C7F30A11084470612068816941F083
:102FE00010018161206805F009F800034FF0080B1B
:102FF0004FF0000A4FF001097CD52068002604F04C
:10300000DCFF074674E0F80770D02068F1B204F0E6
:10301000EDFF8046C00707D005EB4611C1F8089BBD
:103020003146204602F0B4FD5FEA087024D505EB76
:103030004611C1F808BBFA49206800E03EE2026C84
:1030400000EB461001928A42D0F8081B05D909040A
:1030500003D54FF40041C0F8081B204600F00DFBDB
:10306000EF490198884207D9A079012804D1206846
:103070000121009A04F056FD5FEAC86004D505EB13
:1030800046111020C1F8080B5FEA88701DD56869E9
:10309000000605D5D5F8040840F48061C5F8041889
:1030A00006EBC60004EB800090F8571200F515708F
:1030B000012905D180F803A02046F1B200F004FAFE
:1030C00005EB46110220C1F8080B5FEA886004D5C1
:1030D00005EB46112020C1F8080B5FEA884005D5B2
:1030E00005EB46114FF40050C1F8080B7F08761C21
:1030F000002F88D1206804F081FF40036ED520683E
:1031000004F054FF0026074666E0F80762D0206806
:10311000F1B204F059FF8046C00723D0D5F8342817
:1031200006F00F0C05EB461309FA0CF08243C5F8C4
:103130003428C3F80899A07901280FD106EBC600FE
:1031400004EB8000D0E907211144016236B9606ABE
:1031500020B920680121009A04F0E4FC2046F1B275
:10316000FFF7CEFD5FEA087003D505EB4611C1F805
:1031700008B95FEAC86004D505EB46111020C1F814
:1031800008095FEA486004D505EB46114020C1F804
:1031900008095FEA887016D53146284604F0D7FE44
:1031A00006EBC60004EB8000C17D1430012905D177
:1031B00080F803A02046F1B200F082F905EB461139
:1031C0000220C1F808095FEA086003D531462046AD
:1031D00002F044FD7F08761C002F96D1206804F091
:1031E0000DFF002811DAD5F8040820F00101C5F818
:1031F000041894F8CC0401283BD0204600F022FAB1
:103200002068416901F000414161206804F0F6FE48
:1032100000050BD5D5F80808C00702D0204600F0FD
:1032200055FA2068416901F400614161206804F0A9
:10323000E5FE00010AD52068416901F000614161A5
:1032400094F8CC04E0B1204600F040FA206804F085
:10325000D5FEC00472D5D5F8040820F00100C5F8E9
:1032600004082068102104F072FE00214FF67F321E
:103270002DE00021204684F8CCA4FFF715FDBFE720
:1032800084F8CC942068406D0121C0F38300C4F819
:10329000D0042046FFF708FDD8E700BF05EB41103A
:1032A000C0F80829D0F8003923F40013C0F8003919
:1032B000C0F8082BD0F8003B23F40013C0F8003B03
:1032C000D0F8003B43F00063C0F8003B491C207974
:1032D0008842E3D8D5F81C0840F00111C5F81C1845
:1032E000E07B68B1D5F8840840F00B01C5F884187C
:1032F000D5F8440840F00B012846C5F844180DE005
:10330000D5F8140842F22B010843C5F81408D5F883
:10331000100840F00B012846C5F81018D0F8000836
:1033200020F4FE61C5F80018A1792068009A04F025
:10333000F9FB2068416901F480514161206804F083
:103340005DFE800416D5206804F036FA206804F08B
:103350001CFEE07101F054F923680146E279184639
:1033600004F0B0FE204600F057F92068416901F4EE
:1033700000514161206804F041FE000707D5204656
:1033800000F064F92068416901F00801416120689A
:1033900004F034FE000615D5A869012620F080014E
:1033A000A9610CE006EBC60004EB800090F8570220
:1033B000012803D12046F1B2FFF7B9FC761C207931
:1033C000B042EFD8206804F019FEC0021FD50126D4
:1033D0004F4614E006EBC60005EB461304EB8001F4
:1033E000D3F800090A7E012A08D1002806DAF0B2D3
:1033F000CF7540F080012046FFF799FC761C2079BC
:10340000B042E7D82068416901F480114161206829
:1034100004F0F4FD800234D501204A4629E0000082
:103420000A30544F00EBC00305EB401604EB830158
:10343000D6F8006B91F85832012B19D1002E17DA0B
:1034400094F8D434C6F3004603F00103B3420FD11D
:1034500081F85722A96941F08003AB6169690906C7
:1034600006D4D5F8040840F40070C5F8040803E059
:10347000401C21798142D5D82068416901F40011AE
:103480004161206804F0BAFD400007D52046FFF7EF
:1034900033FC2068416901F080414161206804F0FB
:1034A000ADFD40070AD520684568680702D520466B
:1034B000FFF739FC2068416829434160BDE8FC9F63
:1034C000D0F8E00403F02DBED0F8E00403F03DBED8
:1034D000F8B5040004D094F89504002510B106E076
:1034E0000120F8BD204684F8945400F057F80320DA
:1034F00084F89504206804F00FFB207C8DF8000010
:1035000094E80F0004F066F90226B0BB20680021A1
:1035100004F098FD88BB002001270CE000EBC001FF
:10352000421C04EB81014F750D76CD610D624D6239
:103530000875C885D0B221798142EFD8002011E00A
:1035400000EBC001421C04EB810181F8555281F867
:103550005852C1F85C52C1F86052C1F8645281F807
:103560005402D0B221798142EAD8207C8DF8000043
:1035700094E80F0004F01AFA10B184F89564AFE7EC
:10358000207B657484F89574012802D12046FFF7EA
:1035900077FB206804F0FCF90020F8BD70B5B0B0EE
:1035A0000446B8216846FDF72EF81949206888427C
:1035B0002CD100230220194619240A944FF48022AA
:1035C000CDE90023C0250EABCDE90B5006020D90CE
:1035D00083E84300020568462192119100F016FA33
:1035E00008B1FDF798FA00F0B3F80A48016841F015
:1035F0000071016000680022052100F000702E902B
:103600004D20FFF70BFB4D20FFF7FAFA30B070BDED
:1036100000000440D844025870B50446C079012522
:1036200070B1022801D0FDF776FAD4F8E0042946FB
:1036300003F0FAFDD4F8E004BDE8704003F0AEBD3D
:103640000025F2E7D0F8E00403F0D7BDD0F8E0049D
:1036500003F0DDBD10B5044690F8940401280AD0AB
:103660000120617484F89404206804F01AFD00209D
:1036700084F8940410BD022010BDD0F8E02400F2BC
:103680009C41104603F0DCBD10B590F8941404463C
:103690000068012909D0012184F89414C168490601
:1036A00009D5617B012902D005E0022010BD816BA4
:1036B00041F480318163206804F027FC206804F025
:1036C00059F9002084F8940410BD000010B5044698
:1036D000D0F8E00403F0F6FD2068D0F8001E41F0B9
:1036E0000101C0F8001EE07A002804D002480168F9
:1036F00041F00601016010BD10ED00E0134970B506
:103700000A68D243520705D5096801F007018142D2
:1037100013D118E00A6822F0070202430A60FFF79B
:1037200091F90A4D4FF47A760446083D07E000BF50
:10373000FFF788F9001BB04201D9012070BD28684D
:10374000C0438004F4D4002070BD00000C4802582F
:103750000248016841F08071016070470C480258CE
:1037600010B500F04DFF05490968054AC1F3021183
:10377000515C01F01F01C84010BD000020440258F8
:103780001C900008494930B5484C0B1D0A68143498
:1037900009681D68246802F00303C5F30012C1F331
:1037A0000531C4F3CC04002914FB02F200EE102A08
:1037B000F8EE400A75D03F4A9FED3D1AB7EE000A79
:1037C0006BB1DFED3D1A012B01D0022B64D002EE6C
:1037D000101A1168F8EE422A81EEA22A21E0334C39
:1037E000283C23689B0612D5344B246801EE901ABE
:1037F0001168C4F3C104F8EE612AE34001EE903A87
:10380000C1F30801F8EE611A81EEA22A0BE001EE85
:10381000901ADFED2B2A00BFF8EE611A116882EED4
:10382000A12AC1F3080101EE901A1168F8EE611A9D
:1038300040EE811A71EE800A62EE200AC1F3462141
:1038400001EE101AB8EE411A31EE001AC0EE811ADC
:10385000BCEEE11A80ED001A1168C1F3064101EED9
:10386000101AB8EE411A31EE001AC0EE811ABCEE01
:10387000E11A80ED011A1168C1F3066101EE101A18
:10388000B8EE411A31EE000A80EE801ABCEEC10A91
:1038900080ED020A30BD04E001EE901ADFED092A46
:1038A000BAE70021016041608160F3E728440258D3
:1038B00000000039384402580024744A0090D003B4
:1038C0000024744C20BCBE4B494930B5484C0B1DFC
:1038D0000A681C3409681D68246802F00303C5F3F4
:1038E0000022C1F30551C4F3CC04002914FB02F2F9
:1038F00000EE102AF8EE400A75D03F4A9FED3D1ABF
:10390000B7EE000A6BB1DFED3D1A012B01D0022B9F
:1039100064D002EE101A1168F8EE422A81EEA22A53
:1039200021E0334C283C23689B0612D5344B246895
:1039300001EE901A1168C4F3C104F8EE612AE34065
:1039400001EE903AC1F30801F8EE611A81EEA22A65
:103950000BE001EE901ADFED2B2A00BFF8EE611AA2
:10396000116882EEA12AC1F3080101EE901A1168D4
:10397000F8EE611A40EE811A71EE800A62EE200ABA
:10398000C1F3462101EE101AB8EE411A31EE001AC9
:10399000C0EE811ABCEEE11A80ED001A1168C1F385
:1039A000064101EE101AB8EE411A31EE001AC0EECF
:1039B000811ABCEEE11A80ED011A1168C1F30661AB
:1039C00001EE101AB8EE411A31EE000A80EE801AAC
:1039D000BCEEC10A80ED020A30BD04E001EE901A8F
:1039E000DFED092ABAE70021016041608160F3E759
:1039F0002844025800000039404402580024744A08
:103A00000090D0030024744C20BCBE4B2DE9FE4F27
:103A10000546DFF800A450F8081B0024FD4FC943F9
:103A2000019005F1280026460AF1240A00900801B9
:103A30001DD4686E50B1B0F5801F0CD0B0F5001FDA
:103A40000ED0B0F5401F1ED001240FE0386840F4BE
:103A50000030386017E00198022102F073F903E0AA
:103A60000098022102F0FEF904000CD026462888B6
:103A7000C043C00523D4A86D05281ED2DFE800F09E
:103A80000C11161B1B006A6EDAF8001021F44011AD
:103A90001143CAF80010EAE7386840F40030386093
:103AA00009E00198002102F04DF903E0009800219F
:103AB00002F0D8F90446C4B100E001242646288863
:103AC000DFF85083C04308F12C0840052FD4D5F807
:103AD000A400B0F5C00F28D010DCB8B1B0F5001FBD
:103AE00019D0B0F5800F0FD11AE0AA6DDAF80010E6
:103AF00021F007011143CAF80010E0E7B0F5000F0C
:103B000013D0B0F5200F10D001240FE0386840F436
:103B10000030386009E00198002102F013F903E059
:103B20000098002102F09EF9044694B126462888A8
:103B3000C043000530D4D5F8A800B0F1407F29D0AB
:103B400011DCC0B1B0F1807F1AD0B0F1007F10D18C
:103B50001BE0D5F8A420D8F8001021F4600111432F
:103B6000C8F80010E3E7B0F1806F13D0B0F1A06F98
:103B700010D001240FE0386840F40030386009E0CC
:103B80000198002102F0DEF803E00098002102F025
:103B900069F9044694B126462868DFF878B2C04334
:103BA0000BF1200B80011FD4E86CD8B110280FD086
:103BB000202812D0302815D0012414E0D5F8A820F0
:103BC000D8F8001021F0E0611143C8F80010E3E7D5
:103BD000386840F40030386004E00198022102F0B7
:103BE000B1F8044674B126462888C043C0042BD4DB
:103BF000E86DB0F5005F20D00DDCA0B1B0F5805FBE
:103C00000FD115E0EA6CDBF8001021F03001114310
:103C1000CBF80010E8E7B0F5405F13D0B0F5804F67
:103C200010D001240FE0386840F40030386009E01B
:103C30000198002102F086F803E00098002102F0CC
:103C400011F904468CB126462888C043800429D443
:103C5000286EB0F5403F23D010DC08B3B0F5803FAC
:103C600014D0B0F5003F0FD115E0EA6DDAF800107E
:103C700021F4E0411143CAF80010E5E7B0F5802FC8
:103C80000ED0B0F5A02F0BD001240AE0019801213D
:103C900002F058F803E00098012102F0E3F804462E
:103CA00094B126462888C04340042AD4D5F8AC00F5
:103CB000B0F1405F23D010DC08B3B0F1805F14D0C6
:103CC000B0F1005F0FD115E02A6EDAF8001021F490
:103CD000E0211143CAF80010E4E7B0F1804F0ED0A4
:103CE000B0F1A04F0BD001240AE00198012102F0AD
:103CF00029F803E00098012102F0B4F8044674B1F9
:103D000026462888C04300041FD4E86ED8B1B0F11D
:103D1000805F0ED0B0F1005F10D0012414E0D5F820
:103D2000AC20D8F8001021F0E0411143C8F8001091
:103D3000E7E7386840F40030386004E0019801217A
:103D400002F000F8044674B126462868C043C0015A
:103D50001ED4A86CD0B101280ED0022811D003289F
:103D600014D0012413E0EA6EDAF8001021F040517B
:103D70001143CAF80010E8E7386840F400303860B2
:103D800004E00198022101F0DDFF04466CB12646F3
:103D90002868C043400255D41F48016841F480712F
:103DA0000160FEF74FFE81460EE0AA6CDBF80010C2
:103DB00021F003011143CBF80010E9E7FEF742FEC2
:103DC000A0EB090064283BD813480068C005F5D56E
:103DD000BCBBDFF84090B5F8B01009F14409D9F840
:103DE000000001F4407100F44070884211D0D9F80D
:103DF0000010D9F8002021F4407142F48032C9F853
:103E00000020D9F8002022F48032C9F80020C9F837
:103E1000001003E02C44025800480258D5F8B000C6
:103E2000B0F5807F19D1FEF70DFE029011E000BFC2
:103E3000FEF708FE0299411A41F28830814208D902
:103E4000032426462878DFF81494C043C00721D005
:103E50003CE0D9F800008007EAD5D5F8B010C1F3EE
:103E600001200328FE480DD0016821F47C51016037
:103E7000B5F8B020D9F80010C2F30B021143C9F80D
:103E80000010DFE7F74A036802EA111223F47C51BD
:103E90001143ECE7A86F182816D005DCA0B108285C
:103EA00008D0102804D10AE020280DD028280BD0F3
:103EB00001240AE00198012101F044FF03E0009889
:103EC000012101F0CFFF044664B126462878C043A3
:103ED00080071ED4686F062819D2DFE800F0160CA0
:103EE00011161616AA6FD9F8001021F038011143E7
:103EF000C9F80010EAE70198012101F023FF03E06F
:103F00000098012101F0AEFF04467CB100E00124DD
:103F100026462878C04340071FD4D5F890000628CD
:103F200019D2DFE800F0160C111616166A6FD9F8D0
:103F3000001021F007011143C9F80010E9E70198CA
:103F4000012101F0FFFE03E00098012101F08AFF4A
:103F50000446A4B100E0012426462878C043800628
:103F60002BD4D5F88C00B0F1405F24D011DC10B315
:103F7000B0F1805F15D0B0F1005F10D116E0D5F838
:103F80009020D8F8001021F007011143C8F8001064
:103F9000E3E7B0F1804F0ED0B0F1A04F0BD0012479
:103FA0000AE00198002101F0CDFE03E00098022113
:103FB00001F058FF044694B126462878C0434006D5
:103FC0002BD4D5F89800B0F5406F24D011DC10B395
:103FD000B0F5806F15D0B0F5006F10D116E0D5F8B0
:103FE0008C20D9F8001021F0E0411143C9F80010ED
:103FF000E3E7B0F5805F0ED0B0F5A05F0BD00124F1
:104000000AE00198002101F09DFE03E000980221E2
:1040100001F028FF044694B126462878C0430006E4
:104020002BD4D5F89C00B0F5C04F24D011DC10B3D0
:10403000B0F5005F15D0B0F5804F10D116E0D5F87F
:104040009820D8F8001021F4E0511143C8F800106E
:10405000E3E7B0F5004F0ED0B0F5204F0BD00124B0
:104060000AE00198002101F06DFE03E000980221B2
:1040700001F0F8FE044654B126462878C0430007F4
:104080001ED4D5F88000B0F5805F0AD00FE0D5F8D7
:104090009C20D8F8001021F460411143C8F80010AA
:1040A000EBE70098022101F0DDFE00B10126D5F812
:1040B0008020D9F8001021F440511143C9F80010B4
:1040C0002878C043C00613D4D5F89400B0F5807F9B
:1040D00005D10098022101F0C5FE00B10126D5F8F6
:1040E0009420D8F8001021F440711143C8F8001052
:1040F0002868C043000316D4D5F8A00038B1B0F545
:10410000803F09D0B0F5003F0BD001240AE00198B0
:10411000002101F017FE03E00098022101F0A2FE49
:1041200004468CB126462868C043400322D4D5F803
:104130008400B0F5801F11D0B0F5001F13D0B0F58A
:10414000401F15D0012414E0D5F8A020D8F80010A5
:1041500021F440311143C8F80010E4E7386840F416
:104160000030386004E00098012101F07BFE044635
:104170005CB126462868C043C0031CD4286D70B1CA
:10418000B0F5803F10D0012414E0D5F88420D9F890
:10419000001021F440111143C9F80010EAE7386813
:1041A00040F40030386004E00198022101F0CAFDBB
:1041B0000446DCB126462868C043800005D4009838
:1041C000022101F04FFE00B101262868C0438003A0
:1041D0001BD4E86FB8B1B0F5807F10D0B0F5007F88
:1041E00011D0B0F5407F0ED001240DE02A6DDBF830
:1041F000001021F480311143CBF80010DBE7386860
:1042000040F4003038607CB326462868C043C002C2
:1042100007D42A6FDAF8001021F000411143CAF8E0
:1042200000102868C043800207D4AA6EDAF8001094
:1042300021F080711143CAF800102868C043400083
:1042400009D40748016821F4004101600168D5F8EC
:10425000B420114301602868C04306E0544402586A
:1042600010440258CFFFFF001DE007D46A6DDBF851
:10427000001021F040511143CBF800102868C043D2
:10428000000208D4D5F88820D9F8001021F44001A4
:104290001143C9F8001028790024C04300F0010040
:1042A000204309D00EE0EA6FD9F8001021F44071E4
:1042B0001143C9F80010A8E70198002101F042FD60
:1042C00000B106462879C04300F00200204305D122
:1042D0000198012101F036FD00B106462879C0435E
:1042E00000F00400204305D10198022101F02AFDCD
:1042F00000B106462879C04300F00800204305D1EC
:104300000098002101F0AEFD00B106462879C043B7
:1043100000F01000204305D10098012101F0A2FD1A
:1043200000B106462879C04300F02000044304D1C0
:104330000098022101F096FD00B916B10120BDE8F8
:10434000FE8F0020FBE700002DE9F05F04000F4620
:104350007ED0DFF83882D8F8000000F00F00B842B5
:104360000CD2D8F8001021F00F013943C8F8001022
:10437000D8F8000000F00F00B84269D12078844DD1
:1043800040070AD52069296801F07001884204D9E4
:10439000296821F070010143296020787C4E361D88
:1043A00000070AD56069316801F07001884204D9BC
:1043B000316821F07001014331602078C0060AD5D0
:1043C000A069316801F4E061884204D9316821F4C0
:1043D000E061014331602078DFF8B4B180060BF171
:1043E000080B0CD5E1695846DBF8002002F070029A
:1043F000914204D9026822F070020A4302602078D8
:1044000080070AD5E068296801F00F01884204D9C5
:10441000296821F00F01014329602078C0073ED0B0
:104420005B49A2682868183920F47060104328603E
:104430006068022818D0032819D00968012819D00B
:10444000490700294ADADFF848A1AAF1080A00E082
:1044500044E0DAF8002022F007020243CAF8002004
:10446000FEF7F0FA814612E009688903E9E7096876
:104470008901E6E7C905E4E7FEF7E4FAA0EB0901E4
:1044800041F28830814202D90320BDE8F09F616883
:10449000DAF8000000F03800B0EBC10FECD1207862
:1044A00080070AD5E068296801F00F01884204D22C
:1044B000296821F00F0101432960D8F80010404617
:1044C00001F00F01B9420BD9016821F00F01394306
:1044D0000160006800F00F00B84201D00120D4E76D
:1044E000207840070AD52069296801F070018842C8
:1044F00004D2296821F07001014329602078000767
:104500000AD56069316801F07001884204D23168CF
:1045100021F07001014331602078C0060AD5A069FE
:10452000316801F4E061884204D2316821F4E0612D
:1045300001433160207880060CD5E1695846DBF8EC
:10454000002002F07002914204D2026822F0700250
:104550000A43026000F09AF80E492A682B68C2F3F9
:10456000032203F00F038A5CC95C02F01F0201F012
:104570001F01D040084A20FA01F111600749086084
:1045800007480068BDE8F05FFEF798BA00200052C7
:10459000184402581C9000082C0000242800002415
:1045A0002000002470B5144C3F220260124A246897
:1045B0000832131D114D04F00704446016681C1DD9
:1045C00006F470668660166806F00F06C66012680C
:1045D00002F0700202611A6802F0700242611A6809
:1045E00002F4E0628261226802F07002C26128680F
:1045F00000F00F00086070BD104402580020005207
:1046000030B500F043F80B4A0B490C4B15681468A1
:10461000C5F3032204F00F048A5C095D02F01F0257
:1046200001F01F01D040064A20FA01F11960106024
:10463000084630BD184402581C9000082C00002485
:104640002800002400B5FFF7DBFF05490968054A8B
:10465000C1F30211515C01F01F01C84000BD000010
:104660001C4402581C90000800B5FFF7C9FF05491B
:104670000968054AC1F30221515C01F01F01C840DD
:1046800000BD00001C4402581C900008454970B54C
:1046900045480968434B103B11F0380208D001111E
:1046A000082A03D0102A0BD0182A0BD0084670BD58
:1046B00019688906FBD51968C1F3C101C84070BDEE
:1046C0003A4870BD3749374D18310C1D24350A68FA
:1046D000096826682D6802F0030406F00102C1F3A0
:1046E0000511C5F3CC0515FB02F200EE102AB8EE59
:1046F000400AE9B32F4ADFED2E0AB7EE001A6CB17B
:10470000DFED2D1A012C01D0022C43D002EE101A3D
:104710001068F8EE422A81EEA22A1EE01C68A40668
:1047200011D51B6801EE901A1168C3F3C103F8EEAE
:10473000612AD84001EE900AC1F30800F8EE611A30
:1047400081EEA22A0BE001EE901ADFED1C2A00BFD9
:10475000F8EE611A106882EEA12AC0F3080001EE9B
:10476000900AF8EE611A40EE201A31EE810A00E05C
:1047700015E022EE000A1068C0F34620401C00EE4F
:10478000900AF8EE600A80EE201ABCEEC10A10EE24
:10479000100A70BD01EE901ADFED092AD8E700205B
:1047A00070BD0000104402580090D00340787D0195
:1047B00000000039304402580024744A0024744C2C
:1047C00020BCBE4B2DE9F05F04007DD0FF4F207868
:1047D000FE4D1837DFF8F483103DC00748D0D8F8F5
:1047E0000000396800F03800102815D0182803D1CF
:1047F00001F0030002280FD06068B0F5803F12D0AE
:1048000010B1B0F5A02F18D0286820F480302860AF
:10481000286820F4802009E02868800328D5606893
:104820000028D2D024E0286840F4803028606068F6
:1048300088B1FEF707F9064609E0286840F48020B1
:104840002860F0E7FEF7FEF8801B64287ED8286811
:104850008003F7D50CE0FEF7F5F8064605E000BF4B
:10486000FEF7F0F8801B6428F0D828688003F7D49E
:104870002078800756D5D8F80000DFF850933968C3
:1048800010F03800A9F10C090ED0182801D18807C2
:104890000AD0E068A8B3296821F019010143296012
:1048A000FEF7D0F8064628E02868400702D5E06801
:1048B00000288AD0E168286820F0190008432860A1
:1048C000FEF7C0F8064606E0D2E000BFFEF7BAF8F1
:1048D000801B0228BAD828684007F7D5217CD9F870
:1048E000002022F0FE4242EA0161C9F8001019E0FE
:1048F000FEF7A8F8801B0228A8D828684007F7D53B
:10490000ECE7FFE7286820F001002860FEF79AF83E
:10491000064604E0FEF796F8801B022896D8286821
:104920004007F7D42078C00646D5D8F80000DFF855
:104930009C92396800F03800A9F10409082812D0C7
:10494000182805D101F00300012800E0CEE00AD0CC
:10495000E0690028286820D040F080002860FEF739
:1049600071F8064615E02868C00502D5E069802880
:104970007ED194F82010D9F8002022F07C5242EA2F
:104980000161C9F8001017E0FEF75CF8801B0228EF
:10499000A0D82868C005F7D5EBE720F08000286094
:1049A000FEF750F8064604E0FEF74CF8801B02289C
:1049B00090D82868C005F7D42078000729D5834807
:1049C0006169643000298146016811D041F001011C
:1049D0000160FEF737F8064605E000BFFEF732F843
:1049E000801B022888D8D9F800008007F6D510E08F
:1049F00021F001010160FEF725F8064605E000BF41
:104A0000FEF720F8801B022870D8D9F80000800734
:104A1000F6D42078800623D5A0690028286810D015
:104A200040F480502860FEF70DF8064605E000BF10
:104A3000FEF708F8801B022858D828688004F7D5AC
:104A40000EE020F480502860FDF7FCFF064604E0ED
:104A5000FDF7F8FF801B022848D828688004F7D4A7
:104A60002078400751D5DFF86891D9F8001000E0B0
:104A700015E141F48071C9F80010FDF7E3FF064627
:104A800005E000BFFDF7DEFF801B64282ED8D9F8B3
:104A90000000C005F6D54D4EA068603601280AD04A
:104AA00008B1052813D0306820F00100306030686C
:104AB00020F0040002E0306840F001003060A0689F
:104AC00041F2883A98B1FDF7BDFF81460AE03068AF
:104AD00040F004003060EEE7FDF7B4FFA0EB090101
:104AE000514503D830688007F6D50EE072E0FDF737
:104AF000A9FF814606E000BFFDF7A4FFA0EB090176
:104B0000514567D830688007F6D4606A00287CD0A9
:104B1000DFF8B8A0D8F800100AF1200A4FF6F87BA9
:104B20000AF10408C1F3C2010329AAF104096DD0F6
:104B30000228286820F08070286003D0FDF782FFEB
:104B4000044681E0FDF77EFF064604E0FDF77AFFAC
:104B5000801B022875D828688001F7D4E26A40F2E9
:104B6000F331386854F8283F884340EA021018436C
:104B70003860217B4FF4FE0C22894FF0FE47208ADB
:104B80004902267D521E401EA1F5007189B2C2F372
:104B900008021143761E0CEA00400143484607EA2A
:104BA00006621143CAF80010D9F8001021F0010183
:104BB000C9F80010D8F80030266A23EA0B0343EA4C
:104BC000C601C8F80010D9F8001004E010440258DB
:104BD0000048025835E0A26921F00C011143C9F8E0
:104BE00000100168E26921F00201114301600168CF
:104BF00041F480310160016841F4003101600168D5
:104C000041F480210160016801E06CE020E041F0A6
:104C100001010160286840F080702860FDF712FFF4
:104C2000044604E0FDF70EFF001B022809D828689F
:104C30008001F7D557E000BFFDF704FF001B0228F5
:104C400002D90320BDE8F09F28688001F4D44AE02F
:104C500039680128DAF8000021D0A26A01F00303C4
:104C600093421CD1E26AC1F305118A4217D1216B2C
:104C7000C0F30802491E8A4211D1616BC0F346227B
:104C8000491E91420BD1A16BC0F30642491E9142CD
:104C900005D1E16BC0F30660491E814201D00120BD
:104CA000D0E7A16C4646D8F80000C0F3CC008142A2
:104CB00019D0D9F800004D4620F00100C9F80000D5
:104CC000FDF7C0FE4FEA0007FDF7BCFEB842FBD07F
:104CD000A26C306820EA0B0040EAC200306028680D
:104CE00040F0010028600020ACE700002DE9F0470B
:104CF000040029D0594A4FF000092068584B594DFB
:104D00009042C4F8289006D0984204D0A84202D01D
:104D1000E1680F2918D8E1684FF0010AE76B083104
:104D2000C9080AEB57167143904205D0984203D048
:104D3000A84201D0082907D8904203D0984201D058
:104D4000A84204D1102902D90120BDE8F08794F8C7
:104D5000810020B9204684F8809000F085F8022078
:104D600084F881002068016821F001010160206859
:104D7000A1698268B1F1806F02F4F81110D1626804
:104D8000B2F5800F01D01AB10AE0A26B22B107E0A0
:104D9000A26BB2F1805F03D1026842F480520260DC
:104DA0006068400209D5E068072806D32068236DB3
:104DB000026822F480721A4303E02068026822F439
:104DC00080720260A66AE069E26B25683043E3689E
:104DD0000A4310431843A860D4E90D02D4E90581C1
:104DE000636A25691843D4F820C00A432668104333
:104DF0002843A56DD4E90172D4E9123140EA0800D4
:104E000040EA0C0038430843104318432843F0603D
:104E1000606868B92068816821F4C05141F400617C
:104E200081602068816821F4C06141F48061816003
:104E30002068016D21F0010101656068400206D51E
:104E40002068626DC16821F000411143C160C4F85F
:104E5000849084F881A0002077E7000000300140B2
:104E600000380040003C00402DE9F041B4B0074656
:104E700014212EA8FBF7C7FBB8216846FBF7C3FB3C
:104E8000364C022536494FF005083868103C334E41
:104E90000027884236D1811417970020CDE90010F1
:104EA0006846FEF7B3FD08B1FBF735FE306840F405
:104EB00080503060306800F480503390206840F0BB
:104EC00008002060206800F008003390206840F05F
:104ED0000200206020682EA93095444600F00200B0
:104EE00033908020CDE92E051E48CDE93178FDF7BD
:104EF0008DFC18203095CDE92E051B482EA9CDE953
:104F0000317426E01949884225D1411418970020B0
:104F1000CDE900106846FEF779FD08B1FBF7FBFD0F
:104F2000306840F400503060306800F40050339036
:104F3000206840F01000206020684FF4E041CDE987
:104F40002E1500F01000CDE930572EA9CDE93280A2
:104F50000748FDF75BFC34B0BDE8F081F04402582F
:104F600000300140000C0258000402580034014097
:104F70000010025870477047704710B5040003D006
:104F800094F83D0010B107E0012010BD002084F826
:104F90003C00204600F022F8022084F83D00206802
:104FA000211D01F0CFF8012084F8480084F83E006C
:104FB00084F83F0084F8400084F8410084F84200FF
:104FC00084F8430084F8440084F8450084F84600DF
:104FD00084F8470084F83D00002010BD70470000B1
:104FE00090F83D10012901D0012070471A4A022192
:104FF00080F83D100168CB6843F00103CB60006886
:1050000090421AD0B0F1804F17D01449884214D082
:105010001349884211D0134988420ED01249884260
:105020000BD01249884208D01149884205D0114955
:10503000884202D01049884207D181680F4A114046
:10504000062906D0B1F5803F03D0016841F0010187
:105050000160002070470000000001400004004093
:1050600000080040000C004000040140001800400F
:105070000040014000E0004000E400400700010063
:1050800070472DE9F041044600680027C6680569AD
:10509000A90713D5B10711D5FA1E026101212177A5
:1050A000206880698007204602D0FFF7E9FF04E00E
:1050B00000F08BF8204600F089F82777680716D5AE
:1050C000700714D5226802206FF004011161207767
:1050D0002068806910F4407F204602D0FFF7D0FF9F
:1050E00004E000F072F8204600F070F827772807F7
:1050F00015D5300713D5226804206FF0080111611F
:1051000020772068C0698007204602D0FFF7B8FFEB
:1051100004E000F05AF8204600F058F82777E80637
:1051200016D5F00614D5226808206FF01001116121
:1051300020772068C06910F4407F204602D0FFF736
:105140009FFF04E000F041F8204600F03FF8277789
:10515000E80708D0F00706D021686FF00100086169
:10516000204600F035F8280601D4A80408D53006FA
:1051700006D521686FF4025008612046FFF7FBFE58
:10518000E80508D5300606D521686FF480700861FF
:105190002046FFF7EFFE680608D5700606D52168A1
:1051A0006FF040000861204600F01CF8A8060AD500
:1051B000B00608D521686FF0200008612046BDE8E0
:1051C000F041FFF7D9BEBDE8F0817047704700009D
:1051D00000680349884201D1FDF73ABC70470000DE
:1051E00000E00040704730B590F88410012918D0D5
:1051F000012280F884202421C0F888100022202475
:1052000001680B680D6823F0005325F001050D605F
:10521000426601680B60C0F8884080F88420104620
:1052200030BD022030BD7047704770B5044690F81D
:10523000840001281DD0012284F884202420C4F891
:10524000880020680568026822F001020260206878
:10525000826822F060620A438260204600F0E2FF2A
:105260002268202100201560C4F8881084F884008A
:1052700070BD022070BD70B5044690F8840001280E
:105280001DD0012284F884202420C4F888002068DE
:105290000568026822F0010202602068826822F03C
:1052A00060420A438260204600F0BCFF2268202151
:1052B00000201560C4F8881084F8840070BD0220B6
:1052C00070BD7047704770472DE9F04107680025B1
:1052D000044640F60F030226F8693968BA68184296
:1052E0000AD183067ED501F0200302F0805C53EAE8
:1052F0000C0377D0616F7EE1D44BDFF854C31340C9
:1053000001EA0C0C53EA0C0C6CD05FEAC07C0CD0A8
:105310005FEAC15C09D54FF0010CC7F820C0D4F892
:10532000907047F00107C4F89070870709D5D70738
:1053300007D027683E62D4F8906046F00406C4F8AF
:10534000906046070AD5D60708D0276804263E6233
:10535000D4F8906046F00206C4F8906006070CD5B9
:1053600001F020061E4308D0266808233362D4F8D3
:10537000903043F00803C4F8903003050BD54B017F
:1053800009D526684FF400633362D4F8903043F0B7
:105390002003C4F89030D4F89030002B3DD0800624
:1053A00009D501F0200002F08051084303D0616F5D
:1053B00009B1204688472168D4F8900089684906D9
:1053C00002D410F0280F2AD0204601F05BF82068A4
:1053D000806840061ED52068083050E8001F21F084
:1053E000400100E021E040E80012002AF3D1D4F8A7
:1053F000800078B197490165D4F88000FBF780FE02
:1054000000280AD0D4F88000016D00E02046BDE8F5
:10541000F04108472046FFF756FFBDE8F0812046DF
:10542000FFF751FFC4F89050F7E7D4F86CC0202381
:10543000BCF1010F7ED15FEAC06C7BD55FEAC16C25
:1054400078D51020386220688068400673D5D4F87B
:10545000802081491068884234D07F4918318842C1
:1054600030D07D49303188422CD07B494831884248
:1054700028D079496031884224D0774978318842F0
:1054800020D07549903188421CD07349A831884298
:1054900018D07249884215D070491831884211D00D
:1054A0006E49303188420DD06C494831884209D06C
:1054B0006A496031884205D068497831884201D014
:1054C0006649903140684FF480770004000C40D06A
:1054D000B4F85C1081423CD9A4F85E00D069B842AF
:1054E0002FD0216851E8000F20F4807041E80002BD
:1054F000002AF6D12068083050E8001F21F0010191
:1055000040E80012002AF5D12068083050E8001F5A
:1055100021F0400140E80012002AF5D1C4F88C3097
:10552000E566206850E8001F21F0100140E80012F5
:10553000002A01E04AE019E0F3D1D4F88000FBF73B
:105540002FFC2667B4F85C00B4F85E10401A81B2F4
:1055500008E0B4F85C1081427FF466AFD069B842CD
:10556000FAD126672046FFF75EFE56E7B4F85C00E6
:10557000B4F85E10B4F85E20401A81B2002AF4D06C
:105580000029F2D0226852E8000F20F4907042E81F
:105590000007002FF6D1324F206800F1080050E8D4
:1055A000002F02EA070240E8002CBCF1000FF3D103
:1055B000C4F88C30E5666567226852E8000F20F079
:1055C000100042E80003002BF6D1CAE7C60209D555
:1055D000560207D54FF4801038622046BDE8F041EE
:1055E000FFF770BE06060AD501F0800602F400023D
:1055F000164304D0A16F00297FF408AF0DE74206DF
:1056000011D54A060FD52046016851E8002F22F037
:10561000400241E80024002CF6D1C0F888308567AC
:1056200000F002F9F9E6020206D54A0004D5204648
:10563000BDE8F041FFF745BEC00196D5002994DAD8
:105640002046BDE8F041FFF7EFBD0000010000106B
:1056500020010004DB630008100002401004024037
:10566000FEFFFFEF10B5040003D0D4F8880010B19E
:1056700007E0012010BD002084F88400204600F0DF
:1056800027F82420C4F888002068016821F001016F
:105690000160A06A10B1204600F0E6FD204600F04F
:1056A00033FF0128E6D02068416821F49041416031
:1056B0002068816821F02A0181602068016841F03A
:1056C000010101602046BDE8104000F031BE00003D
:1056D00070B5B4B0064614212EA8FAF794FFB8218D
:1056E0006846FAF790FF27493068884248D1002081
:1056F0001E9001210546CDE900106846FEF786F9A7
:1057000008B1FBF708FA2048016841F01001016078
:10571000006800F0100033901B481038016841F019
:105720000201016000682EAC022100F002003390FB
:105730000122042332934FF4404084E827001348A9
:105740002EA9FDF763F8124C2A211248402284E862
:10575000270003152046C4E90435A561E5612562EB
:105760006562FCF783F908B1FBF7D5F9F46700220D
:105770000521A6632520FDF751FA2520FDF740FA03
:1057800034B070BD00100140F044025800040258CB
:10579000400500241000024070B50446D0F888008F
:1057A000202801D0022070BD39B332B3E06F00234E
:1057B00021652125A4F85420A4F85620C4F890307F
:1057C000C4F88850D8B11549C163E16F1448086422
:1057D000E16F1448C864E06F036513462068E56F05
:1057E00000F12802216D2846FCF71EFB38B110217C
:1057F000C4F890102020C4F88800012070BD2168F2
:10580000402008622068083050E8001F41F0800105
:1058100040E80012002AF5D1002070BD396400086C
:1058200079640008EB63000870477047FEE70000EA
:10583000F0B500230A251C463026372711E000BFAB
:10584000B5EB107F02D906EB107C01E007EB107C72
:1058500001F813C001EB430C00015B1C8CF8014004
:10586000DBB29342ECD3F0BD1648002170B5144C66
:1058700008258160012304602026C160032401748F
:105880000422417481744661C0E90635C0E90843C9
:105890008362C362C0E90C318163C163C0E9101245
:1058A000C0E91212C0E914128165C1650166C0E940
:1058B0001912FCF7DDFD002801D072B6FEE770BDBD
:1058C00000A00040BC0100241648002170B5144C13
:1058D00008258160012304602026C160032401742F
:1058E0000422417481744661C0E90635C0E9084369
:1058F0008362C362C0E90C318163C163C0E91012E5
:10590000C0E91212C0E914128165C1650166C0E9DF
:105910001912FCF7ADFD002801D072B6FEE770BD8C
:1059200000A400405C0200241648002170B5144C0D
:1059300008258160012304602026C16003240174CE
:105940000422417481744661C0E90635C0E9084308
:105950008362C362C0E90C318163C163C0E9101284
:10596000C0E91212C0E914128165C1650166C0E97F
:105970001912FCF77DFD002801D072B6FEE770BD5C
:1059800000D40040FC02002410B586B01421684603
:10599000FAF739FE2548016841F004010160016809
:1059A00001F004010591016841F080010160016886
:1059B00001F080010591016841F01001016001686A
:1059C00001F010010591016841F0020101600168D8
:1059D00001F002010591016841F0080101600168D0
:1059E00001F008010591016841F040010160016882
:1059F00001F040010591016841F00101016000687A
:105A000001220B4C802100F0010005902046FDF79B
:105A100013F8012100228020CDE90001CDE9021216
:105A200069462046FCF7F2FE06B010BDE04402587D
:105A30000018025870B5134803224FF48004104D2B
:105A400000212301C0E9021201611A01C0E9051316
:105A5000C161016241628162C162C0E90D21C1631D
:105A6000016441648164C164016541658165C0E987
:105A70000054FFF73BF9002801D072B6FEE770BD75
:105A8000003001409C03002470B5134803224FF4FA
:105A90008004104D00212301C0E9021201611A01A6
:105AA000C0E90513C161016241628162C162C0E95E
:105AB0000D21C163016441648164C1640165416574
:105AC0008165C0E90054FFF711F9002801D072B6D2
:105AD000FEE770BD00340140240400241748002173
