:020000040800F2
:10000000C81200242D0400087B380008D7350008EA
:10001000793800089F050008134A00080000000016
:100020000000000000000000000000006D03000858
:10003000A105000800000000C903000851440008A1
:100040004B0400084B0400084B0400084B04000854
:100050004B0400084B0400084B0400084B04000844
:100060004B0400084B0400084B0400084B04000834
:100070004B0400084B0400084B0400084B04000824
:100080004B0400084B0400084B0400084B04000814
:100090004B0400084B0400084B0400084B04000804
:1000A0004B0400084B0400084B0400084B040008F4
:1000B0004B0400084B0400084B0400084B040008E4
:1000C0004B0400084B0400084B0400084B040008D4
:1000D0004B0400084B0400084B0400084B040008C4
:1000E0004B0400084B040008000000004B0400080B
:1000F0004B0400084B0400084B0400084B040008A4
:100100004B0400084B0400084B0400084B04000893
:100110004B0400084B0400084B0400084B04000883
:100120004B0400084B0400084B0400084B04000873
:100130004B0400084B0400084B0400084B04000863
:1001400000000000000000000000000000000000AF
:100150004B0400084B0400084B0400084B04000843
:100160004B0400084B0400084B0400084B04000833
:100170004B0400084B0400084B040008000000007A
:100180004B0400084B0400084B0400084B04000813
:100190004B0400084B0400084B0400084B04000803
:1001A0004B0400084B0400084B040008000000004A
:1001B0004B0400084B0400084B0400084B040008E3
:1001C0004B0400084B040008000000000000000081
:1001D00000000000000000004B04000800000000C8
:1001E000000000000000000000000000000000000F
:1001F00000000000000000004B0400084B04000851
:100200004B0400084B040008000000004B040008E9
:100210004B0400084B0400084B0400084B04000882
:100220004B040008000000004B0400080000000020
:100230004B0400084B040008000000004B040008B9
:100240004B0400084B0400084B0400084B04000852
:100250004B0400084B0400084B0400084B04000842
:100260004B0400084B0400084B0400084B04000832
:100270004B0400084B0400084B0400080000000079
:100280004B0400084B0400084B0400084B04000812
:10029000000000004B0400084B04000800000000B0
:1002A000000000004B0400084B0400084B04000849
:1002B0004B0400084B0400084B0400084B040008E2
:1002C0004B040008ED4500084B04000800F002F85C
:1002D00000F03CF80AA090E8000C82448344AAF1A4
:1002E0000107DA4501D100F031F8AFF2090EBAE8A2
:1002F0000F0013F0010F18BFFB1A43F0010318475A
:10030000B8530000E8530000103A24BF78C878C101
:10031000FAD8520724BF30C830C144BF04680C600B
:10032000704700000023002400250026103A28BF53
:1003300078C1FBD8520728BF30C148BF0B60704757
:100340001FB505F055F91FBD10B510BD00F0EEF852
:100350001146FFF7F5FF04F06FFB00F00CF903B452
:10036000FFF7F2FF03BC00F013F900002C4B1968F3
:100370000868B0E8F04F80F30988BFF36F8F4FF043
:10038000000080F3118870470000000008480068F2
:10039000006880F308884FF0000080F3148862B68C
:1003A00061B6BFF34F8FBFF36F8F00DF00BF00BF99
:1003B00008ED00E0DFF80C00016841F47001016015
:1003C000704700BF88ED00E0EFF30980BFF36F8F47
:1003D000134B1A681EF0100F08BF20ED108A20E999
:1003E000F04F106009B44FF0500080F31188BFF354
:1003F0004F8FBFF36F8F04F033FF4FF0000080F397
:10040000118809BC19680868B0E8F04F1EF0100F99
:1004100008BFB0EC108A80F30988BFF36F8F704774
:1004200020000024EFF30580704700000A48804751
:100430000A4880470A480047FEE7FEE7FEE7FEE776
:10044000FEE7FEE7FEE7FEE7FEE7FEE705480649B2
:10045000064A074B70470000A9050008154500082B
:10046000CD020008C80C0024C8120024C80E0024C5
:10047000C80E002410B5203AC0F00B80B1E8185027
:10048000203AA0E81850B1E81850A0E81850BFF47E
:10049000F5AF5FEA027C24BFB1E81850A0E818501D
:1004A00044BF18C918C0BDE810405FEA827C24BF71
:1004B00051F8043B40F8043B08BF7047D20728BFFF
:1004C00031F8023B48BF11F8012B28BF20F8023B4E
:1004D00048BF00F8012B70474FF0000200B51346EB
:1004E00094469646203922BFA0E80C50A0E80C5054
:1004F000B1F12001BFF4F7AF090728BFA0E80C5005
:1005000048BF0CC05DF804EB890028BF40F8042BFD
:1005100008BF704748BF20F8022B11F0804F18BF6A
:1005200000F8012B7047704770477047754600F020
:100530002BF8AE4605006946534620F00700854675
:1005400018B020B5FFF782FFBDE820404FF000064D
:100550004FF000074FF000084FF0000B21F00701AB
:10056000AC46ACE8C009ACE8C009ACE8C009ACE8EE
:10057000C0098D46704710B50446AFF30080204691
:10058000BDE81040FFF7EBBE00487047680C002440
:1005900001491820ABBEFEE7260002007047FEE7C7
:1005A000704772B6FEE70000054805490839026841
:1005B00042F00202026008688004FCD57047000027
:1005C0000C480258F0B503684FF6FC716D4C426B55
:1005D000D3F884508D4345EA8205C3F884500368FC
:1005E00053F8845F068F25F47F0545EA06451D60B4
:1005F000836B654D9F180268D2F888308B4343EABD
:100600008703C2F88830026852F8883F868F23F447
:10061000FE0343EA06431360066856F8A03FC26B28
:100620008B4307EB420243EA82033360076857F8C3
:10063000A03FB0F8406023F4FE0343EA06433B606A
:10064000D0E9103603FB06220368D3F8B0608E436E
:1006500046EA8206C3F8B0600368B0F84860D3F891
:10066000B07027F4FE0747EA0646C3F8B060D0E949
:100670001267036806FB0722D3F8AC608E4346EA94
:100680008206C3F8AC60D0E91467036806FB072252
:10069000D3F8F0608E4346EA8206C3F8F060036840
:1006A000B0F85860D3F8F07027F47C1747EA064694
:1006B000C3F8F0600368876D53F8C06F02EB470220
:1006C0008E4346EA820119600168B0F85C20D1F8D7
:1006D000C03023F47C1343EA0242C1F8C020016811
:1006E00090F86020D1F8C03023F07C5343EA0262D6
:1006F000C1F8C020416B04EB8101C166826B01EB44
:1007000082020267C36B02EBC3024267D0E9103476
:10071000634302EB83028267D0E91234634302EB46
:100720008302C267D0E91434634302EB8302C0F84A
:100730008020836D02EBC303C0F88430C46D826EE9
:10074000544303EB8403C0F88830046E544303EB36
:100750008402C0F89020AA420AD9D0F89C20032134
:1007600042F02002C0F89C2080F898100120F0BDD3
:10077000002200E004C1D0F890308B42FAD800206B
:10078000F0BD000000AC0040FCD3004070B5044652
:1007900000F0D0FA0546601C02D0044800780444FA
:1007A00000F0C8FA401BA042FAD370BD0C00002430
:1007B0002DE9F04194B08D494C2204466846FFF77C
:1007C00059FE64B18A4D2068A84202D100F58070BC
:1007D000606094F898004FF0000820B108E0012014
:1007E00014B0BDE8F081204684F8998000F002F949
:1007F0002068816921F01001816100F09BFA0327D4
:10080000064604E000F096FA801B0A2811D82068FA
:1008100080690007F6D42068816941F00101816197
:1008200000F088FA06460DE000F084FA801B0A28E2
:1008300008D9D4F89C0040F00100C4F89C0084F86A
:100840009870CCE720688069C007EDD02068816986
:1008500041F002018161207C01282068816937D044
:1008600041F040018161607C01282068816932D0BB
:1008700021F480418161A07C0128206881692DD00C
:1008800041F4805181612068A268816921F440713E
:10089000114381612068816921F0A4018161206890
:1008A000016921F010010161E068012819D010B33D
:1008B00002281BD02068816941F080018161206895
:1008C000016941F010010161E06803280ED012E0D7
:1008D00021F04001C6E741F48041CBE721F480518B
:1008E000D0E72068816941F0040103E02068816954
:1008F00041F020018161207E6FF0FF02D4E907738F
:10090000A68A1102400602EB0727A0F100703843C7
:1009100027685B1E184301EB06463043F861A06868
:10092000B0F5407F11D104F12800A68C6FF00F0CB8
:1009300089C801EB0641401E02EB032210432268E6
:100940000CEB071318430843D060206E30B12068C9
:10095000626ED0F8C0101143C0F8C010D4E917126D
:100960006846D14209D02168A36E51F8C82F50F8CB
:10097000233022F007021A430A60216C49B1216832
:10098000626C51F8BC3F50F8226023F007023243FA
:100990000A60A16C51B12168E36C51F8BC2F50F88A
:1009A000233022F0700242EA03120A60216D51B135
:1009B0002168626D51F8BC3F50F8220023F4E062D8
:1009C00042EA002008602068A84204D1606881687B
:1009D00021F003018160C4F894800121C4F89C8057
:1009E00084F898102046FFF7EDFDF9E6445600081C
:1009F00000A00040F0B587B0054614216846FFF717
:100A00006BFD384E0024364B02272D684FF0090C41
:100A1000DFF8D4E00C3B3168314A7545334801F1C9
:100A2000010118D10129316007D1116841F48071A9
:100A30001160116801F480710591196841F0080195
:100A40001960196801F00801059103210091CDE9B1
:100A5000017469461CE0DFF898E075451ED1012954
:100A6000316007D1106840F480701060106800F4A5
:100A700080700590186840F0020018601868694698
:100A800000F002000590602000901A48CDE9017442
:100A9000CDE9034C00F032F807B0F0BDDFF858C0E4
:100AA0006545F9D10129316007D1116841F48071A0
:100AB0001160116801F480710591196841F0080115
:100AC00019601968052201F0080105914FF44051A1
:100AD0000091CDE90174CDE903426946DAE70000EF
:100AE000EC4402580800002400A00040000C02580A
:100AF00000A400400004025800D400402DE9F84F43
:100B000003247A4D00234FF001094FF0B04B4FF012
:100B10000F0AE4E009FA03F6324078D00F7907F0C3
:100B20000307012F01D0022F1AD187684FEA430E25
:100B3000D1F80CC004FA0EF827EA08070CFA0EFCEC
:100B40004CEA070CC0F808C0476891F804C0B743E6
:100B5000CCF3001C0CFA03FC4CEA070CC0F804C0F0
:100B60000E79F643B6070BD0C6684FEA43088F6884
:100B700004FA08FC26EA0C0607FA08F73743C760B0
:100B80000E7906F00306022E12D1DE080F694FEA35
:100B9000437C00EB8606B646366A4FEADC6C0AFAFE
:100BA0000CF807FA0CF726EA08063743CEF820704F
:100BB0000F7906684FEA430807F0030704FA08FCB8
:100BC00007FA08F726EA0C06374307604E6816F462
:100BD000403F1CD0464E376847F002073760366802
:100BE0009F0706F00206009623F0030606F1B046C2
:100BF000B6463F0FD6F80864DFF8F8800AFA07FC1B
:100C0000404526EA0C0603D14FF0000C3AE065E0BF
:100C1000DFF8E4C0604502D14FF0010C32E0DFF8AC
:100C2000DCC0604502D14FF0020C2BE0DFF8D0C0F1
:100C3000604502D14FF0030C24E0DFF8C8C06045E6
:100C400002D14FF0040C1DE0DFF8BCC0604502D1BA
:100C50004FF0050C16E0DFF8B4C0604502D14FF04C
:100C6000060C0FE0DFF8A8C0604502D14FF0070C7A
:100C700008E0DFF8A0C0604502D14FF0090C01E0A8
:100C80004FF00A0C0CFA07FC4CEA060CCEF808C42C
:100C90004F68DBF80060FF0226EA020600D5164323
:100CA0005F46CBF80060D1F804C0DBF804605FEA6F
:100CB0008C2C26EA020600D516437E606E684F68CB
:100CC00026EA0206BF0300D516436E602E684F6801
:100CD00026EA0206FF0300D516432E605B1C0A6855
:100CE00032FA03F67FF416AFBDE8F88F80000058A3
:100CF000F444025800000258000402580008025848
:100D0000000C025800100258001402580018025833
:100D1000001C025800240258426921EA02030A40DA
:100D200043EA0241816170470AB181617047090459
:100D3000FBE7000001488068704700000C000024B9
:100D40000248816802781144816070470C000024D9
:100D5000032010B500F0FAF801F074FB0F4A1049B7
:100D600014681368C4F3032203F00F038A5CC95CA0
:100D700002F01F0201F01F01D0400A4A20FA01F1DF
:100D80001160094908600F2000F010F808B1012037
:100D900010BD00F09BF8002010BD00001844025860
:100DA000905600081C0000241800002410B51028DC
:100DB00004468AB02AD200220146A12000F0A6F8FB
:100DC000A12000F095F8154804601548016841F02D
:100DD00080710160006808A900F080700990684681
:100DE00001F0BCFA01F01CFB0E49400000220E4C41
:100DF000B0FBF1F10D4840F2E7330460C0E9033283
:100E0000491EC0E9011202F0B0FA10B101200AB087
:100E100010BD064802F0DCFAF9E7000010000024DB
:100E2000EC44025840420F0000E000402C0B00242C
:100E3000154BF0B5083B427813491A600B680A1F3E
:100E400023F001030B6043681360057BC67A827A46
:100E5000437B2D07847B45EA0665C77B90F809C074
:100E6000067A90F800E045EAC24040EA834040EA52
:100E7000444040EA074040EA0C2040EA460040EA8D
:100E80000E000860F0BD0000A0ED00E0BFF35F8F32
:100E9000044800210368034A23F48033036070325E
:100EA0001160704724ED00E0074A40F00100064958
:100EB00070321060086840F480300860BFF34F8FD4
:100EC000BFF36F8F7047000024ED00E0074882B049
:100ED000016841F002010160006800220F2100F06A
:100EE00002000090901E02B000F010B8F4440258C6
:100EF000002809DB410900F01F028900012001F1EF
:100F0000E0219040C1F80001704700000E4BF0B4A2
:100F10001B680D46C3F30223C3F10706042E00D954
:100F20000426191D072901D2002300E0DB1E01243D
:100F300004FA06F19C40491E2940641E9940144061
:100F40002143F0BC03F066BD0CED00E0064900F063
:100F5000070210B54FF6FF040868044B204040EA32
:100F600002201843086010BD0CED00E00000FA05F7
:100F700001680123C0F8D834002280F8CC248869A5
:100F8000044A40F000608861486D104348650020C5
:100F90007047000003000010F8B5040004D094F876
:100FA0009504002510B106E00120F8BD204684F824
:100FB000945400F057F8032084F89504206803F057
:100FC000B9FC207C8DF8000094E80F0003F084FB4E
:100FD0000226B0BB2068002103F0ECFC88BB002097
:100FE00001270CE000EBC001421C04EB81014F75AE
:100FF0000D76CD610D624D620875C885D0B221793C
:101000008142EFD8002011E000EBC001421C04EB4C
:10101000810181F8555281F85852C1F85C52C1F8EB
:101020006052C1F8645281F85402D0B221798142F1
:10103000EAD8207C8DF8000094E80F0003F0C4FB90
:1010400010B184F89564AFE7207B657484F89574DB
:10105000012802D12046FFF78BFF206803F0A6FB92
:101060000020F8BD30B5AFB00446B8216846FFF7A0
:1010700033FA15492068884223D1002302200C90BE
:1010800010240D904FF480220E90CDE90023CDE97D
:101090000A044FF44065CDE90F53020568461193E9
:1010A000219200F08FFB08B1FFF77BFA00F03AF8CD
:1010B0000648016841F000710160006800F00070AE
:1010C0002E902FB030BD000000000440D8440258DC
:1010D000134970B50A68D243520705D5096801F073
:1010E0000701814213D118E00A6822F00702024387
:1010F0000A60FFF71FFE0A4D4FF47A760446083D5A
:1011000007E000BFFFF716FE001BB04201D9012027
:1011100070BD2868C0438004F4D4002070BD000076
:101120000C4802580248016841F080710160704724
:101130000C48025810B501F03FF905490968054A05
:10114000C1F30211515C01F01F01C84010BD000045
:1011500020440258905600084A4930B5494C0B1DAE
:101160000A680C3409681D68246802F0030305F05E
:101170000102C1F30511C4F3CC04002914FB02F2EF
:1011800000EE102AF8EE400A76D0414A9FED3E1A52
:10119000DFED3E1AB7EE000A23B1012B5AD0022B25
:1011A00018D15CE0374C283C23689B0612D5394B9C
:1011B000246801EE901A1168C4F3C104F8EE612AA4
:1011C000E34001EE903AC1F30801F8EE611A81EEB6
:1011D000A22A07E002EE101A1168F8EE422A81EE08
:1011E000A22A45E001EE901A1168F8EE611A40EE6D
:1011F000811A71EE800A62EE200AC1F3462101EEE7
:10120000101AB8EE411A31EE001AC0EE811ABCEE87
:10121000E11A80ED001A1168C1F3064101EE101ABF
:10122000B8EE411A31EE001AC0EE811ABCEEE11A96
:1012300080ED011A1168C1F3066101EE101AB8EED3
:10124000411A31EE000A80EE801ABCEEC10A80ED30
:10125000020A30BD01EE901ADFED0F2A03E001EE25
:10126000901ADFED0E2A1168F8EE611A82EEA12ABB
:10127000C1F30801B6E7FFE700210160416081602A
:1012800030BD000028440258000000390024744C8E
:10129000304402580090D0030024744A20BCBE4B56
:1012A000494930B5484C0B1D0A68143409681D685B
:1012B000246802F00303C5F30012C1F30531C4F33F
:1012C000CC04002914FB02F200EE102AF8EE400ACA
:1012D00075D03F4A9FED3D1AB7EE000A6BB1DFEDC6
:1012E0003D1A012B01D0022B64D002EE101A1168B6
:1012F000F8EE422A81EEA22A21E0334C283C2368F2
:101300009B0612D5344B246801EE901A1168C4F381
:10131000C104F8EE612AE34001EE903AC1F30801FE
:10132000F8EE611A81EEA22A0BE001EE901ADFEDD1
:101330002B2A00BFF8EE611A116882EEA12AC1F3D0
:10134000080101EE901A1168F8EE611A40EE811A58
:1013500071EE800A62EE200AC1F3462101EE101AF6
:10136000B8EE411A31EE001AC0EE811ABCEEE11A55
:1013700080ED001A1168C1F3064101EE101AB8EEB3
:10138000411A31EE001AC0EE811ABCEEE11A80ED6E
:10139000011A1168C1F3066101EE101AB8EE411A84
:1013A00031EE000A80EE801ABCEEC10A80ED020A1E
:1013B00030BD04E001EE901ADFED092ABAE7002102
:1013C000016041608160F3E7284402580000003961
:1013D000384402580024744A0090D0030024744C0E
:1013E00020BCBE4B494930B5484C0B1D0A681C3423
:1013F00009681D68246802F00303C5F30022C1F3E5
:101400000551C4F3CC04002914FB02F200EE102AAB
:10141000F8EE400A75D03F4A9FED3D1AB7EE000A3C
:101420006BB1DFED3D1A012B01D0022B64D002EE2F
:10143000101A1168F8EE422A81EEA22A21E0334CFC
:10144000283C23689B0612D5344B246801EE901A81
:101450001168C4F3C104F8EE612AE34001EE903A4A
:10146000C1F30801F8EE611A81EEA22A0BE001EE49
:10147000901ADFED2B2A00BFF8EE611A116882EE98
:10148000A12AC1F3080101EE901A1168F8EE611A61
:1014900040EE811A71EE800A62EE200AC1F3462105
:1014A00001EE101AB8EE411A31EE001AC0EE811AA0
:1014B000BCEEE11A80ED001A1168C1F3064101EE9D
:1014C000101AB8EE411A31EE001AC0EE811ABCEEC5
:1014D000E11A80ED011A1168C1F3066101EE101ADC
:1014E000B8EE411A31EE000A80EE801ABCEEC10A55
:1014F00080ED020A30BD04E001EE901ADFED092A0A
:10150000BAE70021016041608160F3E72844025896
:1015100000000039404402580024744A0090D0036F
:101520000024744C20BCBE4B2DE9F04FA14A054667
:10153000DFF87CA280F48070DFF8809289B013110C
:101540009F4C08439C48AAF104064FF0805C4FF082
:10155000005828D0DFF858B285F480670F430BF1AC
:10156000080B4FD085F400670F4360D085F4805797
:101570000F4372D085F400570F434FF480394FF476
:10158000003E69D085F400270F4373D085F480377F
:101590000F4370D085F480460E436DD085F4004231
:1015A0000A436AD02AE0DAF8001001F007010529A1
:1015B00024D2DFE801F0F9AA6A259F0006A8FFF708
:1015C000CBFD079809B0BDE8F08F6846FFF768FECD
:1015D0000098F7E703A8FFF705FF0398F2E72068F4
:1015E000C0F3C10022FA00F0ECE72268D2056ED504
:1015F00061456CD11846E5E74145E3D00020E1E7BD
:101600004846DFE7DBF8001001F46001B1F5800F18
:101610003BD005DC00294AD0B1F5001FEED174E0C3
:10162000B1F5C00FECD0B1F5000FE7D162E0DBF807
:10163000001001F0E061B1F1007F26D004DCB1B30D
:10164000B1F1807FDAD160E0B1F1407FD8D0B1F163
:10165000806FD3D14EE000E01BE0DAF8001001F417
:10166000E041B1F5005F10D008DC01B3B1F5805F57
:10167000C4D14AE035E058E065E088E0B1F5405F6C
:10168000BED0B1F5804FB9D134E020688000B5D527
:10169000A0E7DAF8001001F4E021B1F5403F6DD089
:1016A00006DC61B149457BD07145A7D158E07BE0AC
:1016B000B1F5802F66D0B1F5A02F9FD10DE000F0DD
:1016C0009DFE7FE76846FFF7EBFD01987AE728E08B
:1016D00003A8FFF787FE049874E7216889038AD47A
:1016E0008CE7DBF8001011F440310ED0494510D0E2
:1016F000714583D13168256801F040516D077FF550
:1017000074AF00297FF471AF69E720680001E7D565
:101710005BE720688000E3D503A8FFF763FE059828
:1017200050E722689203DBD566E7306810F480301A
:101730003AD04845D4D120680001D1D56846FFF79A
:10174000AFFD02983EE7DBF8001001F0E041B1F197
:10175000405F13D008DC71B1614521D04145BFD154
:1017600020688000B4D449E7B1F1804F0AD0B1F1CC
:10177000A04FB2D042E7FFF7DDFC23E72068400727
:10178000AED52CE72068C005AAD533E708E0DAF823
:10179000001011F04051A0D0614505D041459FD1C6
:1017A000206800018ED429E72068800198D505E7DC
:1017B000504402580090D00340787D010080BB0067
:1017C000004402582DE9FE4F0546DFF800A450F80A
:1017D000081B0024FD4FC943019005F1280026464F
:1017E0000AF1240A009008011DD4686E50B1B0F5CA
:1017F000801F0CD0B0F5001F0ED0B0F5401F1ED0DA
:1018000001240FE0386840F40030386017E0019898
:10181000022102F055F803E00098022102F0E0F8FE
:1018200004000CD026462888C043C00523D4A86DE8
:1018300005281ED2DFE800F00C11161B1B006A6E93
:10184000DAF8001021F440111143CAF80010EAE759
:10185000386840F40030386009E00198002102F057
:101860002FF803E00098002102F0BAF80446C4B152
:1018700000E0012426462888DFF85083C04308F1A1
:101880002C0840052FD4D5F8A400B0F5C00F28D0FF
:1018900010DCB8B1B0F5001F19D0B0F5800F0FD132
:1018A0001AE0AA6DDAF8001021F007011143CAF816
:1018B0000010E0E7B0F5000F13D0B0F5200F10D006
:1018C00001240FE0386840F40030386009E00198E6
:1018D000002101F0F5FF03E00098002102F080F8FC
:1018E000044694B126462888C043000530D4D5F874
:1018F000A800B0F1407F29D011DCC0B1B0F1807FE9
:101900001AD0B0F1007F10D11BE0D5F8A420D8F890
:10191000001021F460011143C8F80010E3E7B0F1B2
:10192000806F13D0B0F1A06F10D001240FE03868A1
:1019300040F40030386009E00198002101F0C0FF58
:1019400003E00098002102F04BF8044694B12646CB
:101950002868DFF878B2C0430BF1200B80011FD458
:10196000E86CD8B110280FD0202812D0302815D01C
:10197000012414E0D5F8A820D8F8001021F0E06187
:101980001143C8F80010E3E7386840F400303860CD
:1019900004E00198022101F093FF044674B1264649
:1019A0002888C043C0042BD4E86DB0F5005F20D078
:1019B0000DDCA0B1B0F5805F0FD115E0EA6CDBF86B
:1019C000001021F030011143CBF80010E8E7B0F52A
:1019D000405F13D0B0F5804F10D001240FE038687D
:1019E00040F40030386009E00198002101F068FF00
:1019F00003E00098002101F0F3FF04468CB1264675
:101A00002888C043800429D4286EB0F5403F23D0F5
:101A100010DC08B3B0F5803F14D0B0F5003F0FD113
:101A200015E0EA6DDAF8001021F4E0411143CAF83C
:101A30000010E5E7B0F5802F0ED0B0F5A02F0BD049
:101A400001240AE00198012101F03AFF03E0009827
:101A5000012101F0C5FF044694B126462888C04301
:101A600040042AD4D5F8AC00B0F1405F23D010DC9C
:101A700008B3B0F1805F14D0B0F1005F0FD115E072
:101A80002A6EDAF8001021F4E0211143CAF80010A0
:101A9000E4E7B0F1804F0ED0B0F1A04F0BD001249D
:101AA0000AE00198012101F00BFF03E000980121F9
:101AB00001F096FF044674B126462888C04300040E
:101AC0001FD4E86ED8B1B0F1805F0ED0B0F1005FE6
:101AD00010D0012414E0D5F8AC20D8F8001021F083
:101AE000E0411143C8F80010E7E7386840F40030DF
:101AF000386004E00198012101F0E2FE044674B16F
:101B000026462868C043C0011ED4A86CD0B1012865
:101B10000ED0022811D0032814D0012413E0EA6E5D
:101B2000DAF8001021F040511143CAF80010E8E73C
:101B3000386840F40030386004E00198022101F078
:101B4000BFFE04466CB126462868C043400255D407
:101B50001F48016841F480710160FFF7EBF881468E
:101B60000EE0AA6CDBF8001021F003011143CBF862
:101B70000010E9E7FFF7DEF8A0EB090064283BD886
:101B800013480068C005F5D5BCBBDFF84090B5F838
:101B9000B01009F14409D9F8000001F4407100F4D3
:101BA0004070884211D0D9F80010D9F8002021F4F3
:101BB000407142F48032C9F80020D9F8002022F4A4
:101BC0008032C9F80020C9F8001003E02C44025804
:101BD00000480258D5F8B000B0F5807F19D1FFF762
:101BE000A9F8029011E000BFFFF7A4F80299411A8A
:101BF00041F28830814208D9032426462878DFF84C
:101C00001494C043C00721D03CE0D9F800008007FD
:101C1000EAD5D5F8B010C1F301200328FE480DD055
:101C2000016821F47C510160B5F8B020D9F80010AA
:101C3000C2F30B021143C9F80010DFE7F74A03684B
:101C400002EA111223F47C511143ECE7A86F182823
:101C500016D005DCA0B1082808D0102804D10AE06D
:101C600020280DD028280BD001240AE0019801215A
:101C700001F026FE03E00098012101F0B1FE0446C8
:101C800064B126462878C04380071ED4686F0628B2
:101C900019D2DFE800F0160C11161616AA6FD9F843
:101CA000001021F038011143C9F80010EAE701984B
:101CB000012101F005FE03E00098012101F090FEF2
:101CC00004467CB100E0012426462878C043400742
:101CD0001FD4D5F89000062819D2DFE800F0160CC2
:101CE000111616166A6FD9F8001021F0070111437A
:101CF000C9F80010E9E70198012101F0E1FD03E0D6
:101D00000098012101F06CFE0446A4B100E001241A
:101D100026462878C04380062BD4D5F88C00B0F135
:101D2000405F24D011DC10B3B0F1805F15D0B0F16A
:101D3000005F10D116E0D5F89020D8F8001021F0FF
:101D400007011143C8F80010E3E7B0F1804F0ED04F
:101D5000B0F1A04F0BD001240AE00198002101F05E
:101D6000AFFD03E00098022101F03AFE044694B171
:101D700026462878C04340062BD4D5F89800B0F505
:101D8000406F24D011DC10B3B0F5806F15D0B0F5E2
:101D9000006F10D116E0D5F88C20D9F8001021F092
:101DA000E0411143C9F80010E3E7B0F5805F0ED0C1
:101DB000B0F5A05F0BD001240AE00198002101F0EA
:101DC0007FFD03E00098022101F00AFE044694B171
:101DD00026462878C04300062BD4D5F89C00B0F5E1
:101DE000C04F24D011DC10B3B0F5005F15D0B0F5B2
:101DF000804F10D116E0D5F89820D8F8001021F4C3
:101E0000E0511143C8F80010E3E7B0F5004F0ED0E1
:101E1000B0F5204F0BD001240AE00198002101F019
:101E20004FFD03E00098022101F0DAFD044654B1B1
:101E300026462878C04300071ED4D5F88000B0F5A8
:101E4000805F0AD00FE0D5F89C20D8F8001021F46C
:101E500060411143C8F80010EBE70098022101F03F
:101E6000BFFD00B10126D5F88020D9F8001021F47B
:101E700040511143C9F800102878C043C00613D45C
:101E8000D5F89400B0F5807F05D10098022101F0CB
:101E9000A7FD00B10126D5F89420D8F8001021F450
:101EA00040711143C8F800102868C043000316D4DD
:101EB000D5F8A00038B1B0F5803F09D0B0F5003FAB
:101EC0000BD001240AE00198002101F0F9FC03E0A5
:101ED0000098022101F084FD04468CB12646286852
:101EE000C043400322D4D5F88400B0F5801F11D040
:101EF000B0F5001F13D0B0F5401F15D0012414E039
:101F0000D5F8A020D8F8001021F440311143C8F8CA
:101F10000010E4E7386840F40030386004E00098CE
:101F2000012101F05DFD04465CB126462868C043EE
:101F3000C0031CD4286D70B1B0F5803F10D00124CF
:101F400014E0D5F88420D9F8001021F44011114391
:101F5000C9F80010EAE7386840F40030386004E05F
:101F60000198022101F0ACFC0446DCB12646286849
:101F7000C043800005D40098022101F031FD00B17A
:101F800001262868C04380031BD4E86FB8B1B0F5C0
:101F9000807F10D0B0F5007F11D0B0F5407F0ED01B
:101FA00001240DE02A6DDBF8001021F4803111438B
:101FB000CBF80010DBE7386840F4003038607CB3C1
:101FC00026462868C043C00207D42A6FDAF80010FA
:101FD00021F000411143CAF800102868C043800274
:101FE00007D4AA6EDAF8001021F080711143CAF804
:101FF00000102868C043400009D40748016821F454
:10200000004101600168D5F8B420114301602868DF
:10201000C04306E05444025810440258CFFFFF006A
:102020001DE007D46A6DDBF8001021F04051114328
:10203000CBF800102868C043000208D4D5F88820E7
:10204000D9F8001021F440011143C9F80010287993
:102050000024C04300F00100204309D00EE0EA6FE5
:10206000D9F8001021F440711143C9F80010A8E715
:102070000198002101F024FC00B106462879C043F4
:1020800000F00200204305D10198012101F018FC65
:1020900000B106462879C04300F00400204305D172
:1020A0000198022101F00CFC00B106462879C043DA
:1020B00000F00800204305D10098002101F090FCB9
:1020C00000B106462879C04300F01000204305D136
:1020D0000098012101F084FC00B106462879C04334
:1020E00000F02000044304D10098022101F078FCA4
:1020F00000B916B10120BDE8FE8F0020FBE700000B
:102100002DE9F05F04000F467ED0DFF83882D8F862
:10211000000000F00F00B8420CD2D8F8001021F0F7
:102120000F013943C8F80010D8F8000000F00F0084
:10213000B84269D12078844D40070AD520692968C2
:1021400001F07001884204D9296821F0700101432F
:10215000296020787C4E361D00070AD560693168F9
:1021600001F07001884204D9316821F07001014307
:1021700031602078C0060AD5A069316801F4E061B9
:10218000884204D9316821F4E0610143316020784C
:10219000DFF8B4B180060BF1080B0CD5E1695846A5
:1021A000DBF8002002F07002914204D9026822F0AC
:1021B00070020A430260207880070AD5E068296827
:1021C00001F00F01884204D9296821F00F01014371
:1021D00029602078C0073ED05B49A268286818397A
:1021E00020F47060104328606068022818D003282B
:1021F00019D00968012819D0490700294ADADFF8FF
:1022000048A1AAF1080A00E044E0DAF8002022F030
:1022100007020243CAF80020FEF78CFD814612E057
:1022200009688903E9E709688901E6E7C905E4E780
:10223000FEF780FDA0EB090141F28830814202D90E
:102240000320BDE8F09F6168DAF8000000F0380074
:10225000B0EBC10FECD1207880070AD5E06829687F
:1022600001F00F01884204D2296821F00F010143D7
:102270002960D8F80010404601F00F01B9420BD98F
:10228000016821F00F0139430160006800F00F0080
:10229000B84201D00120D4E7207840070AD5206950
:1022A000296801F07001884204D2296821F0700188
:1022B00001432960207800070AD56069316801F080
:1022C0007001884204D2316821F07001014331600D
:1022D0002078C0060AD5A069316801F4E06188421F
:1022E00004D2316821F4E061014331602078800636
:1022F0000CD5E1695846DBF8002002F070029142EB
:1023000004D2026822F070020A43026000F09AF8D8
:102310000E492A682B68C2F3032203F00F038A5C7C
:10232000C95C02F01F0201F01F01D040084A20FAE8
:1023300001F111600749086007480068BDE8F05FD7
:10234000FEF734BD00200052184402589056000891
:102350001C000024180000241000002470B5144C48
:102360003F220260124A24680832131D114D04F006
:102370000704446016681C1D06F4706686601668C3
:1023800006F00F06C660126802F0700202611A6859
:1023900002F0700242611A6802F4E062826122680F
:1023A00002F07002C261286800F00F00086070BD82
:1023B000104402580020005230B500F043F80B4A98
:1023C0000B490C4B15681468C5F3032204F00F0485
:1023D0008A5C095D02F01F0201F01F01D040064A2D
:1023E00020FA01F119601060084630BD1844025807
:1023F000905600081C0000241800002400B5FFF7C8
:10240000DBFF05490968054AC1F30211515C01F07F
:102410001F01C84000BD00001C440258905600082F
:1024200000B5FFF7C9FF05490968054AC1F3022154
:10243000515C01F01F01C84000BD00001C4402585F
:1024400090560008454970B545480968434B103B14
:1024500011F0380208D00111082A03D0102A0BD03D
:10246000182A0BD0084670BD19688906FBD5196873
:10247000C1F3C101C84070BD3A4870BD3749374DFE
:1024800018310C1D24350A68096826682D6802F089
:10249000030406F00102C1F30511C5F3CC0515FBD9
:1024A00002F200EE102AB8EE400AE9B32F4ADFED3F
:1024B0002E0AB7EE001A6CB1DFED2D1A012C01D0F7
:1024C000022C43D002EE101A1068F8EE422A81EE78
:1024D000A22A1EE01C68A40611D51B6801EE901A02
:1024E0001168C3F3C103F8EE612AD84001EE900AE7
:1024F000C1F30800F8EE611A81EEA22A0BE001EEAA
:10250000901ADFED1C2A00BFF8EE611A106882EE07
:10251000A12AC0F3080001EE900AF8EE611A40EE1D
:10252000201A31EE810A00E015E022EE000A106860
:10253000C0F34620401C00EE900AF8EE600A80EEE0
:10254000201ABCEEC10A10EE100A70BD01EE901AFE
:10255000DFED092AD8E7002070BD000010440258C2
:102560000090D00340787D010000003930440258CB
:102570000024744A0024744C20BCBE4B2DE9F05F4B
:1025800004007DD0FF4F2078FE4D1837DFF8F4832C
:10259000103DC00748D0D8F80000396800F0380076
:1025A000102815D0182803D101F0030002280FD0FD
:1025B0006068B0F5803F12D010B1B0F5A02F18D0F0
:1025C000286820F480302860286820F4802009E002
:1025D0002868800328D560680028D2D024E02868C5
:1025E00040F480302860606888B1FEF7A3FB06469F
:1025F00009E0286840F480202860F0E7FEF79AFBA5
:10260000801B64287ED828688003F7D50CE0FEF78D
:1026100091FB064605E000BFFEF78CFB801B64289B
:10262000F0D828688003F7D42078800756D5D8F8EA
:102630000000DFF85093396810F03800A9F10C0958
:102640000ED0182801D188070AD0E068A8B32968FD
:1026500021F0190101432960FEF76CFB064628E0D2
:102660002868400702D5E06800288AD0E168286819
:1026700020F0190008432860FEF75CFB064606E0E0
:10268000D2E000BFFEF756FB801B0228BAD82868AC
:102690004007F7D5217CD9F8002022F0FE4242EA1B
:1026A0000161C9F8001019E0FEF744FB801B022805
:1026B000A8D828684007F7D5ECE7FFE7286820F09E
:1026C00001002860FEF736FB064604E0FEF732FB09
:1026D000801B022896D828684007F7D42078C006C7
:1026E00046D5D8F80000DFF89C92396800F0380031
:1026F000A9F10409082812D0182805D101F0030017
:10270000012800E0CEE00AD0E0690028286820D047
:1027100040F080002860FEF70DFB064615E02868B3
:10272000C00502D5E06980287ED194F82010D9F840
:10273000002022F07C5242EA0161C9F8001017E043
:10274000FEF7F8FA801B0228A0D82868C005F7D544
:10275000EBE720F080002860FEF7ECFA064604E084
:10276000FEF7E8FA801B022890D82868C005F7D445
:102770002078000729D583486169643000298146A3
:10278000016811D041F001010160FEF7D3FA06465D
:1027900005E000BFFEF7CEFA801B022888D8D9F8E2
:1027A00000008007F6D510E021F001010160FEF77E
:1027B000C1FA064605E000BFFEF7BCFA801B0228FE
:1027C00070D8D9F800008007F6D42078800623D589
:1027D000A0690028286810D040F480502860FEF7D7
:1027E000A9FA064605E000BFFEF7A4FA801B0228FE
:1027F00058D828688004F7D50EE020F4805028606F
:10280000FEF798FA064604E0FEF794FA801B0228C9
:1028100048D828688004F7D42078400751D5DFF8DD
:102820006891D9F8001000E015E141F48071C9F811
:102830000010FEF77FFA064605E000BFFEF77AFAC1
:10284000801B64282ED8D9F80000C005F6D54D4E5F
:10285000A068603601280AD008B1052813D0306876
:1028600020F001003060306820F0040002E03068A1
:1028700040F001003060A06841F2883A98B1FEF75C
:1028800059FA81460AE0306840F004003060EEE713
:10289000FEF750FAA0EB0901514503D830688007D4
:1028A000F6D50EE072E0FEF745FA814606E000BF7D
:1028B000FEF740FAA0EB0901514567D83068800760
:1028C000F6D4606A00287CD0DFF8B8A0D8F80010F1
:1028D0000AF1200A4FF6F87B0AF10408C1F3C2019D
:1028E0000329AAF104096DD00228286820F080701D
:1028F000286003D0FEF71EFA044681E0FEF71AFABC
:10290000064604E0FEF716FA801B022875D82868F0
:102910008001F7D4E26A40F2F331386854F8283F76
:10292000884340EA021018433860217B4FF4FE0CC4
:1029300022894FF0FE47208A4902267D521E401E02
:10294000A1F5007189B2C2F308021143761E0CEAA8
:1029500000400143484607EA06621143CAF80010E6
:10296000D9F8001021F00101C9F80010D8F80030A2
:10297000266A23EA0B0343EAC601C8F80010D9F817
:10298000001004E0104402580048025835E0A269E3
:1029900021F00C011143C9F800100168E26921F02F
:1029A000020111430160016841F480310160016856
:1029B00041F400310160016841F480210160016847
:1029C00001E06CE020E041F001010160286840F086
:1029D00080702860FEF7AEF9044604E0FEF7AAF91D
:1029E000001B022809D828688001F7D557E000BFEE
:1029F000FEF7A0F9001B022802D90320BDE8F09FD2
:102A000028688001F4D44AE039680128DAF8000027
:102A100021D0A26A01F0030393421CD1E26AC1F300
:102A200005118A4217D1216BC0F30802491E8A4260
:102A300011D1616BC0F34622491E91420BD1A16BAB
:102A4000C0F30642491E914205D1E16BC0F3066016
:102A5000491E814201D00120D0E7A16C4646D8F83A
:102A60000000C0F3CC00814219D0D9F800004D46D7
:102A700020F00100C9F80000FEF75CF94FEA0007FA
:102A8000FEF758F9B842FBD0A26C306820EA0B0080
:102A900040EAC2003060286840F001002860002051
:102AA000ACE700002DE9FC5F0446806B0E46032175
:102AB00084F83010002703285CD0B6F5004F59D0B9
:102AC000B6F5804F4FF000054FF400684FF0806975
:102AD00004D006B3606B40F000603FE00095002139
:102AE0000195206801F0C4FA80011CD46946204693
:102AF00001F0F0FA70BB019840032DD5B4F84410F2
:102B00002068090400F0FCFF20BB206802211DE0C2
:102B1000606B284322E0009500210195206801F0B8
:102B2000A7FA800101D54546F2E76946204601F043
:102B3000D1FA78B90198C0030ED5B4F844102068D2
:102B4000090400F0DDFF28B92068002101F022F817
:102B50000028DDD00546DBE74D46D9E76063606BB2
:102B60004FF4007BDFF8B8A040B121680127C1F81D
:102B700038A042E0606B40F08050EFE700214FF456
:102B80008030FEF7D1FC010032D0264D3346D4E927
:102B900004C0B1FBF5F8D4E90192804510D9A66DC7
:102BA0005E450DD0B6F5807F11D04FEA6506E0B1E5
:102BB0004FEA4008B1FBF8F8B04501D9B1FBF5F098
:102BC0004946CDE900C0206801F056FA15E0164EDE
:102BD00030B14FEA4008B1FBF8F8A84502D8EFE75A
:102BE000A942EDD9B1FBF6F0EAE7B142E6D8E7E752
:102BF000606B012740F0006060632068594600F078
:102C0000B0FF30B122680127C2F838A0616B0143E0
:102C10006163012084F830003846BDE8FC9F000065
:102C2000FF0FE01F80F0FA0200E1F505F0B5C26D7C
:102C3000920F0A70C26DC2F383624A70C26DC2F312
:102C400001628A70C26D120CCA70B0F85C20120A60
:102C50000A7190F85C204A71026E120DCA80026EF1
:102C6000C2F303420A72B0F86020C2F3C0324A7263
:102C7000B0F86020C2F380328A72B0F86020C2F3EC
:102C80004032CA72B0F860200026C2F300320A73E4
:102C90004E730122836B4FF4007463B1012B3AD061
:102CA000036850499963416B41F08051416380F85A
:102CB00030200120F0BDB0F86030456E9B051B0D43
:102CC00043EA95730B61436EC3F3C2630B75436EA6
:102CD000C3F302634B75436EC3F342538B75436E6C
:102CE000C3F38243CB75436EC3F3C2330B760D69D6
:102CF0006D1C85640B7E03F007039B1C9D4085645F
:102D00000B7A446503F00F0302FA03F35F0A7D4375
:102D1000C0E913350EE090F86050436EAD06AD0A81
:102D200045EA13430B610B695B1C9B028364C0E99A
:102D300013434465B0F86430C3F380334B76B0F886
:102D40006430C3F3C6138B7690F8643003F07F03CE
:102D5000CB76836EDB0F0B77836EC3F341734B77B8
:102D6000836EC3F382638B77836EC3F38353CB7716
:102D7000836EC3F3405381F8203081F82160836E65
:102D8000C3F3004381F82230B0F86830C3F3C03396
:102D900081F82330B0F86830C3F3803381F82430F1
:102DA000B0F86830C3F3403381F82530B0F86830AC
:102DB000C3F3003381F82630B0F86830C3F38123C1
:102DC00081F82730B0F86830C3F3012381F8283048
:102DD00090F86800C0F3460081F8290081F82A20A5
:102DE0000020F0BDFF0FE01F70B5B0F844100025C3
:102DF00004460068090400F086FF18B1616B0143C6
:102E0000616304E02068002101F032F90546C5F352
:102E1000432070BD2DE9F041054690F8300090B098
:102E20000C460026032810D06946284601F09AFA7D
:102E30002A4F4FF0010860B12A68012697636A6B38
:102E400002436A6385F8308039E0012010B0BDE8A4
:102E5000F08100994FF47F40C1F3811121700099F6
:102E6000C1F340116170009900EA112242EA116138
:102E70006180019909BA6160029921720299090A77
:102E800061720299C1F30351A172DDE9022100EAE6
:102E90001240C9B20843A0810398C0F38520A073F3
:102EA0000398C0F30120E0730398C0F3031020746B
:102EB000039800F00F0060740498000EA074286856
:102EC0004FF4007100F04DFE28B12A680126976387
:102ED000686385F830803046B8E70000FF0FE01FD8
:102EE000F0B5040085B020D094F83000002518B962
:102EF0002046257600F098F8042084F8300020461B
:102F000000F03CF888B969462046FFF783FF60B9B6
:102F10009DF81010A26B9DF81100012A08D0A5653C
:102F20002046E168FFF7BEFD58B1012005B0F0BDB5
:102F3000014302D04FF4007001E04FF48070A065AF
:102F4000EEE7FDF7F7FE0127064604E0FDF7F2FE87
:102F5000801B401C0AD02046FFF746FF0428F5D10D
:102F60006563E56284F830700020DFE74FF00040D1
:102F7000606384F830700320D8E700002DE9FC413D
:102F80004FF0000804464FF480304146FEF7CCFA7B
:102F900005004FF0010723D02048434642464146F2
:102FA000B5FBF0F6CDE90086206801F065F82068F1
:102FB00001F072F81EB17000B5FBF0F52DB11848A4
:102FC000B0FBF5F0401CFDF7E1FB204601F070F985
:102FD00060B100BF84F83070616B0143616319E038
:102FE0004FF0006084F83070606313E0204601F019
:102FF000E3F80028EED120684FF4007100F0B1FD35
:10300000002808D0226807499163616B014361631E
:1030100084F830700120BDE8FC81000000350C0010
:1030200010210100FF0FE01FF0B5B5B004461421D8
:103030002EA8FDF751FAB8216846FDF74DFA23494D
:10304000206888423FD1002014904FF4803104461C
:10305000CDE900106846FEF7B5FB08B1FDF7A1FA0F
:103060001B48016841F480310160006800F4803041
:10307000339017480C30016841F004010160016889
:1030800001F004013391016841F00801016000681A
:10309000022530AA00F0080033904FF4F850CDE933
:1030A0002E0503260B480C2782E8D0002EA9FDF739
:1030B00025FD042030AACDE92E0507482EA982E877
:1030C000D000FDF71BFD35B0F0BD000000700052D0
:1030D000D444025800080258000C02582DE9F04769
:1030E000040029D0594A4FF000092068584B594D27
:1030F0009042C4F8289006D0984204D0A84202D04A
:10310000E1680F2918D8E1684FF0010AE76B083130
:10311000C9080AEB57167143904205D0984203D074
:10312000A84201D0082907D8904203D0984201D084
:10313000A84204D1102902D90120BDE8F08794F8F3
:10314000810020B9204684F8809000F085F80220A4
:1031500084F881002068016821F001010160206885
:10316000A1698268B1F1806F02F4F81110D1626830
:10317000B2F5800F01D01AB10AE0A26B22B107E0CC
:10318000A26BB2F1805F03D1026842F48052026008
:103190006068400209D5E068072806D32068236DDF
:1031A000026822F480721A4303E02068026822F465
:1031B00080720260A66AE069E26B25683043E368CA
:1031C0000A4310431843A860D4E90D02D4E90581ED
:1031D000636A25691843D4F820C00A43266810435F
:1031E0002843A56DD4E90172D4E9123140EA080000
:1031F00040EA0C0038430843104318432843F0606A
:10320000606868B92068816821F4C05141F40061A8
:1032100081602068816821F4C06141F4806181602F
:103220002068016D21F0010101656068400206D54A
:103230002068626DC16821F000411143C160C4F88B
:10324000849084F881A0002077E7000000300140DE
:1032500000380040003C00402DE9F041B4B0044685
:1032600014212EA8FDF738F9B8216846FDF734F986
:10327000364D022736494FF005082068103D334E81
:103280000024884236D1811417940020CDE9001023
:103290006846FEF797FA08B1FDF783F9306840F405
:1032A00080503060306800F480503390286840F0DF
:1032B00008002860286800F008003390286840F073
:1032C0000200286028682EA9454600F002003390CD
:1032D00080202E90CDE92F741E48CDE93148FDF7AE
:1032E0000DFC18202E90CDE92F741B482EA9CDE996
:1032F000314526E01949884225D14114189400200F
:10330000CDE900106846FEF75DFA08B1FDF749F90E
:10331000306840F400503060306800F40050339062
:10332000286840F01000286028684FF4E0412E9192
:103330002EA900F01000CDE92F743194CDE9328030
:103340000748FDF7DBFB34B0BDE8F081F0440258DC
:1033500000300140000C02580004025800340140C3
:103360000010025870477047704710B5040003D032
:1033700094F83D0010B107E0012010BD002084F852
:103380003C00204600F022F8022084F83D0020682E
:10339000211D01F031F9012084F8480084F83E0035
:1033A00084F83F0084F8400084F8410084F842002B
:1033B00084F8430084F8440084F8450084F846000B
:1033C00084F8470084F83D00002010BD70470000DD
:1033D00090F83D10012901D0012070471A4A0221BE
:1033E00080F83D100168CB6843F00103CB600068B2
:1033F00090421AD0B0F1804F17D01449884214D0AF
:103400001349884211D0134988420ED0124988428C
:103410000BD01249884208D01149884205D0114981
:10342000884202D01049884207D181680F4A114072
:10343000062906D0B1F5803F03D0016841F00101B3
:1034400001600020704700000000014000040040BF
:1034500000080040000C004000040140001800403B
:103460000040014000E0004000E40040070001008F
:1034700070472DE9F041044600680027C6680569D9
:10348000A90713D5B10711D5FA1E026101212177D1
:10349000206880698007204602D0FFF7E9FF04E03A
:1034A00000F08BF8204600F089F82777680716D5DA
:1034B000700714D5226802206FF004011161207793
:1034C0002068806910F4407F204602D0FFF7D0FFCB
:1034D00004E000F072F8204600F070F82777280723
:1034E00015D5300713D5226804206FF0080111614B
:1034F00020772068C0698007204602D0FFF7B8FF18
:1035000004E000F05AF8204600F058F82777E80663
:1035100016D5F00614D5226808206FF0100111614D
:1035200020772068C06910F4407F204602D0FFF762
:103530009FFF04E000F041F8204600F03FF82777B5
:10354000E80708D0F00706D021686FF00100086195
:10355000204600F035F8280601D4A80408D5300626
:1035600006D521686FF4025008612046FFF7FBFE84
:10357000E80508D5300606D521686FF4807008612B
:103580002046FFF7EFFE680608D5700606D52168CD
:103590006FF040000861204600F01CF8A8060AD52C
:1035A000B00608D521686FF0200008612046BDE80C
:1035B000F041FFF7D9BEBDE8F081704770470000C9
:1035C00000680349884201D1FDF7BABB704700008B
:1035D00000E000407047FEE71548002110B5134C8D
:1035E00001220423046010248160C16001744174CD
:1035F0008174C0E90542C261026242628262C262B3
:10360000C0E90C218163C163C0E91013C0E9121342
:10361000C0E914138165C1650166C0E91913FDF79E
:10362000C7F8002801D072B6FEE710BD00A0004028
:10363000880000241548002110B5134C01220423F2
:10364000046010248160C160017441748174C0E918
:103650000542C261026242628262C262C0E90C211A
:103660008163C163C0E91013C0E91213C0E91413E8
:103670008165C1650166C0E91913FDF799F8002855
:1036800001D072B6FEE710BD00A40040280100245E
:103690001548002110B5134C0122042304601024A6
:1036A0008160C160017441748174C0E90542C261E6
:1036B000026242628262C262C0E90C218163C1631C
:1036C000C0E91013C0E91213C0E914138165C16584
:1036D0000166C0E91913FDF76BF8002801D072B636
:1036E000FEE710BD00D40040C801002410B586B02C
:1036F00014216846FCF7F0FE2548016841F080017E
:103700000160016801F080010591016841F010013C
:103710000160016801F010010591016841F00801A4
:103720000160016801F008010591016841F0400164
:103730000160016801F040010591016841F0040158
:103740000160016801F004010591016841F0010187
:103750000160016801F001010591016841F0020179
:103760000160006801220B4C802100F002000590EE
:103770002046FDF7D9FA012100228020CDE9000181
:10378000CDE9021269462046FDF7B8F906B010BD32
:10379000E04402580018025870B5134803224FF451
:1037A0008004104D00212301C0E9021201611A01B9
:1037B000C0E90513C161016241628162C162C0E971
:1037C0000D21C163016441648164C1640165416587
:1037D0008165C0E90054FFF781FC002801D072B672
:1037E000FEE770BD00300140E402002470B51348CC
:1037F00003224FF48004104D00212301C0E902127E
:1038000001611A01C0E90513C1610162416281626F
:10381000C162C0E90D21C163016441648164C16476
:10382000016541658165C0E90054FFF757FC002838
:1038300001D072B6FEE770BD003401406C03002475
:103840000C48092310B50A4C0222002104600371C0
:10385000C271817142728172C17201738173C173CD
:103860000174FDF799FB002801D072B6FEE710BD88
:1038700000000440F4030024FEE7FEE730B5AFB0DB
:10388000B8216846FCF728FE00230220049010248B
:103890004FF40042CDE90023C0250590CDE9020494
:1038A00006900207CDE90753684609931B92FDF77E
:1038B00089FF002801D072B6FEE72FB030BD0000AE
:1038C0002DE9F047454D044689464FF0000A286827
:1038D000C04380070AD0414E283E306820F0806007
:1038E0003060FDF727FA0746B04608E00120BDE842
:1038F000F08700BFFDF71EFAC01B022867D8D8F872
:1039000000000001F6D4206829684FF4FE0721F476
:103910007C313E0241EA00302860207AA389B4F865
:1039200004C040022D4D2D495B1E227CACF1010CE0
:103930001035091DA0F5007080B2521ECCF3080CA2
:1039400007EA034340EA0C00184306EA0262104308
:1039500028600868626920F0C000104308600A68A7
:10396000A06922F0200202430A60281D0A6822F0A2
:1039700010020A6002684FF6F873E4699A4342EA5B
:10398000C40202600868B9F1000F40F010020A603A
:1039900011D00868B9F1010F11D040F4001008608F
:1039A000D8F80000444640F08060C8F80000FDF7F9
:1039B000C1F905460DE0086840F40020EFE740F447
:1039C0008010ECE7FDF7B6F9401B022801D903206F
:1039D0008DE720680001F5D5504688E72844025855
:1039E0002DE9F047454D044689464FF0000A286806
:1039F000C04380070AD0414E283E306820F08050F6
:103A00003060FDF797F90746B04608E00120BDE8B1
:103A1000F08700BFFDF78EF9C01B022867D8D8F8E1
:103A200000008000F6D4208829684FF4FE0721F0BA
:103A30007C713E0241EA00502860207AA389B4F8E4
:103A400004C040022D4D2D495B1E227CACF1010CBF
:103A50001835091DA0F5007080B2521ECCF3080C79
:103A600007EA034340EA0C00184306EA02621043E7
:103A700028600868626920F44060104308600A68A2
:103A8000A06922F4007202430A60281D0A6822F429
:103A900080720A6002684FF6F873E4699A4342EA5A
:103AA000C40202600868B9F1000F40F480720A6035
:103AB00011D00868B9F1010F11D040F08070086092
:103AC000D8F80000444640F08050C8F80000FDF7E8
:103AD00031F905460DE0086840F48000EFE740F456
:103AE0000000ECE7FDF726F9401B022801D903206E
:103AF0008DE720688000F5D5504688E728440258B5
:103B000030B585B0044637204FF480720DF1080CB3
:103B1000CDE9001000236946150120468CE82C00F1
:103B200000F0C4FA372141F28832204600F04AF909
:103B300005B030BD30B585B0044629204FF4807201
:103B40000DF1080CCDE9001000236946150120464F
:103B50008CE82C0000F0AAFA204600F0EFF905B03E
:103B600030BD30B50446102085B00DF1080C0201BF
:103B70000502CDE90010002369468CE82C002046A0
:103B800000F094FA102141F28832204600F01AF930
:103B900005B030BD30B585B0044606204FF48072C4
:103BA0000DF1080CCDE900100023694615012046EF
:103BB0008CE82C0000F07AFA062141F28832204687
:103BC00000F000F905B030BD30B585B005460024E1
:103BD00069464FF48050009401940294CDE903406B
:103BE000284600F063FA0B4A4FF4FA5041F288314C
:103BF0001268B2FBF0F04843401E03D24FF0004081
:103C000005B030BD696B0906F6D503492046A963A6
:103C1000F6E7000018000024C500200030B5082198
:103C2000044685B04FF4D5704A0100234D028DE85B
:103C30002F006946204600F039FA204600F0E8F9E6
:103C400005B030BD30B585B0044607204FF4807212
:103C50000DF1080CCDE9001000236946150120463E
:103C60008CE82C0000F022FA072141F2883220462D
:103C700000F0A8F805B030BD10B585B004460021AD
:103C800002204FF44072C3020493CDE90010CDE945
:103C900002216946204600F009FA204600F024F986
:103CA00005B010BD30B585B0044609200DF1080CF3
:103CB0000023CDE900104FF4407269464FF480555F
:103CC00020468CE82C0000F0F1F9204600F00CF9B9
:103CD00005B030BD10B585B00446002133204FF447
:103CE0008072CDE90221CDE900101301694620461A
:103CF000049300F0DBF9332141F28832204600F0D2
:103D000061F805B010BD30B585B004460D204FF404
:103D100080720DF1080CCDE90010002369461501F1
:103D200020468CE82C0000F0C1F90D2141F28832C8
:103D3000204600F047F805B030BD30B585B00C46E0
:103D40000021054603204FF48072CDE90221CDE920
:103D50000010130169462846049300F0A7F90321D7
:103D60002246284600F00EF905B030BD10B585B0EA
:103D7000044600210D204FF48072CDE90221CDE9E7
:103D80000010130169462046049300F08FF90D21BD
:103D900041F28832204600F015F805B010BD70B52C
:103DA0000A6842624A688262C46AD1E90225D1E99E
:103DB000043624F0FF012A4333431A431143C162FE
:103DC000002070BD30B5464D4FF4FA53434C2D687A
:103DD000B5FBF3F353435B1E02D24FF0004030BDFE
:103DE000426B2242F7D09204F5D4426B520703D5BE
:103DF00004218163084630BD426BD20702D0012105
:103E0000816306E0354A803282630269D2B28A4217
:103E100001D0012030BD002100F02AF931490842CB
:103E200001D1002030BD002802DA4FF0007030BD13
:103E3000410001D5402030BD810001D5802030BD3A
:103E4000C10002D54FF4807030BD010102D54FF49E
:103E5000007030BD410102D54FF4806030BDC1011A
:103E600002D54FF4006030BD010202D54FF48050FE
:103E700030BD410202D54FF4005030BD810202D561
:103E80004FF4804030BDC10202D54FF4004030BD38
:103E9000410302D54FF4003030BD810302D54FF409
:103EA000802030BDC10302D54FF4002030BD010495
:103EB00002D54FF4801030BD410402D54FF40010FC
:103EC00030BD810402D54FF4800030BD000702D51B
:103ED0004FF4000030BD4FF4803030BD450020006D
:103EE0001800002408E0FFFD124B4FF4FA5141F294
:103EF00088321B68B3FBF1F15143491E02D24FF0E7
:103F000000407047426B12F0450FF6D09204F4D493
:103F1000416B490703D50421816308467047416B13
:103F2000C90703D0012181630846704702498163B4
:103F30000020704718000024C50020000F4B4FF4EC
:103F4000FA5141F288321B68B3FBF1F15143491E2B
:103F500002D24FF000407047426B12F0450FF6D08E
:103F60009204F4D4416B490703D5042181630846C8
:103F70007047034981630020704700001800002447
:103F8000C500200030B5204D4FF4FA5341F288347B
:103F90002D68B5FBF3F363435B1E02D24FF0004084
:103FA00030BD446B14F0450FF6D0A404F4D4436B39
:103FB0005B0703D504218163084630BD436BDB07F3
:103FC00002D00121816303E00369DBB28B4201D09F
:103FD000012030BD0D498163002100F049F810F443
:103FE000604F04D0410406D54FF4005030BD000CA2
:103FF0001080002030BD000402D54FF4805030BD49
:104000004FF4803030BD000018000024C5002000AF
:10401000144B4FF4FA5141F288321B68B3FBF1F1B3
:104020005143491E02D24FF000407047426B12F0DC
:10403000450FF6D09204F4D4416B490703D504210F
:10404000816308467047416BC90703D00121816332
:1040500008467047416B490601D540218163002025
:104060007047000018000024006800F0030070474B
:10407000084440697047000030B511434268DDE9EB
:1040800003542B43034D194321432A400A43426002
:10409000002030BD002CC0FF016841F00301016029
:1040A00000207047D0F880007047000070B5084DC0
:1040B0000A688260C368D1E90126D1E903412B4037
:1040C00032430C4322431343C360002070BD000001
:1040D000C0E0FEFF2DE9F04F87B00D460446FCF727
:1040E00029FE0026069020680821B3463746FFF7D0
:1040F00038FD002833D1B4F8441020680904FFF7D4
:10410000FFFC00282BD1431E4FF008094FF0020A94
:104110004FF0300C4FF00108CDF80CA08DE80812DC
:10412000CDE9046820686946FFF739FE2068FFF78B
:10413000D1FD002813D140F22A582068416B11EAC2
:10414000080F06D1416B090315D4BBF1000F09D04C
:1041500011E0416B090717D5C0F83890082007B067
:10416000BDE8F08FFFF79EFF06462068FFF79AFF35
:1041700007464FF0010BFCF7DDFD0699401A401C85
:10418000DBD14FF00040EAE7416B890703D5C0F867
:1041900038A00220E3E7416B890603D52021816323
:1041A0000846DCE7034A39BA33BA82630020C5E91E
:1041B0000013D4E73A0F001870B58CB00446002005
:1041C000ADF82C00FCF7B6FD05462068FFF74CFF64
:1041D000002853D0A06B032841D02068FFF74CFD86
:1041E000002849D120680021FFF742FFE066042142
:1041F0002068FFF73DFF206708212068FFF738FFA0
:1042000060670C212068FFF733FFA16BA0670329CB
:1042100025D041F2883600BFBDF82C0088B3A06BD2
:1042200003281CD0BDF82C10616420680904FFF736
:1042300039FD002820D120680021FFF719FFE06533
:1042400004212068FFF714FF206608212068FFF78B
:104250000FFF60660C212068FFF70AFFA0660421AB
:104260002068FFF705FF000D694620642046FEF731
:10427000DDFCA8B14FF080500CB070BD4FF08060F5
:10428000FAE7FFE720680BA9FFF757FD0028F3D1F5
:10429000FCF750FD401BB042BED34FF00040EBE7AF
:1042A000B4F8441020680904FFF7CCFCE4E70000F0
:1042B0002DE9F84F002604463546B04600960068C2
:1042C000FFF782FC002829D12068FFF7A7FCB0F196
:1042D000004F4FF001094FF0805B4FF6FF7702D09F
:1042E000C4F83C9008E0E6632068FFF76DFC002806
:1042F00014D1E06B01281ED120680021FFF700FCDB
:1043000058B918E020680021FFF7FAFB002805D112
:1043100020685146FFF70EFC10B15846BDE8F88FF3
:1043200020680021FFF7A4FE4FEAD07805460098E8
:10433000401C009002E0DFF828A00098B84202D2AA
:10434000B8F1000FDED00098B84202D34FF0807071
:10435000E4E76800A66301D5C4F838900020DDE7E3
:10436000000010C12DE9F04186B00D460446FCF76F
:10437000E1FC002107462068FFF77AFE800104D5A2
:104380004FF4006006B0BDE8F08120684021FFF7DF
:10439000E8FBC0B9B4F8441020680904FFF7B0FB8B
:1043A00088B940214FF0FF3060224FF0010C02230A
:1043B00000268DE84F1020686946FFF7F0FC206862
:1043C000FFF7D4FC98B1616B6163DBE7406B0004DD
:1043D00007D500262068FFF765FE761C082E01C56C
:1043E000F8D3FCF7A7FCC01B401C02D127E04FF01C
:1043F00000482068416B11F4957FE7D0416B0907B5
:1044000001D50820BEE7416B890701D50220B9E735
:10441000406B80060AD52020B4E700BFFFF742FEBC
:1044200001C5FCF787FCC01B401C08D02068416B0D
:10443000C904F3D40146034888630020A2E740463C
:10444000A0E700003A0F0018012000F066FBFBE730
:10445000502010B580F31188BFF34F8FBFF36F8FDB
:1044600000F0FEFF18B104494FF0805008600020B2
:1044700080F3118810BD000004ED00E070B59CB021
:104480004C216846FCF728F8202113A8FCF724F8F3
:104490000220FCF71DFE1E48016821F44041016026
:1044A0000168002401F440411B9101688904FCD596
:1044B00002200A902C230990C20301210D910525A9
:1044C000CDE90012CDE90B030C261294CDE90E5074
:1044D000CDE910646846FEF751F808B172B6FEE700
:1044E00040201A9008230501CDE9163013ABCDE921
:1044F00018053F21032283E8160013A81146FDF793
:10450000FFFD002801D072B6FEE71CB070BD0000B0
:10451000184802582D48F0B52D4A016841F4700141
:104520000160106800F00F00072804D2106820F026
:104530000F00C01D106027490020264C10340B6866
:10454000254D43F001030B6020600B682B400B608E
:10455000136803F00F03072B04D9136823F00F032C
:10456000DB1D13601B4C1D4A18341D4B261D371DC7
:104570002060184C1B4D28343060261D3860371DD4
:1045800023603B1D35601C1D3A60251D2E1D1860E3
:10459000331D22602860326018600B680D4A0D4C94
:1045A00023F48023D4320B60603420601068C00490
:1045B0000BD4136843F2D2000B4943F480531360C9
:1045C0000860106820F480501060F0BD88ED00E0B5
:1045D00000200052004402587FEDF6EA80020101FB
:1045E000000202020000FF01004000520148FEF7F5
:1045F00040BF00002C0B00242DE9F0472C4B4FF05E
:10460000804A2C4D026898422B4E2C4F2C4C09D0DE
:10461000504507D0A84205D0B04203D0B84201D0DF
:10462000A04205D1D1F804C022F070024CEA020287
:10463000DFF890C0DFF890809842DFF8909015D0B6
:10464000504513D0A84211D0B0420FD0B8420DD07F
:10465000A0420BD0604509D0404507D0484505D061
:104660001B4DA84202D01B4DA84203D1CD6822F4B5
:1046700040722A438E684D6922F08002C6620E683D
:104680002A439842866207D0A04205D0604503D0F5
:10469000404501D0484501D1096901630368012102
:1046A00043F00403036041610260BDE8F08700004D
:1046B000000001400004004000080040000C0040E1
:1046C0000004014000400140004401400048014016
:1046D00000E0004000E4004070B50D460446C2F31F
:1046E00007211E460498012922D0E06840F04000CE
:1046F000E060204600F03CF8C6F307210029A16BDA
:104700002ED021F48031A163C5F3074101290ED1D8
:10471000E16D154A89B2E165E16D1143E165A1687A
:1047200041F00601A160A16841F02001A16070BDC7
:10473000A26BC3B20D49012B22F48030A063E06864
:1047400000EA0100E060E06820F44010E06003D17E
:10475000E06840F48010E060204600F009F8D3E7FC
:1047600041F48031CFE700000000EE03BFFFBDFF42
:1047700008B500214FF070620091009B5B1C009314
:1047800093420CD80369002BF7DA0091016941F0DC
:10479000010101610099491C0091914201D9032056
:1047A00008BD0169C907F5D1002008BDD0F8001E79
:1047B00021F00301C0F8001ED0F8041841F00201F6
:1047C000C0F80418002070472DE9F04F00250F466F
:1047D000904604462E46284604EB8001C1F8045159
:1047E000401C0F28F8D3C3F307405FEA00092046B6
:1047F00010D0806B40F40011C4F83810C8F30720C3
:10480000C4F8005E0128204617D0D0F8001841F007
:10481000030119E0D0F8040840F00201C4F80418BC
:10482000A06B20F40011A163206840F040012160DA
:10483000206840F080012160E0E7D4F80018380ECD
:10484000204601D041F00101C0F80018102100F00D
:1048500093F800B10126204600F072F800B101265D
:104860004FF67F3A4FF0006CC4F810584FF0904B61
:10487000C4F81458C4F81C580020FAB214E000BF61
:1048800004EB4011D1F80039002B06DA10B1C1F861
:1048900000B904E0C4F800C901E0C1F80059C1F84A
:1048A0001059C1F808A9401C8242E9D8002013E041
:1048B00004EB4011D1F8003B002B06DA10B1C1F82F
:1048C00000BB04E0C4F800CB01E0C1F8005BC1F814
:1048D000105BC1F808AB401C8242E9D8D4F810083C
:1048E000C7F30742002A6FF0804120F48072C4F8B9
:1048F0001028A561616103D1A06940F01000A0619A
:10490000A069C8F30741094A1043A06119B1A06921
:1049100040F00800A061B9F1010F03D1A06904497A
:104920000843A0613046BDE8F08F000000383C80AD
:1049300004000040816821F001018160002070477F
:1049400008B500214FF070620091009B5B1C009342
:1049500093420AD80369002BF7DA00911023036110
:104960000099491C0091914201D9032008BD0169B9
:10497000C906F5D4002008BD18B500224FF07063B9
:104980000092009C641C00949C420CD80469002C8A
:10499000F7DA2024009244EA811101610099491C50
:1049A0000091994201D9032018BD01698906F5D407
:1049B000002018BD70B50446C06801294FF00005FD
:1049C00020F0C040E06001D079B120E0E06840F024
:1049D0000050E0600A20FBF7D9FE60690A3510F04C
:1049E000010F10D1C82DF5D30DE0E06840F08040F4
:1049F000E0600A20FBF7CAFE60690A3510F0010F7B
:104A000001D0C82DF5D3C82D01D0002070BD0120E4
:104A100070BDFEE7090700284FEA116104DB00F1D1
:104A2000E02080F80014704700F00F0000F1E02053
:104A300080F8141D7047000092B000240094019487
:104A400002940394FCF722FA01208DF80C001F2138
:104A50008DF8081087228DF809208DF80D008DF84B
:104A6000000068468DF80A408DF80E408DF8014030
:104A700001948DF80B408DF80F40FCF7D9F9042014
:104A8000FCF712FAFCF764F9FFF7F8FCFEF7F6FE04
:104A9000FEF72CFEFEF7A0FDFEF7CCFDFEF7F8FDBD
:104AA00017484FF48041154AC0E90024C0E902418B
:104AB00004614461FEF714FA08B172B6FEE7FEF72E
:104AC0006BFEFEF793FEFEF7BBFE0E491C2204A808
:104AD000FBF7D0FC002104A800F02BF80A4C1C22A4
:104AE00008491C3120600BA8FBF7C4FC00210BA86F
:104AF00000F01FF8606000F017F8FEE70070005249
:104B000068020024FC5500080000002484280146A7
:104B10004FF0000000D0C81C704710B500B901204C
:104B200000F03AFB002010BD10B500F05BFB002048
:104B300010BD7FB50D4641690446B0F9080081B14A
:104B4000A16971B1FFF7E2FFD4E905122B468DE8A8
:104B500007002269D4E9001000F057FC039004B06C
:104B600070BDFFF7D3FF03A92B46CDE90001228AD0
:104B7000D4E9001092B200F01BFC012801D0002003
:104B8000EDE70398EBE700002DE9F041184C0F46E4
:104B90000546E6682068001D00F034FA38B922683E
:104BA0000121206992F82C20914088432061681CE3
:104BB00007D137B12168BDE8F0410E48091D00F06A
:104BC00067BA20683544B5424560216805D2A06BBC
:104BD000091DBDE8F04100F043BA606B091D00F00B
:104BE0003FFAA06A854200D2A562BDE8F0810000CC
:104BF00020000024540C00242DE9F041054600F06B
:104C000053FA2E4C2E4FA068401CA060206810B1B3
:104C1000606940B32DE02560A068012829D10026F5
:104C200006EB860007EB800000F00CFA761C072EDE
:104C3000F6D323488C3000F005FA2148A03000F06C
:104C400001FA1F48B43000F0FDF91D48C83000F0EB
:104C5000F9F91B48DC3000F0F5F919488C30606335
:104C60001430A06305E0E86A2168C96A814200D86F
:104C700025600120616A491C6162E96A22698840F5
:104C80001043206101EB8100291D07EB800000F03B
:104C9000FFF900F029FA606900280CD02068E96A61
:104CA000C06A884207D207494FF080500860BFF3BE
:104CB0004F8FBFF36F8FBDE8F0810000200000240C
:104CC000780B002404ED00E010B5044690F8510084
:104CD00058B101280CD002280FD0502080F3118841
:104CE000BFF34F8FBFF36F8FFEE7206B00F010FA1A
:104CF0002046BDE8104000F00BBA10BD11484FF43B
:104D0000705110B5420706D00E49C01D20F00700B3
:104D1000411AC1F570510C4C002301440839A4F12B
:104D2000180221F00701C4E900030C1A11604B605E
:104D30000B60C0E9001494604FF000415460516171
:104D400010BD00000000002074000024144E4FF03D
:104D50008058144CDFF85090A6F1C80712E000BF4D
:104D600000F0A2F9F068C568281D00F04BF9A068B2
:104D7000401EA0606068401E606000F0B5F92846E3
:104D8000FFF7A2FF60680028EAD138680128F9D946
:104D9000C9F80080BFF34F8FBFF36F8FF2E70000B9
:104DA000400C00242000002404ED00E02DE9F04731
:104DB0009A4681466FF00303DDE9098403EB820222
:104DC000089E206B104420F00707780707D050207A
:104DD00080F31188BFF34F8FBFF36F8FFEE74FF063
:104DE000000561B1002023180A5C83F834200A5CB6
:104DF00012B1401C1028F6D384F8435001E084F827
:104E00003450072E00D30626E662201DC4E9116542
:104E100000F023F904F1180000F01FF9E564C6F171
:104E20000700A06184F85050524624614946384634
:104E3000646200F0C1F8B8F1000F206001D0C8F83A
:104E40000040BDE8F087000030B5114900E0114690
:104E50000A688242FBD34B685C18844203D14468E1
:104E6000084623444B6043681D18954209D1084CFD
:104E7000183C2468A24209D052681A4442600A6869
:104E800012680260814200D0086030BD0460F9E71A
:104E9000740000240648416B096829B1416BC96858
:104EA000C9684968816270474FF0FF31FAE7000036
:104EB0002000002408484068401C4FF0500080F358
:104EC000118804D0BFF34F8FBFF36F8FFEE7BFF39E
:104ED0004F8FBFF36F8FFEE77C0000242DE9F04178
:104EE0000027044600F0B4F9324E306808B9FFF7E5
:104EF00005FF706904424ED1C4B3083460070ED078
:104F000004F00700C0F108000444600707D05020F7
:104F100080F31188BFF34F8FBFF36F8FFEE72CB381
:104F20007068844237D82348183001460D6801E084
:104F300028460D466968A14202D229680029F7D1A6
:104F400031688D4227D00768296801600837686892
:104F5000011B10290FD92819420708D0502080F3CF
:104F60001188BFF34F8FBFF36F8FFEE713E04160EF
:104F70006C60FFF769FF69687068401A7060B2681A
:104F8000904200D2B060002072691143C5E900016F
:104F9000F068401CF06000F0C9FA780707D0502094
:104FA00080F31188BFF34F8FBFF36F8FFEE7384652
:104FB000BDE8F0815C00002470B5041F094E231F7A
:104FC0004FF0807521F0010125601C1F1960A0F1D0
:104FD00020010B1F266044380A606FF002051D6037
:104FE00070BD0000B54E0008054C4FF4FA758021E5
:104FF0002046FBF791FE2846FFF78FFDF7E70000FC
:1050000000180258D0E9013201699A60D0E9012301
:105010005A604A68824201D182684A600022026175
:105020000868401E086008687047000010B5044C0E
:105030008023046004F154000860136010BD000078
:10504000D80800244FF0FF3300F108010022C0E926
:1050500001130260C1600161704700210161704766
:1050600030B50B685A1C02D000F1080202E0026958
:1050700004E02246546825689D42FAD953684B6083
:1050800099608A60516008610168491C016030BD07
:1050900042684A6093688B609368596091600861C8
:1050A0000168491C01607047502080F31188BFF3EC
:1050B0004F8FBFF36F8F0A494868401C4860012832
:1050C0000CD10848006810F0FF0F07D0502080F383
:1050D0001188BFF34F8FBFF36F8FFEE7704700005B
:1050E0007C00002404ED00E00849486828B1401E17
:1050F000486001D180F311887047502080F31188F7
:10510000BFF34F8FBFF36F8FFEE700007C000024DA
:1051100070B500282AD0164DA0F1080461686869AE
:10512000014207D1502080F31188BFF34F8FBFF3A6
:105130006F8FFEE722683AB1502080F31188BFF3E9
:105140004F8FBFF36F8FFEE78143616000F080F8FF
:1051500060686968084468602046FFF775FE286942
:10516000401C2861BDE8704000F0E0B970BD00004F
:105170005C0000244FF0E020002101614FF47A72BE
:105180008161072303490968B1FBF2F1491E4161BE
:105190000361704718000024020010B514D00F48B6
:1051A000006B38B1502080F31188BFF34F8FBFF3ED
:1051B0006F8FFEE700F04CF800211046FFF7E4FC8B
:1051C00000F0B4F9002807D105494FF0805008607D
:1051D000BFF34F8FBFF36F8F10BD0000200000247E
:1051E00004ED00E010B586B0002405AA04A90394DC
:1051F00003A80494FFF71AFFDDE9030100940023DC
:10520000CDE9011010480EA1059A00F0FEF80F49F3
:105210000028C86211D0502080F31188BFF34F8F4F
:10522000BFF36F8F01224FF0FF3088624A61CC607C
:1052300006B0BDE8104000F041B806B010BD000057
:1052400049444C45000000004D4D0008200000245A
:105250000248016B491C01637047000020000024D4
:105260001448016B11B10121C16170470021C16176
:1052700011490269B2FA82F2C2F11F0202EB820204
:1052800051F822306BB101EB820101F108034A6849
:1052900052684A609A4201D152684A60D1680160FE
:1052A0007047502080F31188BFF34F8FBFF36F8F8B
:1052B000FEE7000020000024780B002437481CB5CE
:1052C000374902688A4207D1502080F31188BFF322
:1052D0004F8FBFF36F8FFEE731490068491E884248
:1052E00007D1502080F31188BFF34F8FBFF36F8F2A
:1052F000FEE72C49FF200A780192087008788DF8A3
:1053000000009DF800209DF8000002F0F0028242AB
:1053100007D0502080F31188BFF34F8FBFF36F8FFA
:10532000FEE79DF8002007201F4C02F0500222707B
:10533000A06005E09DF8002052008DF80020401E7E
:105340009DF800201206F5D40328A06007D0502055
:1053500080F31188BFF34F8FBFF36F8FFEE74FF4D9
:105360004070A060019808700C482030016841F43A
:1053700070010160016841F070410160FFF7FAFEC1
:1053800000206060FBF716F80848016841F04041D2
:105390000160FAF7FBFF00201CBD000000ED00E0FB
:1053A00071C20F4100E400E07C00002434EF00E013
:1053B0002DE9FF5F994616468A4683469000DDE94F
:1053C0000E87FFF78BFD05001CD05420FFF786FDEC
:1053D000040014D00020256384F851004B46CDE929
:1053E0000087CDE90240324651465846FFF7DEFCC1
:1053F0002046FFF701FC012004B0BDE8F09F2846DD
:10540000FFF786FE4FF0FF30F6E7F0B585B0DDE937
:105410000B740A9DA7B1DCB154262763022684F8D9
:105420005160002703970DF1100C0095CDE901C4E0
:10543000FFF7BCFC2046FFF7DFFB049805B0F0BD8A
:10544000502080F31188BFF34F8FBFF36F8FFEE7BB
:10545000502080F31188BFF34F8FBFF36F8FFEE7AB
:105460002DE9F0412F4C206B002728B1A069401C8A
:10547000A0613846BDE8F081E668761CE66013D18D
:10548000606B006838B1502080F31188BFF34F8FF4
:10549000BFF36F8FFEE7606BA16B6163A063206A4F
:1054A000401C2062FFF7F6FCDFF87C80A06A864291
:1054B00009D3606B0068A0B1606BC068C56868689C
:1054C000864211D2A0622068C06A00EB800158F8C1
:1054D0002100012800D90127E0690028C9D001274F
:1054E000C7E74FF0FF30EDE7281DFFF78BFDA86AF7
:1054F00018B105F11800FFF785FDE96A012022695E
:1055000088401043206101EB810108EB8100291DD7
:10551000FFF7BEFD2068E96AC06A8142C9D301274E
:10552000C7E7000020000024780B00242DE9F04795
:105530002C4D286B0024264638B1FFF7B5FD286BAB
:10554000401E2863286B40B147E0502080F311884B
:10555000BFF34F8FBFF36F8FFEE7234F0120A96882
:10556000D9B3A7F1B40980463868E8B1F868C468CF
:1055700004F11800FFF746FD201DFFF743FDE16A27
:105580002A6908FA01F01043286101EB810109EB57
:105590008100211DFFF77CFD2968E06AC96A884205
:1055A000E2D3C5F81C80DFE70CB1FFF773FCAC69F0
:1055B00044B14746FFF754FF00B1EF61641EF9D1D3
:1055C0000020A861E86940B1084901264FF08050E9
:1055D0000860BFF34F8FBFF36F8FFFF785FD304635
:1055E000BDE8F087200000242C0C002404ED00E02E
:1055F0004FF04070E1EE100A70470000A05600081E
:105600004944000800000000000000008000000085
:105610000000000000000000AC560008E94F000840
:10562000FEFF0000000000008000000000000000FD
:10563000000000000001020304050607080C101416
:1056400018203040000000000000000000000000B2
:105650000000000000000000010000000200000047
:10566000030000000400000000000000050000002E
:105670000000000000000000000000000600000024
:105680000000000000000000000000000700000013
:1056900000000000010203040102030406070809D8
:1056A00064656661756C745461736B004865617202
:1056B0007442656174000000E85600080000002490
:1056C0008800000008030008E856000800000020D9
:1056D000003C0000240300087057000888000024E4
:1056E0004012000024030008000000000000000039
:1056F0000000000001000000100000000000000099
:105700000090D0030090D0030000000000000000D3
:105710000000000000000000000000000000000089
:105720000000000000000000000000000000000079
:105730000000000000000000000000000000000069
:105740000000000000000000000000000000000059
:105750000000000000000000000000000000000049
:105760000000000000000000AAAAAAAA0000000091
:04000005080002CD20
:00000001FF
