:020000040800F2
:10000000E01200242D0400087B310008752E000842
:10001000793100088F060008474000080000000002
:100020000000000000000000000000006D03000858
:100030009106000800000000C90300080934000808
:100040004B0400084B0400084B0400084B04000854
:100050004B0400084B0400084B0400084B04000844
:100060004B0400084B0400084B0400084B04000834
:100070004B0400084B0400084B0400084B04000824
:100080004B0400084B0400084B0400084B04000814
:100090004B0400084B0400084B0400084B04000804
:1000A0004B0400084B0400084B0400084B040008F4
:1000B0004B0400084B0400084B0400084B040008E4
:1000C0004B0400084B0400084B0400084B040008D4
:1000D0004B0400084B0400084B0400084B040008C4
:1000E0004B0400084B040008000000004B0400080B
:1000F0004B0400084B0400084B0400084B040008A4
:100100004B0400084B0400084B0400084B04000893
:100110004B0400084B0400084B0400084B04000883
:100120004B0400084B0400084B0400084B04000873
:100130004B0400084B0400084B0400084B04000863
:1001400000000000000000000000000000000000AF
:100150004B0400084B0400084B0400084B04000843
:100160004B0400084B0400084B0400084B04000833
:100170004B0400084B0400084B040008000000007A
:100180004B0400084B0400084B0400084B04000813
:100190004B0400084B0400084B0400084B04000803
:1001A0004B0400084B0400084B040008000000004A
:1001B0004B0400084B0400084B0400084B040008E3
:1001C0004B0400084B040008000000000000000081
:1001D00000000000000000004B04000800000000C8
:1001E000000000000000000000000000000000000F
:1001F00000000000000000004B0400084B04000851
:100200004B0400084B040008000000004B040008E9
:100210004B0400084B0400084B0400084B04000882
:100220004B040008000000004B0400080000000020
:100230004B0400084B040008000000004B040008B9
:100240004B0400084B0400084B0400084B04000852
:100250004B0400084B0400084B0400084B04000842
:100260004B0400084B0400084B0400084B04000832
:100270004B0400084B0400084B0400080000000079
:100280004B0400084B0400084B0400084B04000812
:10029000000000004B0400084B04000800000000B0
:1002A000000000004B0400084B0400084B04000849
:1002B0004B0400084B0400084B0400084B040008E2
:1002C0004B040008A53500084B04000800F002F8B4
:1002D00000F03CF80AA090E8000C82448344AAF1A4
:1002E0000107DA4501D100F031F8AFF2090EBAE8A2
:1002F0000F0013F0010F18BFFB1A43F0010318475A
:10030000F4490000244A0000103A24BF78C878C19C
:10031000FAD8520724BF30C830C144BF04680C600B
:10032000704700000023002400250026103A28BF53
:1003300078C1FBD8520728BF30C148BF0B60704757
:100340001FB504F05FFC1FBD10B510BD00F065F9CE
:100350001146FFF7F5FF03F089FE00F083F903B4BF
:10036000FFF7F2FF03BC00F08BF900002C4B19687B
:100370000868B0E8F04F80F30988BFF36F8F4FF043
:10038000000080F3118870470000000008480068F2
:10039000006880F308884FF0000080F3148862B68C
:1003A00061B6BFF34F8FBFF36F8F00DF00BF00BF99
:1003B00008ED00E0DFF80C00016841F47001016015
:1003C000704700BF88ED00E0EFF30980BFF36F8F47
:1003D000134B1A681EF0100F08BF20ED108A20E999
:1003E000F04F106009B44FF0500080F31188BFF354
:1003F0004F8FBFF36F8F04F03DFA4FF0000080F392
:10040000118809BC19680868B0E8F04F1EF0100F99
:1004100008BFB0EC108A80F30988BFF36F8F704774
:1004200020000024EFF30580704700000A48804751
:100430000A4880470A480047FEE7FEE7FEE7FEE776
:10044000FEE7FEE7FEE7FEE7FEE7FEE705480649B2
:10045000064A074B7047000099060008CD34000893
:10046000CD020008E00C0024E0120024E00E00247D
:10047000E00E002453EA020C00F069802DE9F04BF5
:100480004FF00006002B1FBFB3FA83F503FA05F403
:1004900024FA05F65E4012BF1643B2FA82F502FA5C
:1004A00005F4C5F120051EBF22FA05FC44EA0C0440
:1004B000203556EA044C4FEA144418BF641C4FF030
:1004C00000084FF00009904271EB030C39D300296A
:1004D00019BFB1FA81F701FA07F6B0FA80F700FA0E
:1004E00007F6C7F120071EBF20FA07FC46EA0C06F4
:1004F0002037B6FBF4FCA7EB0507103F07F01F0BF6
:10050000CBF120060CFA0BFB2CFA06F644BFB346DF
:100510000026202FA4BF5E464FF0000B5BEA060CBE
:1005200008BF4FF0010B19EB0B09ABFB027C48EB4A
:100530000608C01B06FB02CC0BFB03CC71EB0C01C5
:10054000C1E70B46024641464846BDE8F08B13B56D
:100550004FF000004FF00001AFF30080BDE81C40F9
:10056000704710B5203AC0F00B80B1E81850203A1F
:10057000A0E81850B1E81850A0E81850BFF4F5AF43
:100580005FEA027C24BFB1E81850A0E8185044BFCD
:1005900018C918C0BDE810405FEA827C24BF51F83A
:1005A000043B40F8043B08BF7047D20728BF31F82E
:1005B000023B48BF11F8012B28BF20F8023B48BF7F
:1005C00000F8012B70474FF0000200B51346944627
:1005D0009646203922BFA0E80C50A0E80C50B1F19B
:1005E0002001BFF4F7AF090728BFA0E80C5048BFAF
:1005F0000CC05DF804EB890028BF40F8042B08BF4D
:10060000704748BF20F8022B11F0804F18BF00F848
:10061000012B7047704770477047754600F02CF803
:10062000AE4605006946534620F00700854618B0DF
:1006300020B5FFF70BFFBDE820404FF000064FF05C
:1006400000074FF000084FF0000B21F00701AC4607
:10065000ACE8C009ACE8C009ACE8C009ACE8C00926
:100660008D46704710B50446AFF300802046BDE8C4
:100670001040FFF774BE000000487047800C002453
:1006800001491820ABBEFEE7260002007047FEE7D6
:10069000704772B6FEE70000054805490839026850
:1006A00042F00202026008688004FCD57047000036
:1006B0000C480258F0B503684FF6FC716D4C426B64
:1006C000D3F884508D4345EA8205C3F8845003680B
:1006D00053F8845F068F25F47F0545EA06451D60C3
:1006E000836B654D9F180268D2F888308B4343EACC
:1006F0008703C2F88830026852F8883F868F23F457
:10070000FE0343EA06431360066856F8A03FC26B37
:100710008B4307EB420243EA82033360076857F8D2
:10072000A03FB0F8406023F4FE0343EA06433B6079
:10073000D0E9103603FB06220368D3F8B0608E437D
:1007400046EA8206C3F8B0600368B0F84860D3F8A0
:10075000B07027F4FE0747EA0646C3F8B060D0E958
:100760001267036806FB0722D3F8AC608E4346EAA3
:100770008206C3F8AC60D0E91467036806FB072261
:10078000D3F8F0608E4346EA8206C3F8F06003684F
:10079000B0F85860D3F8F07027F47C1747EA0646A3
:1007A000C3F8F0600368876D53F8C06F02EB47022F
:1007B0008E4346EA820119600168B0F85C20D1F8E6
:1007C000C03023F47C1343EA0242C1F8C020016820
:1007D00090F86020D1F8C03023F07C5343EA0262E5
:1007E000C1F8C020416B04EB8101C166826B01EB53
:1007F00082020267C36B02EBC3024267D0E9103486
:10080000634302EB83028267D0E91234634302EB55
:100810008302C267D0E91434634302EB8302C0F859
:100820008020836D02EBC303C0F88430C46D826EF8
:10083000544303EB8403C0F88830046E544303EB45
:100840008402C0F89020AA420AD9D0F89C20032143
:1008500042F02002C0F89C2080F898100120F0BDE2
:10086000002200E004C1D0F890308B42FAD800207A
:10087000F0BD000000AC0040FCD3004070B5044661
:1008800000F0D0FA0546601C02D004480078044409
:1008900000F0C8FA401BA042FAD370BD0C0000243F
:1008A0002DE9F04194B08D494C2204466846FFF78B
:1008B00058FE64B18A4D2068A84202D100F58070CC
:1008C000606094F898004FF0000820B108E0012023
:1008D00014B0BDE8F081204684F8998000F002F958
:1008E0002068816921F01001816100F09BFA0327E3
:1008F000064604E000F096FA801B0A2811D820680A
:1009000080690007F6D42068816941F001018161A6
:1009100000F088FA06460DE000F084FA801B0A28F1
:1009200008D9D4F89C0040F00100C4F89C0084F879
:100930009870CCE720688069C007EDD02068816995
:1009400041F002018161207C01282068816937D053
:1009500041F040018161607C01282068816932D0CA
:1009600021F480418161A07C0128206881692DD01B
:1009700041F4805181612068A268816921F440714D
:10098000114381612068816921F0A401816120689F
:10099000016921F010010161E068012819D010B34C
:1009A00002281BD02068816941F0800181612068A4
:1009B000016941F010010161E06803280ED012E0E6
:1009C00021F04001C6E741F48041CBE721F480519A
:1009D000D0E72068816941F0040103E02068816963
:1009E00041F020018161207E6FF0FF02D4E907739E
:1009F000A68A1102400602EB0727A0F100703843D7
:100A000027685B1E184301EB06463043F861A06877
:100A1000B0F5407F11D104F12800A68C6FF00F0CC7
:100A200089C801EB0641401E02EB032210432268F5
:100A30000CEB071318430843D060206E30B12068D8
:100A4000626ED0F8C0101143C0F8C010D4E917127C
:100A50006846D14209D02168A36E51F8C82F50F8DA
:100A6000233022F007021A430A60216C49B1216841
:100A7000626C51F8BC3F50F8226023F00702324309
:100A80000A60A16C51B12168E36C51F8BC2F50F899
:100A9000233022F0700242EA03120A60216D51B144
:100AA0002168626D51F8BC3F50F8220023F4E062E7
:100AB00042EA002008602068A84204D1606881688A
:100AC00021F003018160C4F894800121C4F89C8066
:100AD00084F898102046FFF7EDFDF9E6584C000821
:100AE00000A00040F0B587B0054614216846FFF726
:100AF0006AFD384E0024364B02272D684FF0090C52
:100B0000DFF8D4E00C3B3168314A7545334801F1D8
:100B1000010118D10129316007D1116841F48071B8
:100B20001160116801F480710591196841F00801A4
:100B30001960196801F00801059103210091CDE9C0
:100B4000017469461CE0DFF898E075451ED1012963
:100B5000316007D1106840F480701060106800F4B4
:100B600080700590186840F00200186018686946A7
:100B700000F002000590602000901A48CDE9017451
:100B8000CDE9034C00F032F807B0F0BDDFF858C0F3
:100B90006545F9D10129316007D1116841F48071AF
:100BA0001160116801F480710591196841F0080124
:100BB00019601968052201F0080105914FF44051B0
:100BC0000091CDE90174CDE903426946DAE70000FE
:100BD000EC4402580800002400A00040000C025819
:100BE00000A400400004025800D400402DE9F84F52
:100BF00003247A4D00234FF001094FF0B04B4FF022
:100C00000F0AE4E009FA03F6324078D00F7907F0D2
:100C10000307012F01D0022F1AD187684FEA430E34
:100C2000D1F80CC004FA0EF827EA08070CFA0EFCFB
:100C30004CEA070CC0F808C0476891F804C0B743F5
:100C4000CCF3001C0CFA03FC4CEA070CC0F804C0FF
:100C50000E79F643B6070BD0C6684FEA43088F6893
:100C600004FA08FC26EA0C0607FA08F73743C760BF
:100C70000E7906F00306022E12D1DE080F694FEA44
:100C8000437C00EB8606B646366A4FEADC6C0AFA0D
:100C90000CF807FA0CF726EA08063743CEF820705E
:100CA0000F7906684FEA430807F0030704FA08FCC7
:100CB00007FA08F726EA0C06374307604E6816F471
:100CC000403F1CD0464E376847F002073760366811
:100CD0009F0706F00206009623F0030606F1B046D1
:100CE000B6463F0FD6F80864DFF8F8800AFA07FC2A
:100CF000404526EA0C0603D14FF0000C3AE065E0CF
:100D0000DFF8E4C0604502D14FF0010C32E0DFF8BB
:100D1000DCC0604502D14FF0020C2BE0DFF8D0C000
:100D2000604502D14FF0030C24E0DFF8C8C06045F5
:100D300002D14FF0040C1DE0DFF8BCC0604502D1C9
:100D40004FF0050C16E0DFF8B4C0604502D14FF05B
:100D5000060C0FE0DFF8A8C0604502D14FF0070C89
:100D600008E0DFF8A0C0604502D14FF0090C01E0B7
:100D70004FF00A0C0CFA07FC4CEA060CCEF808C43B
:100D80004F68DBF80060FF0226EA020600D5164332
:100D90005F46CBF80060D1F804C0DBF804605FEA7E
:100DA0008C2C26EA020600D516437E606E684F68DA
:100DB00026EA0206BF0300D516436E602E684F6810
:100DC00026EA0206FF0300D516432E605B1C0A6864
:100DD00032FA03F67FF416AFBDE8F88F80000058B2
:100DE000F444025800000258000402580008025857
:100DF000000C025800100258001402580018025843
:100E0000001C025800240258426921EA02030A40E9
:100E100043EA0241816170470AB181617047090468
:100E2000FBE7000001488068704700000C000024C8
:100E30000248816802781144816070470C000024E8
:100E4000032010B500F0FAF801F082F90F4A1049BA
:100E500014681368C4F3032203F00F038A5CC95CAF
:100E600002F01F0201F01F01D0400A4A20FA01F1EE
:100E70001160094908600F2000F010F808B1012046
:100E800010BD00F09BF8002010BD0000184402586F
:100E9000CC4C00081C0000241800002410B51028B9
:100EA00004468AB02AD200220146A12000F0A6F80A
:100EB000A12000F095F8154804601548016841F03C
:100EC00080710160006808A900F080700990684690
:100ED00001F0CAF801F02AF90E49400000220E4C38
:100EE000B0FBF1F10D4840F2E7330460C0E9033292
:100EF000491EC0E9011201F0A2FD10B101200AB0A3
:100F000010BD064801F0CEFDF9E7000010000024F6
:100F1000EC44025840420F0000E00040440B002423
:100F2000154BF0B5083B427813491A600B680A1F4D
:100F300023F001030B6043681360057BC67A827A55
:100F4000437B2D07847B45EA0665C77B90F809C083
:100F5000067A90F800E045EAC24040EA834040EA61
:100F6000444040EA074040EA0C2040EA460040EA9C
:100F70000E000860F0BD0000A0ED00E0BFF35F8F41
:100F8000044800210368034A23F48033036070326D
:100F90001160704724ED00E0074A40F00100064967
:100FA00070321060086840F480300860BFF34F8FE3
:100FB000BFF36F8F7047000024ED00E0074882B058
:100FC000016841F002010160006800220F2100F079
:100FD00002000090901E02B000F010B8F4440258D5
:100FE000002809DB410900F01F028900012001F1FE
:100FF000E0219040C1F80001704700000E4BF0B4B2
:101000001B680D46C3F30223C3F10706042E00D963
:101010000426191D072901D2002300E0DB1E01244C
:1010200004FA06F19C40491E2940641E9940144070
:101030002143F0BC03F008B80CED00E0064900F0D5
:10104000070210B54FF6FF040868044B204040EA41
:1010500002201843086010BD0CED00E00000FA0506
:1010600001680123C0F8D834002280F8CC248869B4
:10107000044A40F000608861486D104348650020D4
:101080007047000003000010F8B5040004D094F885
:101090009504002510B106E00120F8BD204684F833
:1010A000945400F057F8032084F89504206802F067
:1010B0005BFF207C8DF8000094E80F0002F026FE14
:1010C0000226B0BB2068002102F08EFF88BB002002
:1010D00001270CE000EBC001421C04EB81014F75BD
:1010E0000D76CD610D624D620875C885D0B221794B
:1010F0008142EFD8002011E000EBC001421C04EB5C
:10110000810181F8555281F85852C1F85C52C1F8FA
:101110006052C1F8645281F85402D0B22179814200
:10112000EAD8207C8DF8000094E80F0002F066FEFB
:1011300010B184F89564AFE7207B657484F89574EA
:10114000012802D12046FFF78BFF206802F048FEFD
:101150000020F8BD70B5B0B00446B8216846FFF76E
:1011600032FA15492068884224D10023022019460A
:1011700019240A944FF48022CDE90023C0250EAB38
:10118000CDE90B5006020D9083E843000205684646
:101190002192119100F09CF908B1FFF77AFA00F062
:1011A00039F80648016841F000710160006800F0FC
:1011B00000702E9030B070BD00000440D84402583A
:1011C000134970B50A68D243520705D5096801F082
:1011D0000701814213D118E00A6822F00702024396
:1011E0000A60FFF71FFE0A4D4FF47A760446083D69
:1011F00007E000BFFFF716FE001BB04201D9012037
:1012000070BD2868C0438004F4D4002070BD000085
:101210000C4802580248016841F080710160704733
:101220000C48025810B500F04DFF05490968054A01
:10123000C1F30211515C01F01F01C84010BD000054
:1012400020440258CC4C0008494930B5484C0B1D8D
:101250000A68143409681D68246802F00303C5F3A2
:101260000012C1F30531C4F3CC04002914FB02F2CF
:1012700000EE102AF8EE400A75D03F4A9FED3D1A65
:10128000B7EE000A6BB1DFED3D1A012B01D0022B46
:1012900064D002EE101A1168F8EE422A81EEA22AFA
:1012A00021E0334C283C23689B0612D5344B24683C
:1012B00001EE901A1168C4F3C104F8EE612AE3400C
:1012C00001EE903AC1F30801F8EE611A81EEA22A0C
:1012D0000BE001EE901ADFED2B2A00BFF8EE611A49
:1012E000116882EEA12AC1F3080101EE901A11687B
:1012F000F8EE611A40EE811A71EE800A62EE200A61
:10130000C1F3462101EE101AB8EE411A31EE001A6F
:10131000C0EE811ABCEEE11A80ED001A1168C1F32B
:10132000064101EE101AB8EE411A31EE001AC0EE75
:10133000811ABCEEE11A80ED011A1168C1F3066151
:1013400001EE101AB8EE411A31EE000A80EE801A52
:10135000BCEEC10A80ED020A30BD04E001EE901A35
:10136000DFED092ABAE70021016041608160F3E7FF
:101370002844025800000039384402580024744AB6
:101380000090D0030024744C20BCBE4B494930B5BA
:10139000484C0B1D0A681C3409681D68246802F05B
:1013A0000303C5F30022C1F30551C4F3CC040029A3
:1013B00014FB02F200EE102AF8EE400A75D03F4A04
:1013C0009FED3D1AB7EE000A6BB1DFED3D1A012B20
:1013D00001D0022B64D002EE101A1168F8EE422AF6
:1013E00081EEA22A21E0334C283C23689B0612D5CB
:1013F000344B246801EE901A1168C4F3C104F8EE6E
:10140000612AE34001EE903AC1F30801F8EE611A57
:1014100081EEA22A0BE001EE901ADFED2B2A00BF2D
:10142000F8EE611A116882EEA12AC1F3080101EEFB
:10143000901A1168F8EE611A40EE811A71EE800A76
:1014400062EE200AC1F3462101EE101AB8EE411AED
:1014500031EE001AC0EE811ABCEEE11A80ED001ADE
:101460001168C1F3064101EE101AB8EE411A31EECF
:10147000001AC0EE811ABCEEE11A80ED011A116863
:10148000C1F3066101EE101AB8EE411A31EE000AFE
:1014900080EE801ABCEEC10A80ED020A30BD04E085
:1014A00001EE901ADFED092ABAE7002101604160E0
:1014B0008160F3E728440258000000394044025894
:1014C0000024744A0090D0030024744C20BCBE4B0E
:1014D0002DE9FE4F0546DFF800A450F8081B002454
:1014E000FD4FC943019005F1280026460AF1240A60
:1014F000009008011DD4686E50B1B0F5801F0CD06B
:10150000B0F5001F0ED0B0F5401F1ED001240FE033
:10151000386840F40030386017E00198022101F08B
:101520004FFE03E00098022101F0DAFE04000CD027
:1015300026462888C043C00523D4A86D05281ED29E
:10154000DFE800F00C11161B1B006A6EDAF80010C1
:1015500021F440111143CAF80010EAE7386840F45A
:101560000030386009E00198002101F029FE03E015
:101570000098002101F0B4FE0446C4B100E001244B
:1015800026462888DFF85083C04308F12C08400520
:101590002FD4D5F8A400B0F5C00F28D010DCB8B116
:1015A000B0F5001F19D0B0F5800F0FD11AE0AA6D69
:1015B000DAF8001021F007011143CAF80010E0E743
:1015C000B0F5000F13D0B0F5200F10D001240FE0BC
:1015D000386840F40030386009E00198002101F0DB
:1015E000EFFD03E00098002101F07AFE044694B17B
:1015F00026462888C043000530D4D5F8A800B0F1AD
:10160000407F29D011DCC0B1B0F1807F1AD0B0F199
:10161000007F10D11BE0D5F8A420D8F8001021F4E9
:1016200060011143C8F80010E3E7B0F1806F13D0F8
:10163000B0F1A06F10D001240FE0386840F4003002
:10164000386009E00198002101F0BAFD03E000983C
:10165000002101F045FE044694B126462868DFF8D3
:1016600078B2C0430BF1200B80011FD4E86CD8B1D5
:1016700010280FD0202812D0302815D0012414E0D3
:10168000D5F8A820D8F8001021F0E0611143C8F87F
:101690000010E3E7386840F40030386004E0019857
:1016A000022101F08DFD044674B126462888C0430E
:1016B000C0042BD4E86DB0F5005F20D00DDCA0B1E4
:1016C000B0F5805F0FD115E0EA6CDBF8001021F077
:1016D00030011143CBF80010E8E7B0F5405F13D0BC
:1016E000B0F5804F10D001240FE0386840F400308E
:1016F000386009E00198002101F062FD03E00098E4
:10170000002101F0EDFD04468CB126462888C04337
:10171000800429D4286EB0F5403F23D010DC08B3F4
:10172000B0F5803F14D0B0F5003F0FD115E0EA6D61
:10173000DAF8001021F4E0411143CAF80010E5E79F
:10174000B0F5802F0ED0B0F5A02F0BD001240AE009
:101750000198012101F034FD03E00098012101F01E
:10176000BFFD044694B126462888C04340042AD4CD
:10177000D5F8AC00B0F1405F23D010DC08B3B0F175
:10178000805F14D0B0F1005F0FD115E02A6EDAF857
:10179000001021F4E0211143CAF80010E4E7B0F191
:1017A000804F0ED0B0F1A04F0BD001240AE0019879
:1017B000012101F005FD03E00098012101F090FDF9
:1017C000044674B126462888C04300041FD4E86E3E
:1017D000D8B1B0F1805F0ED0B0F1005F10D001241D
:1017E00014E0D5F8AC20D8F8001021F0E041114306
:1017F000C8F80010E7E7386840F40030386004E0CB
:101800000198012101F0DCFC044674B126462868E9
:10181000C043C0011ED4A86CD0B101280ED002284C
:1018200011D0032814D0012413E0EA6EDAF8001076
:1018300021F040511143CAF80010E8E7386840F43D
:101840000030386004E00198022101F0B9FC044640
:101850006CB126462868C043400255D41F48016831
:1018600041F480710160FFF7DDFA81460EE0AA6C59
:10187000DBF8001021F003011143CBF80010E9E779
:10188000FFF7D0FAA0EB090064283BD813480068A2
:10189000C005F5D5BCBBDFF84090B5F8B01009F134
:1018A0004409D9F8000001F4407100F44070884206
:1018B00011D0D9F80010D9F8002021F4407142F479
:1018C0008032C9F80020D9F8002022F48032C9F80B
:1018D0000020C9F8001003E02C44025800480258C8
:1018E000D5F8B000B0F5807F19D1FFF79BFA0290D0
:1018F00011E000BFFFF796FA0299411A41F28830D1
:10190000814208D9032426462878DFF81494C0437E
:10191000C00721D03CE0D9F800008007EAD5D5F80F
:10192000B010C1F301200328FE480DD0016821F456
:101930007C510160B5F8B020D9F80010C2F30B0259
:101940001143C9F80010DFE7F74A036802EA1112F1
:1019500023F47C511143ECE7A86F182816D005DC5E
:10196000A0B1082808D0102804D10AE020280DD002
:1019700028280BD001240AE00198012101F020FC65
:1019800003E00098012101F0ABFC044664B1264657
:101990002878C04380071ED4686F062819D2DFE874
:1019A00000F0160C11161616AA6FD9F8001021F0C7
:1019B00038011143C9F80010EAE70198012101F04C
:1019C000FFFB03E00098012101F08AFC04467CB192
:1019D00000E0012426462878C04340071FD4D5F8EC
:1019E0009000062819D2DFE800F0160C1116161622
:1019F0006A6FD9F8001021F007011143C9F80010EF
:101A0000E9E70198012101F0DBFB03E000980121E7
:101A100001F066FC0446A4B100E0012426462878C3
:101A2000C04380062BD4D5F88C00B0F1405F24D0A1
:101A300011DC10B3B0F1805F15D0B0F1005F10D1B0
:101A400016E0D5F89020D8F8001021F007011143D6
:101A5000C8F80010E3E7B0F1804F0ED0B0F1A04F0E
:101A60000BD001240AE00198002101F0A9FB03E05A
:101A70000098022101F034FC044694B126462878EF
:101A8000C04340062BD4D5F89800B0F5406F24D061
:101A900011DC10B3B0F5806F15D0B0F5006F10D128
:101AA00016E0D5F88C20D9F8001021F0E041114360
:101AB000C9F80010E3E7B0F5805F0ED0B0F5A05F85
:101AC0000BD001240AE00198002101F079FB03E02A
:101AD0000098022101F004FC044694B126462878BF
:101AE000C04300062BD4D5F89C00B0F5C04F24D0DD
:101AF00011DC10B3B0F5005F15D0B0F5804F10D1F8
:101B000016E0D5F89820D8F8001021F4E0511143E0
:101B1000C8F80010E3E7B0F5004F0ED0B0F5204F45
:101B20000BD001240AE00198002101F049FB03E0F9
:101B30000098022101F0D4FB044654B126462878CF
:101B4000C04300071ED4D5F88000B0F5805F0AD0EE
:101B50000FE0D5F89C20D8F8001021F46041114323
:101B6000C8F80010EBE70098022101F0B9FB00B1C2
:101B70000126D5F88020D9F8001021F440511143F6
:101B8000C9F800102878C043C00613D4D5F89400D3
:101B9000B0F5807F05D10098022101F0A1FB00B1D2
:101BA0000126D5F89420D8F8001021F44071114393
:101BB000C8F800102868C043000316D4D5F8A00068
:101BC00038B1B0F5803F09D0B0F5003F0BD001240B
:101BD0000AE00198002101F0F3FA03E000980221E5
:101BE00001F07EFB04468CB126462868C0434003C2
:101BF00022D4D5F88400B0F5801F11D0B0F5001FB5
:101C000013D0B0F5401F15D0012414E0D5F8A02062
:101C1000D8F8001021F440311143C8F80010E4E76F
:101C2000386840F40030386004E00098012101F089
:101C300057FB04465CB126462868C043C0031CD449
:101C4000286D70B1B0F5803F10D0012414E0D5F8B4
:101C50008420D9F8001021F440111143C9F8001074
:101C6000EAE7386840F40030386004E00198022167
:101C700001F0A6FA0446DCB126462868C04380007D
:101C800005D40098022101F02BFB00B10126286841
:101C9000C04380031BD4E86FB8B1B0F5807F10D08B
:101CA000B0F5007F11D0B0F5407F0ED001240DE0DB
:101CB0002A6DDBF8001021F480311143CBF80010BD
:101CC000DBE7386840F4003038607CB3264628688B
:101CD000C043C00207D42A6FDAF8001021F0004197
:101CE0001143CAF800102868C043800207D4AA6EC6
:101CF000DAF8001021F080711143CAF8001028684A
:101D0000C043400009D40748016821F40041016044
:101D10000168D5F8B420114301602868C04306E08B
:101D20005444025810440258CFFFFF001DE007D46E
:101D30006A6DDBF8001021F040511143CBF8001020
:101D40002868C043000208D4D5F88820D9F80010CC
:101D500021F440011143C9F8001028790024C04340
:101D600000F00100204309D00EE0EA6FD9F800101E
:101D700021F440711143C9F80010A8E7019800212F
:101D800001F01EFA00B106462879C04300F00200B7
:101D9000204305D10198012101F012FA00B1064655
:101DA0002879C04300F00400204305D101980221A6
:101DB00001F006FA00B106462879C04300F0080099
:101DC000204305D10098002101F08AFA00B10646AF
:101DD0002879C04300F01000204305D1009801216C
:101DE00001F07EFA00B106462879C04300F02000D9
:101DF000044304D10098022101F072FA00B916B12F
:101E00000120BDE8FE8F0020FBE700002DE9F05F18
:101E100004000F467ED0DFF83882D8F8000000F0CA
:101E20000F00B8420CD2D8F8001021F00F0139434E
:101E3000C8F80010D8F8000000F00F00B84269D1CF
:101E40002078844D40070AD52069296801F0700187
:101E5000884204D9296821F0700101432960207863
:101E60007C4E361D00070AD56069316801F07001AB
:101E7000884204D9316821F0700101433160207833
:101E8000C0060AD5A069316801F4E061884204D92E
:101E9000316821F4E061014331602078DFF8B4B1AA
:101EA00080060BF1080B0CD5E1695846DBF80020E1
:101EB00002F07002914204D9026822F070020A43D3
:101EC0000260207880070AD5E068296801F00F01D8
:101ED000884204D9296821F00F0101432960207844
:101EE000C0073ED05B49A2682868183920F47060AA
:101EF000104328606068022818D0032819D00968A8
:101F0000012819D0490700294ADADFF848A1AAF1C7
:101F1000080A00E044E0DAF8002022F00702024359
:101F2000CAF80020FEF77EFF814612E009688903A7
:101F3000E9E709688901E6E7C905E4E7FEF772FF0A
:101F4000A0EB090141F28830814202D90320BDE8AB
:101F5000F09F6168DAF8000000F03800B0EBC10FC4
:101F6000ECD1207880070AD5E068296801F00F01DC
:101F7000884204D2296821F00F0101432960D8F872
:101F80000010404601F00F01B9420BD9016821F061
:101F90000F0139430160006800F00F00B84201D022
:101FA0000120D4E7207840070AD52069296801F08C
:101FB0007001884204D2296821F070010143296030
:101FC000207800070AD56069316801F07001884205
:101FD00004D2316821F07001014331602078C006DD
:101FE0000AD5A069316801F4E061884204D2316801
:101FF00021F4E06101433160207880060CD5E1696D
:102000005846DBF8002002F07002914204D20268C8
:1020100022F070020A43026000F09AF80E492A6822
:102020002B68C2F3032203F00F038A5CC95C02F041
:102030001F0201F01F01D040084A20FA01F111608F
:102040000749086007480068BDE8F05FFEF726BF53
:102050000020005218440258CC4C00081C000024F8
:10206000180000241000002470B5144C3F220260B8
:10207000124A24680832131D114D04F0070444600D
:1020800016681C1D06F470668660166806F00F065A
:10209000C660126802F0700202611A6802F07002F3
:1020A00042611A6802F4E0628261226802F0700202
:1020B000C261286800F00F00086070BD104402582B
:1020C0000020005230B500F043F80B4A0B490C4B8E
:1020D00015681468C5F3032204F00F048A5C095DD7
:1020E00002F01F0201F01F01D040064A20FA01F160
:1020F00019601060084630BD18440258CC4C0008E6
:102100001C0000241800002400B5FFF7DBFF054980
:102110000968054AC1F30211515C01F01F01C84072
:1021200000BD00001C440258CC4C000800B5FFF76D
:10213000C9FF05490968054AC1F30221515C01F054
:102140001F01C84000BD00001C440258CC4C0008D0
:10215000454970B545480968434B103B11F03802BA
:1021600008D00111082A03D0102A0BD0182A0BD04E
:10217000084670BD19688906FBD51968C1F3C1010D
:10218000C84070BD3A4870BD3749374D18310C1DF5
:1021900024350A68096826682D6802F0030406F0F1
:1021A0000102C1F30511C5F3CC0515FB02F200EEE7
:1021B000102AB8EE400AE9B32F4ADFED2E0AB7EE37
:1021C000001A6CB1DFED2D1A012C01D0022C43D086
:1021D00002EE101A1068F8EE422A81EEA22A1EE0E2
:1021E0001C68A40611D51B6801EE901A1168C3F390
:1021F000C103F8EE612AD84001EE900AC1F308004D
:10220000F8EE611A81EEA22A0BE001EE901ADFEDE2
:102210001C2A00BFF8EE611A106882EEA12AC0F3F2
:10222000080001EE900AF8EE611A40EE201A31EE35
:10223000810A00E015E022EE000A1068C0F3462093
:10224000401C00EE900AF8EE600A80EE201ABCEE08
:10225000C10A10EE100A70BD01EE901ADFED092AD6
:10226000D8E7002070BD0000104402580090D00351
:1022700040787D0100000039304402580024744A3F
:102280000024744C20BCBE4B2DE9F05F04007DD0CF
:10229000FF4F2078FE4D1837DFF8F483103DC0075C
:1022A00048D0D8F80000396800F03800102815D060
:1022B000182803D101F0030002280FD06068B0F5A0
:1022C000803F12D010B1B0F5A02F18D0286820F4AC
:1022D00080302860286820F4802009E02868800386
:1022E00028D560680028D2D024E0286840F48030E7
:1022F0002860606888B1FEF795FD064609E0286809
:1023000040F480202860F0E7FEF78CFD801B6428F5
:102310007ED828688003F7D50CE0FEF783FD0646DB
:1023200005E000BFFEF77EFD801B6428F0D828681A
:102330008003F7D42078800756D5D8F80000DFF85E
:102340005093396810F03800A9F10C090ED0182804
:1023500001D188070AD0E068A8B3296821F01901E3
:1023600001432960FEF75EFD064628E02868400725
:1023700002D5E06800288AD0E168286820F01900BA
:1023800008432860FEF74EFD064606E0D2E000BF97
:10239000FEF748FD801B0228BAD828684007F7D509
:1023A000217CD9F8002022F0FE4242EA0161C9F8FE
:1023B000001019E0FEF736FD801B0228A8D8286817
:1023C0004007F7D5ECE7FFE7286820F00100286018
:1023D000FEF728FD064604E0FEF724FD801B0228D8
:1023E00096D828684007F7D42078C00646D5D8F894
:1023F0000000DFF89C92396800F03800A9F1040968
:10240000082812D0182805D101F00300012800E0A7
:10241000CEE00AD0E0690028286820D040F0800093
:102420002860FEF7FFFC064615E02868C00502D5C7
:10243000E06980287ED194F82010D9F8002022F09D
:102440007C5242EA0161C9F8001017E0FEF7EAFC8D
:10245000801B0228A0D82868C005F7D5EBE720F03C
:1024600080002860FEF7DEFC064604E0FEF7DAFC9A
:10247000801B022890D82868C005F7D42078000770
:1024800029D583486169643000298146016811D0EB
:1024900041F001010160FEF7C5FC064605E000BF02
:1024A000FEF7C0FC801B022888D8D9F800008007FE
:1024B000F6D510E021F001010160FEF7B3FC0646FD
:1024C00005E000BFFEF7AEFC801B022870D8D9F8EB
:1024D00000008007F6D42078800623D5A069002864
:1024E000286810D040F480502860FEF79BFC064618
:1024F00005E000BFFEF796FC801B022858D828682C
:102500008004F7D50EE020F480502860FEF78AFCA6
:10251000064604E0FEF786FC801B022848D828689F
:102520008004F7D42078400751D5DFF86891D9F8B6
:10253000001000E015E141F48071C9F80010FEF7C9
:1025400071FC064605E000BFFEF76CFC801B6428AA
:102550002ED8D9F80000C005F6D54D4EA0686036DB
:1025600001280AD008B1052813D0306820F00100F6
:102570003060306820F0040002E0306840F0010074
:102580003060A06841F2883A98B1FEF74BFC814672
:102590000AE0306840F004003060EEE7FEF742FCED
:1025A000A0EB0901514503D830688007F6D50EE04D
:1025B00072E0FEF737FC814606E000BFFEF732FC12
:1025C000A0EB0901514567D830688007F6D4606AEE
:1025D00000287CD0DFF8B8A0D8F800100AF1200A53
:1025E0004FF6F87B0AF10408C1F3C2010329AAF1EE
:1025F00004096DD00228286820F08070286003D07C
:10260000FEF710FC044681E0FEF70CFC064604E0F1
:10261000FEF708FC801B022875D828688001F7D4D3
:10262000E26A40F2F331386854F8283F884340EAC0
:10263000021018433860217B4FF4FE0C22894FF0C2
:10264000FE47208A4902267D521E401EA1F50071D8
:1026500089B2C2F308021143761E0CEA004001431E
:10266000484607EA06621143CAF80010D9F800107C
:1026700021F00101C9F80010D8F80030266A23EAD9
:102680000B0343EAC601C8F80010D9F8001004E0B3
:10269000104402580048025835E0A26921F00C01AC
:1026A0001143C9F800100168E26921F002011143E9
:1026B0000160016841F480310160016841F400313A
:1026C0000160016841F480210160016801E06CE073
:1026D00020E041F001010160286840F0807028602E
:1026E000FEF7A0FB044604E0FEF79CFB001B02285B
:1026F00009D828688001F7D557E000BFFEF792FBA4
:10270000001B022802D90320BDE8F09F2868800141
:10271000F4D44AE039680128DAF8000021D0A26A2E
:1027200001F0030393421CD1E26AC1F305118A420E
:1027300017D1216BC0F30802491E8A4211D1616B87
:10274000C0F34622491E91420BD1A16BC0F3064251
:10275000491E914205D1E16BC0F30660491E8142DA
:1027600001D00120D0E7A16C4646D8F80000C0F3A4
:10277000CC00814219D0D9F800004D4620F001006C
:10278000C9F80000FEF74EFB4FEA0007FEF74AFBD0
:10279000B842FBD0A26C306820EA0B0040EAC200CD
:1027A0003060286840F0010028600020ACE700009D
:1027B0002DE9F047040029D0594A4FF0000920685C
:1027C000584B594D9042C4F8289006D0984204D0F6
:1027D000A84202D0E1680F2918D8E1684FF0010A39
:1027E000E76B0831C9080AEB57167143904205D0D0
:1027F000984203D0A84201D0082907D8904203D0BC
:10280000984201D0A84204D1102902D90120BDE884
:10281000F08794F8810020B9204684F8809000F079
:1028200085F8022084F881002068016821F0010108
:1028300001602068A1698268B1F1806F02F4F8112B
:1028400010D16268B2F5800F01D01AB10AE0A26B14
:1028500022B107E0A26BB2F1805F03D1026842F4BB
:10286000805202606068400209D5E068072806D3FC
:102870002068236D026822F480721A4303E0206806
:10288000026822F480720260A66AE069E26B256841
:102890003043E3680A4310431843A860D4E90D02AB
:1028A000D4E90581636A25691843D4F820C00A4336
:1028B000266810432843A56DD4E90172D4E912318A
:1028C00040EA080040EA0C0038430843104318432C
:1028D0002843F060606868B92068816821F4C051BD
:1028E00041F4006181602068816821F4C06141F495
:1028F000806181602068016D21F0010101656068DF
:10290000400206D52068626DC16821F00041114384
:10291000C160C4F8849084F881A0002077E70000AB
:102920000030014000380040003C00402DE9F041FB
:10293000B4B0044614212EA8FDF745FEB821684620
:10294000FDF741FE364D022736494FF00508206855
:10295000103D334E0024884236D181141794002054
:10296000CDE900106846FEF7B3FD08B1FDF791FE12
:10297000306840F480503060306800F4805033900C
:10298000286840F008002860286800F008003390AC
:10299000286840F00200286028682EA9454600F00B
:1029A0000200339080202E90CDE92F741E48CDE98F
:1029B0003148FEF71BF918202E90CDE92F741B48E3
:1029C0002EA9CDE9314526E01949884225D1411487
:1029D00018940020CDE900106846FEF779FD08B193
:1029E000FDF757FE306840F400503060306800F466
:1029F00000503390286840F01000286028684FF499
:102A0000E0412E912EA900F01000CDE92F743194F1
:102A1000CDE932800748FEF7E9F834B0BDE8F0812F
:102A2000F044025800300140000C025800040258E3
:102A3000003401400010025870477047704710B5CD
:102A4000040003D094F83D0010B107E0012010BD50
:102A5000002084F83C00204600F022F8022084F890
:102A60003D002068211D00F0A3FD012084F84800EE
:102A700084F83E0084F83F0084F8400084F8410068
:102A800084F8420084F8430084F8440084F8450048
:102A900084F8460084F8470084F83D00002010BD0B
:102AA0007047000090F83D10012901D001207047C7
:102AB0001A4A022180F83D100168CB6843F00103F7
:102AC000CB60006890421AD0B0F1804F17D0144903
:102AD000884214D01349884211D0134988420ED03D
:102AE000124988420BD01249884208D011498842C5
:102AF00005D01149884202D01049884207D1816827
:102B00000F4A1140062906D0B1F5803F03D0016875
:102B100041F0010101600020704700000000014009
:102B20000004004000080040000C00400004014088
:102B3000001800400040014000E0004000E4004078
:102B40000700010070472DE9F041044600680027A6
:102B5000C6680569A90713D5B10711D5FA1E026128
:102B600001212177206880698007204602D0FFF785
:102B7000E9FF04E000F08BF8204600F089F82777A1
:102B8000680716D5700714D5226802206FF004017B
:102B9000116120772068806910F4407F204602D0C0
:102BA000FFF7D0FF04E000F072F8204600F070F864
:102BB0002777280715D5300713D5226804206FF032
:102BC0000801116120772068C0698007204602D083
:102BD000FFF7B8FF04E000F05AF8204600F058F87C
:102BE0002777E80616D5F00614D5226808206FF07E
:102BF0001001116120772068C06910F4407F2046E1
:102C000002D0FFF79FFF04E000F041F8204600F0FB
:102C10003FF82777E80708D0F00706D021686FF063
:102C200001000861204600F035F8280601D4A80408
:102C300008D5300606D521686FF402500861204699
:102C4000FFF7FBFEE80508D5300606D521686FF4CE
:102C5000807008612046FFF7EFFE680608D5700611
:102C600006D521686FF040000861204600F01CF88E
:102C7000A8060AD5B00608D521686FF020000861C3
:102C80002046BDE8F041FFF7D9BEBDE8F0817047AE
:102C90007047000000680349884201D1FEF7C8B8B8
:102CA0007047000000E00040704730B590F8841095
:102CB000012918D0012280F884202421C0F888102E
:102CC0000022202401680B680D6823F0005325F0D2
:102CD00001050D60426601680B60C0F8884080F80D
:102CE0008420104630BD022030BD70B5044690F8F7
:102CF000840001281DD0012284F884202420C4F8F7
:102D0000880020680568026822F0010202602068DD
:102D1000826822F060620A438260204600F0B8FCBC
:102D20002268202100201560C4F8881084F88400EF
:102D300070BD022070BD70B5044690F88400012873
:102D40001DD0012284F884202420C4F88800206843
:102D50000568026822F0010202602068826822F0A1
:102D600060420A438260204600F092FC22682021E3
:102D700000201560C4F8881084F8840070BD02201B
:102D800070BD10B5040003D0D4F8880010B107E07E
:102D9000012010BD002084F88400204600F026F8B1
:102DA0002420C4F888002068016821F00101016036
:102DB000A06A10B1204600F08DFC204600F06EFDA8
:102DC0000128E6D02068416821F4904141602068E4
:102DD000816821F02A0181602068016841F00101C9
:102DE00001602046BDE8104000F0D8BC10B5B4B07A
:102DF000044614212EA8FDF7E6FBB8216846FDF72E
:102E0000E2FB1949206888422BD100201E90012145
:102E10000446CDE900106846FEF75AFB08B1FDF7FD
:102E200038FC1248016841F010010160006800F0B0
:102E3000100033900D481038016841F00201016024
:102E400000682EAB022100F0020033904FF44040A6
:102E5000042283E8130006482EA9CDE93142FDF78C
:102E6000C5FE34B010BD000000100140F04402580F
:102E700000040258FEE700001648002170B5144C0B
:102E800001228160082504602026C16003240274A9
:102E90000423427481744661C0E90625C0E90842F2
:102EA0008262C262C0E90C218163C163C0E9101370
:102EB000C0E91213C0E914138165C1650166C0E958
:102EC0001913FDF7EDFC002801D072B6FEE770BDC6
:102ED00000A00040880000241648002170B5144C62
:102EE00008258160012304602026C1600324017449
:102EF0000422417481744661C0E90635C0E9084383
:102F00008362C362C0E90C318163C163C0E91012FE
:102F1000C0E91212C0E914128165C1650166C0E9F9
:102F20001912FDF7BDFC002801D072B6FEE770BD96
:102F300000A40040280100241648002170B5144C5C
:102F400008258160012304602026C16003240174E8
:102F50000422417481744661C0E90635C0E9084322
:102F60008362C362C0E90C318163C163C0E910129E
:102F7000C0E91212C0E914128165C1650166C0E999
:102F80001912FDF78DFC002801D072B6FEE770BD66
:102F900000D40040C801002410B586B01421684652
:102FA000FDF711FB2148016841F0800101600168D3
:102FB00001F080010591016841F010010160016894
:102FC00001F010010591016841F002010160016802
:102FD00001F002010591016841F0080101600168FA
:102FE00001F008010591016841F0400101600168AC
:102FF00001F040010591016841F0010101600068A4
:1030000001220B4C802100F0010005902046FDF7C5
:1030100003FF012100228020CDE90001CDE9021249
:1030200069462046FDF7E2FD06B010BDE0440258B7
:103030000018025870B5134803224FF48004104D55
:1030400000212301C0E9021201611A01C0E9051340
:10305000C161016241628162C162C0E90D21C16347
:10306000016441648164C164016541658165C0E9B1
:103070000054FFF79DFB002801D072B6FEE770BD3B
:10308000003001406802002470B5134803224FF459
:103090008004104D00212301C0E9021201611A01D0
:1030A000C0E90513C161016241628162C162C0E988
:1030B0000D21C163016441648164C164016541659E
:1030C0008165C0E90054FFF773FB002801D072B698
:1030D000FEE770BD00340140F002002417480021D3
:1030E00010B5154C0C224FF4E1330460C0E90131F6
:1030F000C160C0E904128161C16101624162816203
:10310000FFF73FFE08B172B6FEE70C480021FFF75B
:1031100012FE08B172B6FEE708480021FFF7E5FD90
:1031200008B172B6FEE70548FFF7BFFD002801D0E1
:1031300072B6FEE710BD00000010014078030024C5
:103140000C48092310B50A4C0222002104600371C7
:10315000C271817142728172C17201738173C173D4
:103160000174FDF791FF002801D072B6FEE710BD93
:10317000000004400C040024FEE7FEE770B5AEB08A
:10318000B8216846FDF71FFA0023192419464FF4A9
:10319000004202208DE81C00C02506ABCDE903509B
:1031A0002026059083E84300020768461B92099198
:1031B000FEF78EF9002801D072B6FEE72EB070BD82
:1031C0002DE9F047454D044689464FF0000A28682E
:1031D000C04380070AD0414E283E306820F080600E
:1031E0003060FDF71FFE0746B04608E00120BDE84D
:1031F000F08700BFFDF716FEC01B022867D8D8F87D
:1032000000000001F6D4206829684FF4FE0721F47D
:103210007C313E0241EA00302860207AA389B4F86C
:1032200004C040022D4D2D495B1E227CACF1010CE7
:103230001035091DA0F5007080B2521ECCF3080CA9
:1032400007EA034340EA0C00184306EA026210430F
:1032500028600868626920F0C000104308600A68AE
:10326000A06922F0200202430A60281D0A6822F0A9
:1032700010020A6002684FF6F873E4699A4342EA62
:10328000C40202600868B9F1000F40F010020A6041
:1032900011D00868B9F1010F11D040F40010086096
:1032A000D8F80000444640F08060C8F80000FDF700
:1032B000B9FD05460DE0086840F40020EFE740F452
:1032C0008010ECE7FDF7AEFD401B022801D903207A
:1032D0008DE720680001F5D5504688E7284402585C
:1032E0002DE9F047454D044689464FF0000A28680D
:1032F000C04380070AD0414E283E306820F08050FD
:103300003060FDF78FFD0746B04608E00120BDE8BC
:10331000F08700BFFDF786FDC01B022867D8D8F8EC
:1033200000008000F6D4208829684FF4FE0721F0C1
:103330007C713E0241EA00502860207AA389B4F8EB
:1033400004C040022D4D2D495B1E227CACF1010CC6
:103350001835091DA0F5007080B2521ECCF3080C80
:1033600007EA034340EA0C00184306EA02621043EE
:1033700028600868626920F44060104308600A68A9
:10338000A06922F4007202430A60281D0A6822F430
:1033900080720A6002684FF6F873E4699A4342EA61
:1033A000C40202600868B9F1000F40F480720A603C
:1033B00011D00868B9F1010F11D040F08070086099
:1033C000D8F80000444640F08050C8F80000FDF7EF
:1033D00029FD05460DE0086840F48000EFE740F461
:1033E0000000ECE7FDF71EFD401B022801D9032079
:1033F0008DE720688000F5D5504688E728440258BC
:10340000012000F094FEFBE7502010B580F31188F6
:10341000BFF34F8FBFF36F8F01F02CFB18B104493E
:103420004FF080500860002080F3118810BD00002C
:1034300004ED00E070B59CB04C216846FDF7C3F880
:10344000202113A8FDF7BFF80220FDF7B9FE1E48A2
:10345000016821F4404101600168002401F4404109
:103460001B9101688904FCD502200A902C23099045
:10347000C20301210D910525CDE90012CDE90B0311
:103480000C261294CDE90E50CDE910646846FEF783
:10349000FBFE08B172B6FEE740201A900823050132
:1034A000CDE9163013ABCDE918053F21032283E89F
:1034B000160013A81146FEF7A9FC002801D072B629
:1034C000FEE71CB070BD0000184802582D48F0B54A
:1034D0002D4A016841F470010160106800F00F008E
:1034E000072804D2106820F00F00C01D1060274983
:1034F0000020264C10340B68254D43F001030B606F
:1035000020600B682B400B60136803F00F03072B40
:1035100004D9136823F00F03DB1D13601B4C1D4AF5
:1035200018341D4B261D371D2060184C1B4D2834A8
:103530003060261D3860371D23603B1D35601C1D23
:103540003A60251D2E1D1860331D226028603260F0
:1035500018600B680D4A0D4C23F48023D4320B60A5
:10356000603420601068C0040BD4136843F2D200AA
:103570000B4943F4805313600860106820F48050B6
:103580001060F0BD88ED00E00020005200440258B9
:103590007FEDF6EA80020101000202020000FF0155
:1035A000004000520148FFF7CEBA0000440B00244F
:1035B0002DE9F0472C4B4FF0804A2C4D0268984281
:1035C0002B4E2C4F2C4C09D0504507D0A84205D08B
:1035D000B04203D0B84201D0A04205D1D1F804C016
:1035E00022F070024CEA0202DFF890C0DFF890800F
:1035F0009842DFF8909015D0504513D0A84211D0D2
:10360000B0420FD0B8420DD0A0420BD0604509D0D7
:10361000404507D0484505D01B4DA84202D01B4D60
:10362000A84203D1CD6822F440722A438E684D69C6
:1036300022F08002C6620E682A439842866207D052
:10364000A04205D0604503D0404501D0484501D196
:10365000096901630368012143F0040303604161C8
:103660000260BDE8F0870000000001400004004057
:1036700000080040000C00400004014000400140F0
:10368000004401400048014000E0004000E40040E8
:1036900030B5416EB9B101680D4B03F108048A6879
:1036A0008968C2F34262490F5D5C615C2D01B5FB24
:1036B000F1F1A0F86A10995CA25C0901B1FBF2F18A
:1036C000A0F8681030BD0121A0F86A10F8E70000EA
:1036D000BC4C000890F82810090706D50168836BD8
:1036E0004A6822F400421A434A6090F82810C90739
:1036F00006D00168C36A4A6822F400321A434A605D
:1037000090F82810890706D50168036B4A6822F4EF
:1037100080321A434A6090F82810490706D501689C
:10372000436B4A6822F480221A434A6090F82810BA
:10373000C90606D50168C36B8A6822F480521A4311
:103740008A6090F82810890606D50168036C8A689B
:1037500022F400521A438A6090F82810490611D5C5
:103760000168436C4A6822F480121A434A60416C33
:10377000B1F5801F06D10168836C4A6822F4C0024B
:103780001A434A6090F82810090606D50168C26CF1
:10379000486820F400201043486070472DE9F84342
:1037A00000250446C0F89050FDF73CFB8046206899
:1037B00020266FF07E470068000713D5002243469D
:1037C00031042046009700F057FA58B1216851E8BB
:1037D000000F20F0800041E80002002AF6D1C4F872
:1037E000886021E020680068400722D50022434617
:1037F0004FF480012046009700F03EFAC8B12068DF
:1038000050E8001F21F4907140E80012002AF6D120
:103810002068083050E8001F21F0010140E8001244
:10382000002AF5D1C4F88C60032084F88450BDE8E8
:10383000F883C4F88860C4F88C60E56625670020CA
:1038400084F88450F3E7000010B5026852E8001FC6
:1038500021F4907142E80013002BF6D10E4B026860
:10386000083252E8001F194042E80014002CF6D13B
:10387000C16E012908D1026852E8001F21F0100131
:1038800042E80013002BF6D100212022C0F88C2042
:10389000C166416710BD0000FEFFFFEF2DE9F04358
:1038A00004468068E24E87B0E24B2168D4E90427E1
:1038B000D4F81CC010430A68002547EA0C073843B7
:1038C000324002430A602068E268416821F44051B6
:1038D000114341602268A1699A4201D0206A0143E4
:1038E0009668DFF854C3D54FD54806EA0C060E4358
:1038F00096602168666ACA6A22F00F023243CA6281
:103900002268BA420ED1006800F0380018286FD043
:103910007ADCB8B308286CD010286BD18BE028284B
:1039200068D18EE0C7498A4209D1006800F00700DB
:1039300006285FD2DFE800F0507D7F818385C24991
:103940008A4209D1006800F0070006287BD2DFE830
:1039500000F0437072747678BC498A4209D10068DD
:1039600000F0070006286ED2DFE800F036636567D6
:10397000696BB7498A420BD1006800F0070006283E
:1039800061D200E043E0DFE800F0275456585A5C6B
:10399000B0498A4206D1006800F0380018284CD09F
:1039A000B7DD31E0AC498A4209D1006800F0070078
:1039B000062848D2DFE800F0103D3F414345A749C3
:1039C0008A420BD1006800F0070006283BD2DFE8EE
:1039D00000F0033032343638002035E0A0498A4206
:1039E00009D1006800F03800182826D091DD0BE0DE
:1039F00023E01EE027E09B498A420AD1006800F0DC
:103A00003800182819D084DD202888D11CE0012036
:103A10001AE09A4217D18A48001D006800F007009A
:103A2000062810D2DFE800F0030507090B0D02207D
:103A30000AE0042008E0082006E0102004E020202E
:103A400002E0402000E080208749DFF820829A428F
:103A5000874A4FF400434FEA21174FF000064ED13A
:103A600010281AD006DC022809D004280BD0082818
:103A70007ED10DE020283ED0402879D13DE0FDF7F1
:103A8000D1FB014610E06846FDF7DEFB01990BE033
:103A900003A8FDF77BFC049906E01068800605D5B5
:103AA0001068C0F3C100C140002970D0606A676827
:103AB00038F8102007EB4703B1FBF2F0834257D8E8
:103AC000B0EB073F54D8002308461946FCF7D2FC58
:103AD00002467808130E120243EA012110183A46F2
:103AE00071410023FCF7C6FC624AA0F54071914287
:103AF0003ED821688FE03946D8E71946D6E7D4F892
:103B00001CC04FF6EF799C4546D1082819D005DC3A
:103B100058B101280CD0042875D10DE0102815D01B
:103B2000202835D040286ED134E0FEF7EDFA01E0D0
:103B3000FEF7FCFA014610E06846FDF785FB0199A7
:103B40000BE003A8FDF722FC049906E0106880064C
:103B500004D51068C0F3C100C140C1B1636A606898
:103B600038F81330B1FBF3F1490001EB500100E0EC
:103B700049E0B1FBF0F0A0F11001494543D84FF600
:103B8000F0732168C0F342021840104343E043E061
:103B90003946E3E71946E1E7082819D005DC58B1B2
:103BA00001280CD004282ED10DE0102815D0202893
:103BB0002BD0402827D12AE0FEF7A6FA01E0FEF735
:103BC000B5FA014610E06846FDF73EFB01990BE0AF
:103BD00003A8FDF7DBFB049906E01068800604D516
:103BE0001068C0F3C100C140B1B1636A606838F8C1
:103BF0001330B1FBF3F101EB5001B1FBF0F0A0F198
:103C00001001494505D9012506E03946EDE7194679
:103C1000EBE7216880B2C8600120A4F86A00A4F82C
:103C2000680028466667A66707B0BDE8F083000015
:103C3000F369FFCF000C0058FFF4FF1100100140A2
:103C4000544402580044004000480040004C0040EA
:103C5000005000400014014000780040007C00400B
:103C600000180140001C01400090D003A44C000843
:103C700000440258FFFC0F002DE9F0479946174613
:103C80000D460446089E4FF0000833E0701C31D00A
:103C9000FDF7C8F8A0EB0900B04218D8BEB1206803
:103CA0000168490726D5802D24D0402D22D0C16936
:103CB000C94309070DD4082505622046FFF7C4FD56
:103CC000C4F89050012084F88480BDE8F087032078
:103CD000FBE7C069C04300050CD421684FF40060C5
:103CE00008622046FFF7B0FD2021C4F8901084F848
:103CF0008480ECE72068C06935EA000004D0002029
:103D0000B842C3D00020E0E70120F9E770B50D46C6
:103D10000446C2F307211E460498012922D0E06818
:103D200040F04000E060204600F03CF8C6F3072178
:103D30000029A16B2ED021F48031A163C5F3074186
:103D400001290ED1E16D154A89B2E165E16D11439A
:103D5000E165A16841F00601A160A16841F0200180
:103D6000A16070BDA26BC3B20D49012B22F480305B
:103D7000A063E06800EA0100E060E06820F4401021
:103D8000E06003D1E06840F48010E060204600F07D
:103D900009F8D3E741F48031CFE700000000EE03DB
:103DA000BFFFBDFF08B500214FF070620091009B7E
:103DB0005B1C009393420CD80369002BF7DA009147
:103DC000016941F0010101610099491C0091914292
:103DD00001D9032008BD0169C907F5D1002008BD3C
:103DE000D0F8001E21F00301C0F8001ED0F804181E
:103DF00041F00201C0F80418002070472DE9F04F8F
:103E000000250F46904604462E46284604EB8001C6
:103E1000C1F80451401C0F28F8D3C3F307405FEAF0
:103E20000009204610D0806B40F40011C4F838100F
:103E3000C8F30720C4F8005E0128204617D0D0F848
:103E4000001841F0030119E0D0F8040840F0020125
:103E5000C4F80418A06B20F40011A163206840F09E
:103E600040012160206840F080012160E0E7D4F843
:103E70000018380E204601D041F00101C0F80018AA
:103E8000102100F093F800B10126204600F072F8EE
:103E900000B101264FF67F3A4FF0006CC4F810587D
:103EA0004FF0904BC4F81458C4F81C580020FAB2D4
:103EB00014E000BF04EB4011D1F80039002B06DA02
:103EC00010B1C1F800B904E0C4F800C901E0C1F8BC
:103ED0000059C1F81059C1F808A9401C8242E9D81C
:103EE000002013E004EB4011D1F8003B002B06DA70
:103EF00010B1C1F800BB04E0C4F800CB01E0C1F888
:103F0000005BC1F8105BC1F808AB401C8242E9D8E5
:103F1000D4F81008C7F30742002A6FF0804120F45C
:103F20008072C4F81028A561616103D1A06940F0D6
:103F30001000A061A069C8F30741094A1043A061BD
:103F400019B1A06940F00800A061B9F1010F03D1D7
:103F5000A06904490843A0613046BDE8F08F000025
:103F600000383C8004000040816821F0010181603C
:103F70000020704708B500214FF070620091009B4F
:103F80005B1C009393420AD80369002BF7DA009177
:103F9000102303610099491C0091914201D903202B
:103FA00008BD0169C906F5D4002008BD18B5002276
:103FB0004FF070630092009C641C00949C420CD8EB
:103FC0000469002CF7DA2024009244EA811101618F
:103FD0000099491C0091994201D9032018BD01693B
:103FE0008906F5D4002018BD70B50446C0680129C3
:103FF0004FF0000520F0C040E06001D079B120E032
:10400000E06840F00050E0600A20FCF737FC60698F
:104010000A3510F0010F10D1C82DF5D30DE0E0687E
:1040200040F08040E0600A20FCF728FC60690A3517
:1040300010F0010F01D0C82DF5D3C82D01D00020FC
:1040400070BD012070BDFEE7090700284FEA11612D
:1040500004DB00F1E02080F80014704700F00F004E
:1040600000F1E02080F8141D7047000092B0002499
:104070000094019402940394FCF780FF01208DF8D2
:104080000C001F218DF8081087228DF809208DF86B
:104090000D008DF8000068468DF80A408DF80E403E
:1040A0008DF8014001948DF80B408DF80F40FCF71E
:1040B00037FF0420FCF770FFFCF7C2FEFFF7BAF9E8
:1040C000FFF75CF8FEF768FFFEF7D6FEFEF704FF89
:1040D000FEF732FFFEF7AEFFFEF7D6FFFFF730F830
:1040E000FEF7FCFF0C491C2204A8FCF73AFA002159
:1040F00004A800F028F8094C1C2207491C31206054
:104100000BA8FCF72EFA00210BA800F01CF8606049
:1041100000F014F8FEE70000104C00080000002436
:10412000842801464FF0000000D0C81C704710B52D
:1041300000B9012000F03AFB002010BD10B500F0DE
:104140005BFB002010BD7FB50D4641690446B0F908
:10415000080081B1A16971B1FFF7E2FFD4E905124E
:104160002B468DE807002269D4E9001000F057FCC7
:10417000039004B070BDFFF7D3FF03A92B46CDE930
:104180000001228AD4E9001092B200F01BFC012841
:1041900001D00020EDE70398EBE700002DE9F041A6
:1041A000184C0F460546E6682068001D00F034FAFA
:1041B00038B922680121206992F82C209140884367
:1041C0002061681C07D137B12168BDE8F0410E4875
:1041D000091D00F067BA20683544B5424560216882
:1041E00005D2A06B091DBDE8F04100F043BA606B39
:1041F000091D00F03FFAA06A854200D2A562BDE821
:10420000F0810000200000246C0C00242DE9F04116
:10421000054600F053FA2E4C2E4FA068401CA060BB
:10422000206810B1606940B32DE02560A0680128C6
:1042300029D1002606EB860007EB800000F00CFA7F
:10424000761C072EF6D323488C3000F005FA21485F
:10425000A03000F001FA1F48B43000F0FDF91D480D
:10426000C83000F0F9F91B48DC3000F0F5F91948C6
:104270008C3060631430A06305E0E86A2168C96A85
:10428000814200D825600120616A491C6162E96AA7
:10429000226988401043206101EB8100291D07EB52
:1042A000800000F0FFF900F029FA606900280CD0C6
:1042B0002068E96AC06A884207D207494FF08050F7
:1042C0000860BFF34F8FBFF36F8FBDE8F081000030
:1042D00020000024900B002404ED00E010B50446FB
:1042E00090F8510058B101280CD002280FD050206E
:1042F00080F31188BFF34F8FBFF36F8FFEE7206B02
:1043000000F010FA2046BDE8104000F00BBA10BDD6
:1043100011484FF4705110B5420706D00E49C01D28
:1043200020F00700411AC1F570510C4C00230144E4
:104330000839A4F1180221F00701C4E900030C1A9E
:1043400011604B600B60C0E9001494604FF00041B5
:104350005460516110BD0000000000207400002472
:10436000144E4FF08058144CDFF85090A6F1C80757
:1043700012E000BF00F0A2F9F068C568281D00F047
:104380004BF9A068401EA0606068401E606000F0AD
:10439000B5F92846FFF7A2FF60680028EAD138681F
:1043A0000128F9D9C9F80080BFF34F8FBFF36F8F91
:1043B000F2E70000580C00242000002404ED00E087
:1043C0002DE9F0479A4681466FF00303DDE9098441
:1043D00003EB8202089E206B104420F00707780749
:1043E00007D0502080F31188BFF34F8FBFF36F8F3A
:1043F000FEE74FF0000561B1002023180A5C83F846
:1044000034200A5C12B1401C1028F6D384F84350C3
:1044100001E084F83450072E00D30626E662201D02
:10442000C4E9116500F023F904F1180000F01FF948
:10443000E564C6F10700A06184F85050524624613B
:1044400049463846646200F0C1F8B8F1000F2060B8
:1044500001D0C8F80040BDE8F087000030B5114930
:1044600000E011460A688242FBD34B685C18844224
:1044700003D14468084623444B6043681D189542A5
:1044800009D1084C183C2468A24209D052681A4449
:1044900042600A6812680260814200D0086030BD44
:1044A0000460F9E7740000240648416B096829B1EB
:1044B000416BC968C9684968816270474FF0FF3134
:1044C000FAE700002000002408484068401C4FF034
:1044D000500080F3118804D0BFF34F8FBFF36F8F6C
:1044E000FEE7BFF34F8FBFF36F8FFEE77C00002422
:1044F0002DE9F0410027044600F0B4F9324E30684F
:1045000008B9FFF705FF706904424ED1C4B30834FF
:1045100060070ED004F00700C0F1080004446007F3
:1045200007D0502080F31188BFF34F8FBFF36F8FF8
:10453000FEE72CB37068844237D823481830014610
:104540000D6801E028460D466968A14202D229683B
:104550000029F7D131688D4227D0076829680160AA
:1045600008376868011B10290FD92819420708D09D
:10457000502080F31188BFF34F8FBFF36F8FFEE79A
:1045800013E041606C60FFF769FF69687068401A6A
:104590007060B268904200D2B0600020726911432E
:1045A000C5E90001F068401CF06000F0C9FA780726
:1045B00007D0502080F31188BFF34F8FBFF36F8F68
:1045C000FEE73846BDE8F0815C00002470B5041FAA
:1045D000094E231F4FF0807521F0010125601C1F3B
:1045E0001960A0F120010B1F266044380A606FF0AB
:1045F00002051D6070BD0000C9440008054C4FF461
:10460000FA7580212046FCF7FFFB2846FFF78FFD57
:10461000F7E7000000180258D0E9013201699A60FA
:10462000D0E901235A604A68824201D182684A6017
:10463000002202610868401E086008687047000098
:1046400010B5044C8023046004F15400086013602A
:1046500010BD0000F00800244FF0FF3300F1080106
:104660000022C0E901130260C160016170470021AE
:104670000161704730B50B685A1C02D000F1080286
:1046800002E0026904E02246546825689D42FAD996
:1046900053684B6099608A60516008610168491CE9
:1046A000016030BD42684A6093688B6093685960CE
:1046B000916008610168491C01607047502080F3D7
:1046C0001188BFF34F8FBFF36F8F0A494868401CB2
:1046D000486001280CD10848006810F0FF0F07D08F
:1046E000502080F31188BFF34F8FBFF36F8FFEE729
:1046F000704700007C00002404ED00E00849486891
:1047000028B1401E486001D180F3118870475020C5
:1047100080F31188BFF34F8FBFF36F8FFEE7000068
:104720007C00002470B500282AD0164DA0F10804A2
:1047300061686869014207D1502080F31188BFF396
:104740004F8FBFF36F8FFEE722683AB1502080F39E
:104750001188BFF34F8FBFF36F8FFEE78143616016
:1047600000F080F860686968084468602046FFF7D8
:1047700075FE2869401C2861BDE8704000F0E0B972
:1047800070BD00005C0000244FF0E02000210161BA
:104790004FF47A728161072303490968B1FBF2F192
:1047A000491E41610361704718000024020010B5E2
:1047B00014D00F48006B38B1502080F31188BFF33C
:1047C0004F8FBFF36F8FFEE700F04CF800211046CB
:1047D000FFF7E4FC00F0B4F9002807D105494FF0D9
:1047E00080500860BFF34F8FBFF36F8F10BD000084
:1047F0002000002404ED00E010B586B0002405AAD6
:1048000004A9039403A80494FFF71AFFDDE9030148
:1048100000940023CDE9011010480EA1059A00F084
:10482000FEF80F490028C86211D0502080F311888B
:10483000BFF34F8FBFF36F8F01224FF0FF308862BD
:104840004A61CC6006B0BDE8104000F041B806B047
:1048500010BD000049444C450000000061430008C1
:10486000200000240248016B491C016370470000CE
:10487000200000241448016B11B10121C16170476F
:104880000021C16111490269B2FA82F2C2F11F022C
:1048900002EB820251F822306BB101EB820101F18F
:1048A00008034A6852684A609A4201D152684A60D5
:1048B000D16801607047502080F31188BFF34F8F9B
:1048C000BFF36F8FFEE7000020000024900B002450
:1048D00037481CB5374902688A4207D1502080F317
:1048E0001188BFF34F8FBFF36F8FFEE73149006828
:1048F000491E884207D1502080F31188BFF34F8FA3
:10490000BFF36F8FFEE72C49FF200A7801920870F1
:1049100008788DF800009DF800209DF8000002F056
:10492000F002824207D0502080F31188BFF34F8FEE
:10493000BFF36F8FFEE79DF8002007201F4C02F0A9
:1049400050022270A06005E09DF8002052008DF812
:104950000020401E9DF800201206F5D40328A06018
:1049600007D0502080F31188BFF34F8FBFF36F8FB4
:10497000FEE74FF44070A060019808700C482030AA
:10498000016841F470010160016841F0704101600B
:10499000FFF7FAFE00206060FBF70CFD0848016895
:1049A00041F040410160FBF7F1FC00201CBD00001C
:1049B00000ED00E071C20F4100E400E07C00002443
:1049C00034EF00E02DE9FF5F994616468A4683469C
:1049D0009000DDE90E87FFF78BFD05001CD0542009
:1049E000FFF786FD040014D00020256384F85100F1
:1049F0004B46CDE90087CDE9024032465146584644
:104A0000FFF7DEFC2046FFF701FC012004B0BDE803
:104A1000F09F2846FFF786FE4FF0FF30F6E7F0B52F
:104A200085B0DDE90B740A9DA7B1DCB1542627637C
:104A3000022684F85160002703970DF1100C0095B1
:104A4000CDE901C4FFF7BCFC2046FFF7DFFB04986B
:104A500005B0F0BD502080F31188BFF34F8FBFF336
:104A60006F8FFEE7502080F31188BFF34F8FBFF3A5
:104A70006F8FFEE72DE9F0412F4C206B002728B106
:104A8000A069401CA0613846BDE8F081E668761C4C
:104A9000E66013D1606B006838B1502080F3118854
:104AA000BFF34F8FBFF36F8FFEE7606BA16B616346
:104AB000A063206A401C2062FFF7F6FCDFF87C80D0
:104AC000A06A864209D3606B0068A0B1606BC068C1
:104AD000C5686868864211D2A0622068C06A00EB8F
:104AE000800158F82100012800D90127E069002839
:104AF000C9D00127C7E74FF0FF30EDE7281DFFF7CA
:104B00008BFDA86A18B105F11800FFF785FDE96A69
:104B10000120226988401043206101EB810108EBEC
:104B20008100291DFFF7BEFD2068E96AC06A814245
:104B3000C9D30127C7E7000020000024900B002400
:104B40002DE9F0472C4D286B0024264638B1FFF79D
:104B5000B5FD286B401E2863286B40B147E050200C
:104B600080F31188BFF34F8FBFF36F8FFEE7234FA2
:104B70000120A968D9B3A7F1B40980463868E8B123
:104B8000F868C46804F11800FFF746FD201DFFF720
:104B900043FDE16A2A6908FA01F01043286101EB3C
:104BA000810109EB8100211DFFF77CFD2968E06A86
:104BB000C96A8842E2D3C5F81C80DFE70CB1FFF771
:104BC00073FCAC6944B14746FFF754FF00B1EF6195
:104BD000641EF9D10020A861E86940B108490126A6
:104BE0004FF080500860BFF34F8FBFF36F8FFFF718
:104BF00085FD3046BDE8F08720000024440C0024E9
:104C000004ED00E04FF04070E1EE100A7047000044
:104C1000DC4C000801340008000000000000000027
:104C2000800000000000000000000000E84C0008C8
:104C3000FD450008FEFF00000000000080000000AD
:104C40000000000000000000000102030405060748
:104C5000080C101418203040000000000000000074
:104C60000000000000000000000000000100000043
:104C7000020000000300000004000000000000002B
:104C8000050000000000000000000000000000001F
:104C9000060000000000000000000000000000000E
:104CA00007000000010002000400060008000A00DE
:104CB0000C001000200040008000000101010103F1
:104CC00007010000080402040801010100000000BF
:104CD0000102030401020304060708096465666112
:104CE000756C745461736B004865617274426561E0
:104CF00074000000244D000800000024880000001B
:104D000008030008244D000800000020003C0000BB
:104D100024030008AC4D000888000024581200004D
:104D20002403000800000000000000000000000054
:104D30000100000010000000000000000090D003FF
:104D40000090D00300000000000000000000000000
:104D50000000000000000000000000000000000053
:104D60000000000000000000000000000000000043
:104D70000000000000000000000000000000000033
:104D80000000000000000000000000000000000023
:104D90000000000000000000000000000000000013
:0C4DA00000000000AAAAAAAA000000005F
:04000005080002CD20
:00000001FF
