:020000040800F2
:10000000780A00242D0400087B16000877160008E3
:10001000791600089F050008091900080000000073
:100020000000000000000000000000006D03000858
:10003000A105000800000000C9030008851600089B
:100040004B0400084B0400084B0400084B04000854
:100050004B0400084B0400084B0400084B04000844
:100060004B0400084B0400084B0400084B04000834
:100070004B0400084B0400084B0400084B04000824
:100080004B0400084B0400084B0400084B04000814
:100090004B0400084B0400084B0400084B04000804
:1000A0004B0400084B0400084B0400084B040008F4
:1000B0004B0400084B0400084B0400084B040008E4
:1000C0004B0400084B0400084B0400084B040008D4
:1000D0004B0400084B0400084B0400084B040008C4
:1000E0004B0400084B040008000000004B0400080B
:1000F0004B0400084B0400084B0400084B040008A4
:100100004B0400084B0400084B0400084B04000893
:100110004B0400084B0400084B0400084B04000883
:100120004B0400084B0400084B0400084B04000873
:100130004B0400084B0400084B0400084B04000863
:1001400000000000000000000000000000000000AF
:100150004B0400084B0400084B0400084B04000843
:100160004B0400084B0400084B0400084B04000833
:100170004B0400084B0400084B040008000000007A
:100180004B0400084B0400084B0400084B04000813
:100190004B0400084B0400084B0400084B04000803
:1001A0004B0400084B0400084B040008000000004A
:1001B0004B0400084B0400084B0400084B040008E3
:1001C0004B0400084B040008000000000000000081
:1001D00000000000000000004B04000800000000C8
:1001E000000000000000000000000000000000000F
:1001F00000000000000000004B0400084B04000851
:100200004B0400084B040008000000004B040008E9
:100210004B0400084B0400084B0400084B04000882
:100220004B040008000000004B0400080000000020
:100230004B0400084B040008000000004B040008B9
:100240004B0400084B0400084B0400084B04000852
:100250004B0400084B0400084B0400084B04000842
:100260004B0400084B0400084B0400084B04000832
:100270004B0400084B0400084B0400080000000079
:100280004B0400084B0400084B0400084B04000812
:10029000000000004B0400084B04000800000000B0
:1002A000000000004B0400084B0400084B04000849
:1002B0004B0400084B0400084B0400084B040008E2
:1002C0004B0400081D1800084B04000800F002F859
:1002D00000F03CF80AA090E8000C82448344AAF1A4
:1002E0000107DA4501D100F031F8AFF2090EBAE8A2
:1002F0000F0013F0010F18BFFB1A43F0010318475A
:100300005C2200008C220000103A24BF78C878C11B
:10031000FAD8520724BF30C830C144BF04680C600B
:10032000704700000023002400250026103A28BF53
:1003300078C1FBD8520728BF30C148BF0B60704757
:100340001FB502F0D5F81FBD10B510BD00F0EEF8D6
:100350001146FFF7F5FF01F0E9FA00F00CF903B4DC
:10036000FFF7F2FF03BC00F013F900002C4B1968F3
:100370000868B0E8F04F80F30988BFF36F8F4FF043
:10038000000080F3118870470000000008480068F2
:10039000006880F308884FF0000080F3148862B68C
:1003A00061B6BFF34F8FBFF36F8F00DF00BF00BF99
:1003B00008ED00E0DFF80C00016841F47001016015
:1003C000704700BF88ED00E0EFF30980BFF36F8F47
:1003D000134B1A681EF0100F08BF20ED108A20E999
:1003E000F04F106009B44FF0500080F31188BFF354
:1003F0004F8FBFF36F8F01F0B3FE4FF0000080F31B
:10040000118809BC19680868B0E8F04F1EF0100F99
:1004100008BFB0EC108A80F30988BFF36F8F704774
:100420001C000024EFF30580704700000A48804755
:100430000A4880470A480047FEE7FEE7FEE7FEE776
:10044000FEE7FEE7FEE7FEE7FEE7FEE705480649B2
:10045000064A074B70470000A5050008451700082D
:10046000CD02000878040024780A002478060024CD
:100470007806002410B5203AC0F00B80B1E818507F
:10048000203AA0E81850B1E81850A0E81850BFF47E
:10049000F5AF5FEA027C24BFB1E81850A0E818501D
:1004A00044BF18C918C0BDE810405FEA827C24BF71
:1004B00051F8043B40F8043B08BF7047D20728BFFF
:1004C00031F8023B48BF11F8012B28BF20F8023B4E
:1004D00048BF00F8012B70474FF0000200B51346EB
:1004E00094469646203922BFA0E80C50A0E80C5054
:1004F000B1F12001BFF4F7AF090728BFA0E80C5005
:1005000048BF0CC05DF804EB890028BF40F8042BFD
:1005100008BF704748BF20F8022B11F0804F18BF6A
:1005200000F8012B7047704770477047754600F020
:100530002BF8AE4605006946534620F00700854675
:1005400018B020B5FFF782FFBDE820404FF000064D
:100550004FF000074FF000084FF0000B21F00701AB
:10056000AC46ACE8C009ACE8C009ACE8C009ACE8EE
:10057000C0098D46704710B50446AFF30080204691
:10058000BDE81040FFF7EBBE00487047140400249C
:1005900001491820ABBEFEE7260002007047FEE7C7
:1005A00070470000054805490839026842F0020218
:1005B000026008688004FCD5704700000C480258AF
:1005C0002DE9F84F03247A4D00234FF001094FF035
:1005D000B04B4FF00F0AE4E009FA03F6324078D04E
:1005E0000F7907F00307012F01D0022F1AD1876876
:1005F0004FEA430ED1F80CC004FA0EF827EA0807B8
:100600000CFA0EFC4CEA070CC0F808C0476891F8D9
:1006100004C0B743CCF3001C0CFA03FC4CEA070CF3
:10062000C0F804C00E79F643B6070BD0C6684FEA8F
:1006300043088F6804FA08FC26EA0C0607FA08F754
:100640003743C7600E7906F00306022E12D1DE088A
:100650000F694FEA437C00EB8606B646366A4FEADE
:10066000DC6C0AFA0CF807FA0CF726EA080637439E
:10067000CEF820700F7906684FEA430807F00307A9
:1006800004FA08FC07FA08F726EA0C063743076065
:100690004E6816F4403F1CD0464E376847F00207BC
:1006A000376036689F0706F00206009623F00306BF
:1006B00006F1B046B6463F0FD6F80864DFF8F8807A
:1006C0000AFA07FC404526EA0C0603D14FF0000C5D
:1006D0003AE065E0DFF8E4C0604502D14FF0010C7C
:1006E00032E0DFF8DCC0604502D14FF0020C2BE0B5
:1006F000DFF8D0C0604502D14FF0030C24E0DFF8F2
:10070000C8C0604502D14FF0040C1DE0DFF8BCC04A
:10071000604502D14FF0050C16E0DFF8B4C060452B
:1007200002D14FF0060C0FE0DFF8A8C0604502D1FF
:100730004FF0070C08E0DFF8A0C0604502D14FF091
:10074000090C01E04FF00A0C0CFA07FC4CEA060C0D
:10075000CEF808C44F68DBF80060FF0226EA020604
:1007600000D516435F46CBF80060D1F804C0DBF833
:1007700004605FEA8C2C26EA020600D516437E60F0
:100780006E684F6826EA0206BF0300D516436E6006
:100790002E684F6826EA0206FF0300D516432E6036
:1007A0005B1C0A6832FA03F67FF416AFBDE8F88FD7
:1007B00080000058F4440258000002580004025817
:1007C00000080258000C0258001002580014025889
:1007D00000180258001C025800240258426921EAFD
:1007E00002030A4043EA0241816170470AB1816114
:1007F00070470904FBE7000001488068704700006B
:100800000800002402488168027811448160704722
:1008100008000024032010B500F0FAF800F0C4FA34
:100820000F4A104914681368C4F3032203F00F033E
:100830008A5CC95C02F01F0201F01F01D0400A4A25
:1008400020FA01F11160094908600F2000F010F84A
:1008500008B1012010BD00F09BF8002010BD000081
:1008600018440258342500081800002414000024FD
:1008700010B5102804468AB02AD200220146A120D1
:1008800000F0A6F8A12000F095F81548046015487E
:10089000016841F080710160006808A900F0807073
:1008A0000990684600F01EFA00F06CFA0E4940000C
:1008B00000220E4CB0FBF1F10D4840F2E73304602A
:1008C000C0E90332491EC0E9011200F09FFD10B1DA
:1008D00001200AB010BD064800F0CAFDF9E700008B
:1008E0000C000024EC44025840420F0000E000409D
:1008F000D8020024154BF0B5083B427813491A6022
:100900000B680A1F23F001030B6043681360057B2B
:10091000C67A827A437B2D07847B45EA0665C77BCE
:1009200090F809C0067A90F800E045EAC24040EA33
:10093000834040EA444040EA074040EA0C2040EA55
:10094000460040EA0E000860F0BD0000A0ED00E0A7
:10095000BFF35F8F044800210368034A23F4803308
:10096000036070321160704724ED00E0074A40F0E8
:100970000100064970321060086840F48030086059
:10098000BFF34F8FBFF36F8F7047000024ED00E07F
:10099000074882B0016841F002010160006800224E
:1009A0000F2100F002000090901E02B000F010B87D
:1009B000F4440258002809DB410900F01F028900B5
:1009C000012001F1E0219040C1F8000170470000D2
:1009D0000E4BF0B41B680D46C3F30223C3F10706A8
:1009E000042E00D90426191D072901D2002300E096
:1009F000DB1E012404FA06F19C40491E2940641EB6
:100A0000994014402143F0BC00F07FBF0CED00E0A2
:100A1000064900F0070210B54FF6FF040868044BC2
:100A2000204040EA02201843086010BD0CED00E0B1
:100A30000000FA05134970B50A68D243520705D57C
:100A4000096801F00701814213D118E00A6822F019
:100A5000070202430A60FFF7CFFE0A4D4FF47A7691
:100A60000446083D07E000BFFFF7C6FE001BB0428A
:100A700001D9012070BD2868C0438004F4D400204F
:100A800070BD00000C4802582DE9F05F04000F46CD
:100A90007ED0DFF83882D8F8000000F00F00B842AE
:100AA0000CD2D8F8001021F00F013943C8F800101B
:100AB000D8F8000000F00F00B84269D12078844DCA
:100AC00040070AD52069296801F07001884204D9DD
:100AD000296821F070010143296020787C4E361D81
:100AE00000070AD56069316801F07001884204D9B5
:100AF000316821F07001014331602078C0060AD5C9
:100B0000A069316801F4E061884204D9316821F4B8
:100B1000E061014331602078DFF8B4B180060BF169
:100B2000080B0CD5E1695846DBF8002002F0700292
:100B3000914204D9026822F070020A4302602078D0
:100B400080070AD5E068296801F00F01884204D9BE
:100B5000296821F00F01014329602078C0073ED0A9
:100B60005B49A2682868183920F470601043286037
:100B70006068022818D0032819D00968012819D004
:100B8000490700294ADADFF848A1AAF1080A00E07B
:100B900044E0DAF8002022F007020243CAF80020FD
:100BA000FFF72AFE814612E009688903E9E7096830
:100BB0008901E6E7C905E4E7FFF71EFEA0EB09019E
:100BC00041F28830814202D90320BDE8F09F61687C
:100BD000DAF8000000F03800B0EBC10FECD120785B
:100BE00080070AD5E068296801F00F01884204D225
:100BF000296821F00F0101432960D8F80010404610
:100C000001F00F01B9420BD9016821F00F013943FE
:100C10000160006800F00F00B84201D00120D4E765
:100C2000207840070AD52069296801F070018842C0
:100C300004D2296821F0700101432960207800075F
:100C40000AD56069316801F07001884204D23168C8
:100C500021F07001014331602078C0060AD5A069F7
:100C6000316801F4E061884204D2316821F4E06126
:100C700001433160207880060CD5E1695846DBF8E5
:100C8000002002F07002914204D2026822F0700249
:100C90000A43026000F088F80E492A682B68C2F304
:100CA000032203F00F038A5CC95C02F01F0201F00B
:100CB0001F01D040084A20FA01F11160074908607D
:100CC00007480068BDE8F05FFFF7D2BD0020005282
:100CD0001844025834250008180000241400002489
:100CE0000C00002470B5144C3F220260124A2468A4
:100CF0000832131D114D04F00704446016681C1DD2
:100D000006F470668660166806F00F06C660126804
:100D100002F0700202611A6802F0700242611A6801
:100D200002F4E0628261226802F07002C261286807
:100D300000F00F00086070BD1044025800200052FF
:100D400030B500F031F80B4A0B490C4B15681468AC
:100D5000C5F3032204F00F048A5C095D02F01F0250
:100D600001F01F01D040064A20FA01F1196010601D
:100D7000084630BD184402583425000818000024E5
:100D80001400002400B5FFF7DBFF05490968054A98
:100D9000C1F30221515C01F01F01C84000BD0000F9
:100DA0001C44025834250008454970B54548096877
:100DB000434B103B11F0380208D00111082A03D030
:100DC000102A0BD0182A0BD0084670BD1968890666
:100DD000FBD51968C1F3C101C84070BD3A4870BD68
:100DE0003749374D18310C1D24350A6809682668C3
:100DF0002D6802F0030406F00102C1F30511C5F3EA
:100E0000CC0515FB02F200EE102AB8EE400AE9B359
:100E10002F4ADFED2E0AB7EE001A6CB1DFED2D1A66
:100E2000012C01D0022C43D002EE101A1068F8EE0B
:100E3000422A81EEA22A1EE01C68A40611D51B6876
:100E400001EE901A1168C3F3C103F8EE612AD8408D
:100E500001EE900AC1F30800F8EE611A81EEA22AB1
:100E60000BE001EE901ADFED1C2A00BFF8EE611ACC
:100E7000106882EEA12AC0F3080001EE900AF8EE95
:100E8000611A40EE201A31EE810A00E015E022EEF0
:100E9000000A1068C0F34620401C00EE900AF8EEED
:100EA000600A80EE201ABCEEC10A10EE100A70BD76
:100EB00001EE901ADFED092AD8E7002070BD00008E
:100EC000104402580090D00340787D0100000039A2
:100ED000304402580024744A0024744C20BCBE4B99
:100EE0002DE9F05F04007DD0FF4F2078FE4D1837CC
:100EF000DFF8F483103DC00748D0D8F80000396807
:100F000000F03800102815D0182803D101F0030094
:100F100002280FD06068B0F5803F12D010B1B0F554
:100F2000A02F18D0286820F480302860286820F48A
:100F3000802009E02868800328D560680028D2D086
:100F400024E0286840F480302860606888B1FFF7AA
:100F500053FC064609E0286840F480202860F0E74A
:100F6000FFF74AFC801B64287ED828688003F7D5E9
:100F70000CE0FFF741FC064605E000BFFFF73CFC34
:100F8000801B6428F0D828688003F7D42078800775
:100F900056D5D8F80000DFF85093396810F03800C3
:100FA000A9F10C090ED0182801D188070AD0E068F1
:100FB000A8B3296821F0190101432960FFF71CFC3F
:100FC000064628E02868400702D5E06800288AD055
:100FD000E168286820F0190008432860FFF70CFC3E
:100FE000064606E0D2E000BFFFF706FC801B0228A1
:100FF000BAD828684007F7D5217CD9F8002022F01C
:10100000FE4242EA0161C9F8001019E0FFF7F4FB63
:10101000801B0228A8D828684007F7D5ECE7FFE72F
:10102000286820F001002860FFF7E6FB064604E090
:10103000FFF7E2FB801B022896D828684007F7D408
:101040002078C00646D5D8F80000DFF89C923968B1
:1010500000F03800A9F10409082812D0182805D199
:1010600001F00300012800E0CEE00AD0E06900288A
:10107000286820D040F080002860FFF7BDFB0646BE
:1010800015E02868C00502D5E06980287ED194F873
:101090002010D9F8002022F07C5242EA0161C9F800
:1010A000001017E0FFF7A8FB801B0228A0D82868D3
:1010B000C005F7D5EBE720F080002860FFF79CFB28
:1010C000064604E0FFF798FB801B022890D82868AA
:1010D000C005F7D42078000729D5834861696430BA
:1010E00000298146016811D041F001010160FFF73C
:1010F00083FB064605E000BFFFF77EFB801B02284E
:1011000088D8D9F800008007F6D510E021F0010159
:101110000160FFF771FB064605E000BFFFF76CFBBF
:10112000801B022870D8D9F800008007F6D42078F8
:10113000800623D5A0690028286810D040F480508C
:101140002860FFF759FB064605E000BFFFF754FB98
:10115000801B022858D828688004F7D50EE020F4B8
:1011600080502860FFF748FB064604E0FFF744FB89
:10117000801B022848D828688004F7D420784007CC
:1011800051D5DFF86891D9F8001000E015E141F47D
:101190008071C9F80010FFF72FFB064605E000BF7D
:1011A000FFF72AFB801B64282ED8D9F80000C00561
:1011B000F6D54D4EA068603601280AD008B1052842
:1011C00013D0306820F001003060306820F0040057
:1011D00002E0306840F001003060A06841F2883AD7
:1011E00098B1FFF709FB81460AE0306840F004003F
:1011F0003060EEE7FFF700FBA0EB0901514503D893
:1012000030688007F6D50EE072E0FFF7F5FA814608
:1012100006E000BFFFF7F0FAA0EB0901514567D8DF
:1012200030688007F6D4606A00287CD0DFF8B8A068
:10123000D8F800100AF1200A4FF6F87B0AF10408EA
:10124000C1F3C2010329AAF104096DD0022828685C
:1012500020F08070286003D0FFF7CEFA044681E0CA
:10126000FFF7CAFA064604E0FFF7C6FA801B022819
:1012700075D828688001F7D4E26A40F2F331386803
:1012800054F8283F884340EA021018433860217B15
:101290004FF4FE0C22894FF0FE47208A4902267D3A
:1012A000521E401EA1F5007189B2C2F3080211431B
:1012B000761E0CEA00400143484607EA06621143E5
:1012C000CAF80010D9F8001021F00101C9F8001087
:1012D000D8F80030266A23EA0B0343EAC601C8F8AF
:1012E0000010D9F8001004E01044025800480258D9
:1012F00035E0A26921F00C011143C9F80010016822
:10130000E26921F0020111430160016841F480317A
:101310000160016841F400310160016841F48021FD
:101320000160016801E06CE020E041F00101016032
:10133000286840F080702860FFF75EFA044604E0F9
:10134000FFF75AFA001B022809D828688001F7D550
:1013500057E000BFFFF750FA001B022802D9032014
:10136000BDE8F09F28688001F4D44AE0396801287C
:10137000DAF8000021D0A26A01F0030393421CD1E5
:10138000E26AC1F305118A4217D1216BC0F308024A
:10139000491E8A4211D1616BC0F34622491E914217
:1013A0000BD1A16BC0F30642491E914205D1E16BFE
:1013B000C0F30660491E814201D00120D0E7A16C34
:1013C0004646D8F80000C0F3CC00814219D0D9F8C5
:1013D00000004D4620F00100C9F80000FFF70CFAAC
:1013E0004FEA0007FFF708FAB842FBD0A26C30685A
:1013F00020EA0B0040EAC2003060286840F001009B
:1014000028600020ACE770477047704710B50400B3
:1014100003D094F83D0010B107E0012010BD00207A
:1014200084F83C00204600F022F8022084F83D00B9
:101430002068211D00F0F8F9012084F8480084F8A4
:101440003E0084F83F0084F8400084F8410084F8AE
:10145000420084F8430084F8440084F8450084F88E
:10146000460084F8470084F83D00002010BD704716
:1014700090F83D10012901D0012070471A4A02213D
:1014800080F83D100168CB6843F00103CB60006831
:1014900090421AD0B0F1804F17D01449884214D02E
:1014A0001349884211D0134988420ED0124988420C
:1014B0000BD01249884208D01149884205D0114901
:1014C000884202D01049884207D181680F4A1140F2
:1014D000062906D0B1F5803F03D0016841F0010133
:1014E000016000207047000000000140000400403F
:1014F00000080040000C00400004014000180040BB
:101500000040014000E0004000E40040070001000E
:1015100070472DE9F041044600680027C668056958
:10152000A90713D5B10711D5FA1E02610121217750
:10153000206880698007204602D0FFF7E9FF04E0B9
:1015400000F08BF8204600F089F82777680716D559
:10155000700714D5226802206FF004011161207712
:101560002068806910F4407F204602D0FFF7D0FF4A
:1015700004E000F072F8204600F070F827772807A2
:1015800015D5300713D5226804206FF008011161CA
:1015900020772068C0698007204602D0FFF7B8FF97
:1015A00004E000F05AF8204600F058F82777E806E3
:1015B00016D5F00614D5226808206FF010011161CD
:1015C00020772068C06910F4407F204602D0FFF7E2
:1015D0009FFF04E000F041F8204600F03FF8277735
:1015E000E80708D0F00706D021686FF00100086115
:1015F000204600F035F8280601D4A80408D53006A6
:1016000006D521686FF4025008612046FFF7FCFE02
:10161000E80508D5300606D521686FF480700861AA
:101620002046FFF7F0FE680608D5700606D521684B
:101630006FF040000861204600F01CF8A8060AD5AB
:10164000B00608D521686FF0200008612046BDE88B
:10165000F041FFF7DABEBDE8F08170477047000047
:1016600000680349884201D1FFF7CCB870470000F9
:1016700000E000407047FEE7FEE7FEE7012000F0D3
:10168000CCF9FBE7502010B580F31188BFF34F8FE2
:10169000BFF36F8F00F064FE18B104494FF0805023
:1016A0000860002080F3118810BD000004ED00E008
:1016B00030B59DB04C216846FEF70EFF202113A8DF
:1016C000FEF70AFF0220FFF7B5F91D48016821F473
:1016D000404101600168002401F440411B91016810
:1016E0008904FCD502200A902C230990C203012111
:1016F0000C25CDE90012CDE90B03CDE90D10CDE9A4
:1017000010540F9068461294FFF7EAFB08B172B6C6
:10171000FEE740201A9008230501CDE9163013ABEF
:10172000CDE918053F21032283E8160013A81146CE
:10173000FFF7AAF9002801D072B6FEE71DB030BD50
:10174000184802582D48F0B52D4A016841F470013F
:101750000160106800F00F00072804D2106820F024
:101760000F00C01D106027490020264C10340B6864
:10177000254D43F001030B6020600B682B400B608C
:10178000136803F00F03072B04D9136823F00F032A
:10179000DB1D13601B4C1D4A18341D4B261D371DC5
:1017A0002060184C1B4D28343060261D3860371DD2
:1017B00023603B1D35601C1D3A60251D2E1D1860E1
:1017C000331D22602860326018600B680D4A0D4C92
:1017D00023F48023D4320B60603420601068C0048E
:1017E0000BD4136843F2D2000B4943F480531360C7
:1017F0000860106820F480501060F0BD88ED00E0B3
:1018000000200052004402587FEDF6EA80020101F8
:10181000000202020000FF01004000520148FFF7F1
:1018200078BE0000D80200242DE9F0472C4B4FF081
:10183000804A2C4D026898422B4E2C4F2C4C09D0DC
:10184000504507D0A84205D0B04203D0B84201D0DD
:10185000A04205D1D1F804C022F070024CEA020285
:10186000DFF890C0DFF890809842DFF8909015D0B4
:10187000504513D0A84211D0B0420FD0B8420DD07D
:10188000A0420BD0604509D0404507D0484505D05F
:101890001B4DA84202D01B4DA84203D1CD6822F4B3
:1018A00040722A438E684D6922F08002C6620E683B
:1018B0002A439842866207D0A04205D0604503D0F3
:1018C000404501D0484501D1096901630368012100
:1018D00043F00403036041610260BDE8F08700004B
:1018E000000001400004004000080040000C0040DF
:1018F0000004014000400140004401400048014014
:1019000000E0004000E40040FEE7090700284FEA3D
:10191000116104DB00F1E02080F80014704700F052
:101920000F0000F1E02080F8141D704794B00024EF
:101930000E940F9410941194FFF70AF801258DF876
:1019400044501F208DF8400087218DF841108DF8FC
:1019500045500EA88DF838508DF842408DF846401D
:101960008DF839400F948DF843408DF84740FEF7CD
:10197000C1FF0420FEF7FAFFFEF74CFFFFF798FEC9
:1019800014210EA8FEF7A8FD1C48016841F0800153
:101990000160016801F080011391016841F040018C
:1019A000016000680122164E802100F04000139073
:1019B0003046FEF71BFF8020CDE90E05CDE910541F
:1019C0000EA93046FEF7FCFD0E491C226846FEF7C4
:1019D00051FD0021684600F02CF80B4C1C220949EF
:1019E0001C31206007A8FEF745FD002107A800F084
:1019F00020F8606000F018F8FEE70000E0440258AC
:101A000000180258FC240008000000248428014625
:101A10004FF0000000D0C81C704710B500B901207D
:101A200000F03AFB002010BD10B500F05BFB002079
:101A300010BD7FB50D4641690446B0F9080081B17B
:101A4000A16971B1FFF7E2FFD4E905122B468DE8D9
:101A500007002269D4E9001000F057FC039004B09D
:101A600070BDFFF7D3FF03A92B46CDE90001228A01
:101A7000D4E9001092B200F01BFC012801D0002034
:101A8000EDE70398EBE700002DE9F041184C0F4615
:101A90000546E6682068001D00F034FA38B922686F
:101AA0000121206992F82C20914088432061681C14
:101AB00007D137B12168BDE8F0410E48091D00F09B
:101AC00067BA20683544B5424560216805D2A06BED
:101AD000091DBDE8F04100F043BA606B091D00F03C
:101AE0003FFAA06A854200D2A562BDE8F0810000FD
:101AF0001C000024000400242DE9F041054600F0FC
:101B000053FA2E4C2E4FA068401CA060206810B1E4
:101B1000606940B32DE02560A068012829D1002626
:101B200006EB860007EB800000F00CFA761C072E0F
:101B3000F6D323488C3000F005FA2148A03000F09D
:101B400001FA1F48B43000F0FDF91D48C83000F01C
:101B5000F9F91B48DC3000F0F5F919488C30606366
:101B60001430A06305E0E86A2168C96A814200D8A0
:101B700025600120616A491C6162E96A2269884026
:101B80001043206101EB8100291D07EB800000F06C
:101B9000FFF900F029FA606900280CD02068E96A92
:101BA000C06A884207D207494FF080500860BFF3EF
:101BB0004F8FBFF36F8FBDE8F08100001C00002441
:101BC0002403002404ED00E010B5044690F8510011
:101BD00058B101280CD002280FD0502080F3118872
:101BE000BFF34F8FBFF36F8FFEE7206B00F010FA4B
:101BF0002046BDE8104000F00BBA10BD11484FF46C
:101C0000705110B5420706D00E49C01D20F00700E4
:101C1000411AC1F570510C4C002301440839A4F15C
:101C2000180221F00701C4E900030C1A11604B608F
:101C30000B60C0E9001494604FF0004154605161A2
:101C400010BD00000000002070000024144E4FF072
:101C50008058144CDFF85090A6F1C80712E000BF7E
:101C600000F0A2F9F068C568281D00F04BF9A068E3
:101C7000401EA0606068401E606000F0B5F9284614
:101C8000FFF7A2FF60680028EAD138680128F9D977
:101C9000C9F80080BFF34F8FBFF36F8FF2E70000EA
:101CA000EC0300241C00002404ED00E02DE9F047C3
:101CB0009A4681466FF00303DDE9098403EB820253
:101CC000089E206B104420F00707780707D05020AB
:101CD00080F31188BFF34F8FBFF36F8FFEE74FF094
:101CE000000561B1002023180A5C83F834200A5CE7
:101CF00012B1401C1028F6D384F8435001E084F858
:101D00003450072E00D30626E662201DC4E9116573
:101D100000F023F904F1180000F01FF9E564C6F1A2
:101D20000700A06184F85050524624614946384665
:101D3000646200F0C1F8B8F1000F206001D0C8F86B
:101D40000040BDE8F087000030B5114900E01146C1
:101D50000A688242FBD34B685C18844203D1446812
:101D6000084623444B6043681D18954209D1084C2E
:101D7000183C2468A24209D052681A4442600A689A
:101D800012680260814200D0086030BD0460F9E74B
:101D9000700000240648416B096829B1416BC9688D
:101DA000C9684968816270474FF0FF31FAE7000067
:101DB0001C00002408484068401C4FF0500080F38D
:101DC000118804D0BFF34F8FBFF36F8FFEE7BFF3CF
:101DD0004F8FBFF36F8FFEE7780000242DE9F041AD
:101DE0000027044600F0B4F9324E306808B9FFF716
:101DF00005FF706904424ED1C4B3083460070ED0A9
:101E000004F00700C0F108000444600707D0502028
:101E100080F31188BFF34F8FBFF36F8FFEE72CB3B2
:101E20007068844237D82348183001460D6801E0B5
:101E300028460D466968A14202D229680029F7D1D7
:101E400031688D4227D007682968016008376868C3
:101E5000011B10290FD92819420708D0502080F300
:101E60001188BFF34F8FBFF36F8FFEE713E0416020
:101E70006C60FFF769FF69687068401A7060B2684B
:101E8000904200D2B060002072691143C5E90001A0
:101E9000F068401CF06000F0C9FA780707D05020C5
:101EA00080F31188BFF34F8FBFF36F8FFEE7384683
:101EB000BDE8F0815800002470B5041F094E231FAF
:101EC0004FF0807521F0010125601C1F1960A0F101
:101ED00020010B1F266044380A606FF002051D6068
:101EE00070BD0000B51D0008054C4FF4FA75802147
:101EF0002046FEF773FC2846FFF78FFDF7E700004A
:101F000000180258D0E9013201699A60D0E9012332
:101F10005A604A68824201D182684A6000220261A6
:101F20000868401E086008687047000010B5044C3F
:101F30008023046004F154000860136010BD0000A9
:101F4000840000244FF0FF3300F108010022C0E9B3
:101F500001130260C1600161704700210161704797
:101F600030B50B685A1C02D000F1080202E0026989
:101F700004E02246546825689D42FAD953684B60B4
:101F800099608A60516008610168491C016030BD38
:101F900042684A6093688B609368596091600861F9
:101FA0000168491C01607047502080F31188BFF31D
:101FB0004F8FBFF36F8F0A494868401C4860012863
:101FC0000CD10848006810F0FF0F07D0502080F3B4
:101FD0001188BFF34F8FBFF36F8FFEE7704700008C
:101FE0007800002404ED00E00849486828B1401E4C
:101FF000486001D180F311887047502080F3118828
:10200000BFF34F8FBFF36F8FFEE70000780000240F
:1020100070B500282AD0164DA0F1080461686869DF
:10202000014207D1502080F31188BFF34F8FBFF3D7
:102030006F8FFEE722683AB1502080F31188BFF31A
:102040004F8FBFF36F8FFEE78143616000F080F830
:1020500060686968084468602046FFF775FE286973
:10206000401C2861BDE8704000F0E0B970BD000080
:10207000580000244FF0E020002101614FF47A72F3
:102080008161072303490968B1FBF2F1491E4161EF
:102090000361704714000024020010B514D00F48EB
:1020A000006B38B1502080F31188BFF34F8FBFF31E
:1020B0006F8FFEE700F04CF800211046FFF7E4FCBC
:1020C00000F0B4F9002807D105494FF080500860AE
:1020D000BFF34F8FBFF36F8F10BD00001C000024B3
:1020E00004ED00E010B586B0002405AA04A903940D
:1020F00003A80494FFF71AFFDDE90301009400230D
:10210000CDE9011010480EA1059A00F0FEF80F4924
:102110000028C86211D0502080F31188BFF34F8F80
:10212000BFF36F8F01224FF0FF3088624A61CC60AD
:1021300006B0BDE8104000F041B806B010BD000088
:1021400049444C45000000004D1C00081C000024C0
:102150000248016B491C0163704700001C00002409
:102160001448016B11B10121C16170470021C161A7
:1021700011490269B2FA82F2C2F11F0202EB820235
:1021800051F822306BB101EB820101F108034A687A
:1021900052684A609A4201D152684A60D16801602F
:1021A0007047502080F31188BFF34F8FBFF36F8FBC
:1021B000FEE700001C0000242403002437481CB55F
:1021C000374902688A4207D1502080F31188BFF353
:1021D0004F8FBFF36F8FFEE731490068491E884279
:1021E00007D1502080F31188BFF34F8FBFF36F8F5B
:1021F000FEE72C49FF200A780192087008788DF8D4
:1022000000009DF800209DF8000002F0F0028242DC
:1022100007D0502080F31188BFF34F8FBFF36F8F2B
:10222000FEE79DF8002007201F4C02F050022270AC
:10223000A06005E09DF8002052008DF80020401EAF
:102240009DF800201206F5D40328A06007D0502086
:1022500080F31188BFF34F8FBFF36F8FFEE74FF40A
:102260004070A060019808700C482030016841F46B
:1022700070010160016841F070410160FFF7FAFEF2
:1022800000206060FEF796F80848016841F0404180
:102290000160FEF77BF800201CBD000000ED00E0AF
:1022A00071C20F4100E400E07800002434EF00E048
:1022B0002DE9FF5F994616468A4683469000DDE980
:1022C0000E87FFF78BFD05001CD05420FFF786FD1D
:1022D000040014D00020256384F851004B46CDE95A
:1022E0000087CDE90240324651465846FFF7DEFCF2
:1022F0002046FFF701FC012004B0BDE8F09F28460E
:10230000FFF786FE4FF0FF30F6E7F0B585B0DDE968
:102310000B740A9DA7B1DCB154262763022684F80A
:102320005160002703970DF1100C0095CDE901C411
:10233000FFF7BCFC2046FFF7DFFB049805B0F0BDBB
:10234000502080F31188BFF34F8FBFF36F8FFEE7EC
:10235000502080F31188BFF34F8FBFF36F8FFEE7DC
:102360002DE9F0412F4C206B002728B1A069401CBB
:10237000A0613846BDE8F081E668761CE66013D1BE
:10238000606B006838B1502080F31188BFF34F8F25
:10239000BFF36F8FFEE7606BA16B6163A063206A80
:1023A000401C2062FFF7F6FCDFF87C80A06A8642C2
:1023B00009D3606B0068A0B1606BC068C5686868CD
:1023C000864211D2A0622068C06A00EB800158F8F2
:1023D0002100012800D90127E0690028C9D0012780
:1023E000C7E74FF0FF30EDE7281DFFF78BFDA86A28
:1023F00018B105F11800FFF785FDE96A012022698F
:1024000088401043206101EB810108EB8100291D08
:10241000FFF7BEFD2068E96AC06A8142C9D301277F
:10242000C7E700001C000024240300242DE9F04726
:102430002C4D286B0024264638B1FFF7B5FD286BDC
:10244000401E2863286B40B147E0502080F311887C
:10245000BFF34F8FBFF36F8FFEE7234F0120A968B3
:10246000D9B3A7F1B40980463868E8B1F868C46800
:1024700004F11800FFF746FD201DFFF743FDE16A58
:102480002A6908FA01F01043286101EB810109EB88
:102490008100211DFFF77CFD2968E06AC96A884236
:1024A000E2D3C5F81C80DFE70CB1FFF773FCAC6921
:1024B00044B14746FFF754FF00B1EF61641EF9D104
:1024C0000020A861E86940B1084901264FF080501A
:1024D0000860BFF34F8FBFF36F8FFFF785FD304666
:1024E000BDE8F0871C000024D803002404ED00E0C0
:1024F0004FF04070E1EE100A7047000044250008DC
:102500007D160008000000000000000080000000B0
:10251000000000000000000050250008E91E00082F
:10252000FEFF00000000000080000000000000002E
:102530000000000000000000010203040102030487
:102540000607080964656661756C745461736B00F5
:102550004865617274426561740000008C25000852
:102560000000002484000000080300088C250008F7
:1025700000000020003C0000240300081026000892
:1025800084000024F4090000240300080000000077
:10259000000000000100000010000000000000002A
:1025A0000090D0030090D003000000000000000065
:1025B000000000000000000000000000000000001B
:1025C000000000000000000000000000000000000B
:1025D00000000000000000000000000000000000FB
:1025E00000000000000000000000000000000000EB
:1025F00000000000000000000000000000000000DB
:102600000000000000000000AAAAAAAA0000000022
:04000005080002CD20
:00000001FF
